:020000040800F2
:1000000000000220F5380008013600080936000813
:1000100011360008193600082136000800000000DB
:100020000000000000000000000000002936000869
:100030003736000800000000453600085336000837
:100040004539000845390008453900084539000898
:100050004539000845390008453900084539000888
:100060005F3600086D36000845390008453900083C
:100070004539000845390008453900084539000868
:100080004539000845390008453900084539000858
:100090004539000845390008453900084539000848
:1000A0004539000845390008453900084539000838
:1000B0007D36000891360008A5360008453900084D
:1000C000453900084539000845390008B9360008A7
:1000D00045390008CD360008453900084539000883
:1000E00045390008453900084539000845390008F8
:1000F00045390008453900084539000845390008E8
:1001000045390008453900084539000845390008D7
:1001100045390008453900084539000845390008C7
:10012000E136000845390008F536000809370008AF
:1001300045390008000000000000000045390008B3
:100140004539000845390008453900081D370008C1
:10015000453900084539000831370008453900089D
:100160004539000845390008453900084539000877
:100170004539000845390008000000000000000073
:0801800045390008453900086B
:1001900010B5054C237833B9044B13B10448AFF3C1
:1001A00000800123237010BD080300200000000020
:1001B0000815010808B5034B1BB103490348AFF309
:1001C000008008BD000000000C0300200815010895
:1001D00001F0FF01102A2BDB10F0070F08D010F8F8
:1001E000013B013A8B422DD010F0070F42B3F6D1FC
:1001F000F0B441EA012141EA014122F007047FF015
:1002000000070023F0E80256083C85EA010586EA6B
:10021000010685FA47F5A3FA87F586FA47F6A5FAA7
:1002200087F68EB9EED1F0BC01F0FF0102F00702B3
:1002300032B110F8013B013A83EA010313B1F8D15E
:100240000020704701387047002D06BF354603383F
:10025000073815F0010F07D1013015F4807F02BF78
:10026000013015F4C03F0130F0BC0138704700BFC9
:10027000034613F8012B002AFBD1181A01387047E6
:1002800081F0004102E000BF83F0004330B54FEA47
:1002900041044FEA430594EA050F08BF90EA020FB4
:1002A0001FBF54EA000C55EA020C7FEA645C7FEA47
:1002B000655C00F0E2804FEA5454D4EB5555B8BF6A
:1002C0006D420CDD2C4480EA020281EA030382EADB
:1002D000000083EA010180EA020281EA0303362D6D
:1002E00088BF30BD11F0004F4FEA01314FF4801C40
:1002F0004CEA113102D0404261EB410113F0004F52
:100300004FEA03334CEA133302D0524263EB430308
:1003100094EA050F00F0A780A4F10104D5F1200EA6
:100320000DDB02FA0EFC22FA05F2801841F1000101
:1003300003FA0EF2801843FA05F359410EE0A5F1D5
:1003400020050EF1200E012A03FA0EFC28BF4CF006
:10035000020C43FA05F3C01851EBE37101F00045BC
:1003600007D54FF0000EDCF1000C7EEB00006EEBC9
:100370000101B1F5801F1BD3B1F5001F0CD3490853
:100380005FEA30004FEA3C0C04F101044FEA4452AA
:1003900012F5800F80F09A80BCF1004F08BF5FEA31
:1003A000500C50F1000041EB045141EA050130BD11
:1003B0005FEA4C0C404141EB0101013C28BFB1F523
:1003C000801FE9D291F0000F04BF01460020B1FA6E
:1003D00081F308BF2033A3F10B03B3F120020CDA41
:1003E0000C3208DD02F1140CC2F10C0201FA0CF01F
:1003F00021FA02F10CE002F11402D8BFC2F1200C84
:1004000001FA02F120FA0CFCDCBF41EA0C01904039
:10041000E41AA2BF01EB0451294330BD6FEA040482
:100420001F3C1CDA0C340EDC04F11404C4F120026D
:1004300020FA04F001FA02F340EA030021FA04F37F
:1004400045EA030130BDC4F10C04C4F1200220FAD6
:1004500002F001FA04F340EA0300294630BD21FA14
:1004600004F0294630BD94F0000F83F4801306BFDA
:1004700081F480110134013D4EE77FEA645C18BFCE
:100480007FEA655C29D094EA050F08BF90EA020F65
:1004900005D054EA000C04BF1946104630BD91EA5D
:1004A000030F1EBF0021002030BD5FEA545C05D160
:1004B0004000494128BF41F0004130BD14F580049F
:1004C0003CBF01F5801130BD01F0004545F0FE4113
:1004D00041F470014FF0000030BD7FEA645C1ABF48
:1004E000194610467FEA655C1CBF0B46024650EA7F
:1004F000013406BF52EA033591EA030F41F40021AB
:1005000030BD00BF90F0000F04BF0021704730B530
:100510004FF4806404F132044FF000054FF0000105
:1005200050E700BF90F0000F04BF0021704730B5C6
:100530004FF4806404F1320410F0004548BF40429B
:100540004FF000013EE700BF42004FEAE2014FEAF0
:1005500031014FEA02701FBF12F07F4393F07F4FCB
:1005600081F06051704732F07F4208BF704793F0CE
:100570007F4F04BF41F40021704730B54FF46074E1
:1005800001F0004521F000411CE700BF50EA0102E4
:1005900008BF704730B54FF000050AE050EA01028D
:1005A00008BF704730B511F0004502D5404261EBFD
:1005B00041014FF4806404F132045FEA915C3FF43E
:1005C000D8AE4FF003025FEADC0C18BF03325FEADB
:1005D000DC0C18BF033202EBDC02C2F1200300FA8C
:1005E00003FC20FA02F001FA03FE40EA0E0021FAB1
:1005F00002F11444BDE600BF70B54FF0FF0C4CF49F
:10060000E06C1CEA11541DBF1CEA135594EA0C0F50
:1006100095EA0C0F00F0DEF82C4481EA030621EA8B
:100620004C5123EA4C5350EA013518BF52EA0335C6
:1006300041F4801143F4801338D0A0FB02CE4FF078
:100640000005E1FB02E506F00042E0FB03E54FF0A8
:100650000006E1FB03569CF0000F18BF4EF0010EA0
:10066000A4F1FF04B6F5007F64F5407404D25FEA9C
:100670004E0E6D4146EB060642EAC62141EA55514F
:100680004FEAC52040EA5E504FEACE2EB4F1FD0C91
:1006900088BFBCF5E06F1ED8BEF1004F08BF5FEA0F
:1006A000500E50F1000041EB045170BD06F00046C1
:1006B00046EA010140EA020081EA0301B4EB5C046E
:1006C000C2BFD4EB0C0541EA045170BD41F4801166
:1006D0004FF0000E013C00F3AB8014F1360FDEBF8B
:1006E000002001F0004170BDC4F10004203C35DA67
:1006F0000C341BDC04F11404C4F1200500FA05F3EA
:1007000020FA04F001FA05F240EA020001F000428A
:1007100021F0004110EBD37021FA04F642EB060100
:100720005EEA430E08BF20EAD37070BDC4F10C042A
:10073000C4F1200500FA04F320FA05F001FA04F2EE
:1007400040EA020001F0004110EBD37041F10001DA
:100750005EEA430E08BF20EAD37070BDC4F12005E5
:1007600000FA05F24EEA020E20FA04F301FA05F24D
:1007700043EA020321FA04F001F0004121FA04F2F5
:1007800020EA020000EBD3705EEA430E08BF20EAC5
:10079000D37070BD94F0000F0FD101F000464000FF
:1007A00041EB010111F4801F08BF013CF7D041EA81
:1007B000060195F0000F18BF704703F00046520085
:1007C00043EB030313F4801F08BF013DF7D043EA56
:1007D0000603704794EA0C0F0CEA135518BF95EA0C
:1007E0000C0F0CD050EA410618BF52EA4306D1D193
:1007F00081EA030101F000414FF0000070BD50EAB2
:10080000410606BF1046194652EA430619D094EA3B
:100810000C0F02D150EA013613D195EA0C0F05D125
:1008200052EA03361CBF104619460AD181EA030179
:1008300001F0004141F0FE4141F470014FF0000031
:1008400070BD41F0FE4141F4780170BD70B54FF0CC
:10085000FF0C4CF4E06C1CEA11541DBF1CEA13554C
:1008600094EA0C0F95EA0C0F00F0A7F8A4EB05042E
:1008700081EA030E52EA03354FEA013100F0888025
:100880004FEA03334FF0805545EA131343EA1263EE
:100890004FEA022245EA111545EA10654FEA0026A3
:1008A0000EF000419D4208BF964244F1FD0404F55C
:1008B000407402D25B084FEA3202B61A65EB0305B8
:1008C0005B084FEA32024FF480104FF4002CB6EB75
:1008D000020E75EB030E22BFB61A754640EA0C00F5
:1008E0005B084FEA3202B6EB020E75EB030E22BF35
:1008F000B61A754640EA5C005B084FEA3202B6EB76
:10090000020E75EB030E22BFB61A754640EA9C0034
:100910005B084FEA3202B6EB020E75EB030E22BF04
:10092000B61A754640EADC0055EA060E18D04FEAC2
:10093000051545EA16754FEA06164FEAC30343EA62
:1009400052734FEAC2025FEA1C1CC0D111F4801F2F
:100950000BD141EA00014FF000004FF0004CB6E728
:1009600011F4801F04BF01430020B4F1FD0C88BFC7
:10097000BCF5E06F3FF6AFAEB5EB030C04BFB6EBD2
:10098000020C5FEA500C50F1000041EB045170BDC5
:100990000EF0004E4EEA113114EB5C04C2BFD4EBF2
:1009A0000C0541EA045170BD41F480114FF0000E76
:1009B000013C90E645EA060E8DE60CEA135594EAF2
:1009C0000C0F08BF95EA0C0F3FF43BAF94EA0C0FF5
:1009D0000AD150EA01347FF434AF95EA0C0F7FF46A
:1009E00025AF104619462CE795EA0C0F06D152EABE
:1009F00003353FF4FDAE1046194622E750EA4106A2
:100A000018BF52EA43067FF4C5AE50EA41047FF4B2
:100A10000DAF52EA43057FF4EBAE12E74FF0FF3C17
:100A200006E000BF4FF0010C02E000BF4FF0010CE8
:100A30004DF804CD4FEA410C7FEA6C5C4FEA430C61
:100A400018BF7FEA6C5C1BD001B050EA410C0CBFB0
:100A500052EA430C91EA030F02BF90EA020F002012
:100A6000704710F1000F91EA030F58BF994208BF79
:100A700090422CBFD8176FEAE37040F00100704736
:100A80004FEA410C7FEA6C5C02D150EA013C07D18D
:100A90004FEA430C7FEA6C5CD6D152EA033CD3D0D8
:100AA0005DF8040B704700BF8446104662468C46D2
:100AB0001946634600E000BF01B5FFF7B7FF002805
:100AC00048BF10F1000F01BD4DF808EDFFF7F4FF2E
:100AD0000CBF012000205DF808FB00BF4DF808EDB9
:100AE000FFF7EAFF34BF012000205DF808FB00BFDC
:100AF0004DF808EDFFF7E0FF94BF012000205DF8FE
:100B000008FB00BF4DF808EDFFF7CEFF94BF0120B2
:100B100000205DF808FB00BF4DF808EDFFF7C4FFAB
:100B200034BF012000205DF808FB00BF4FEA410CF4
:100B30007FEA6C5C02D150EA013C0AD14FEA430CD7
:100B40007FEA6C5C02D152EA033C02D14FF0000014
:100B500070474FF0010070474FEA410212F5001252
:100B600015D211D56FF47873B3EB625212D94FEAF4
:100B7000C12343F0004343EA505311F0004F23FADE
:100B800002F018BF404270474FF00000704750EA33
:100B9000013005D111F0004008BF6FF000407047F0
:100BA0004FF00000704700BF4FEA4102B2F1E0434E
:100BB00024BFB3F5001CDCF1FE5C0DD901F0004C44
:100BC0004FEAC0024CEA5070B2F1004F40EB830094
:100BD00008BF20F00100704711F0804F21D113F1C0
:100BE0003872BCBF01F00040704741F480114FEAF9
:100BF0005252C2F11802C2F1200C10FA0CF320FA82
:100C000002F018BF40F001004FEAC1234FEAD3239E
:100C100003FA0CFC40EA0C0023FA02F34FEA430308
:100C2000CCE77FEA625307D150EA01331EBF4FF091
:100C3000FE4040F44000704701F0004040F0FE40AC
:100C400040F40000704700BF53B94AB9002908BFFB
:100C500000281CBF4FF0FF314FF0FF3000F06AB9A1
:100C6000ADF1080C6DE904CE00F006F8DDF804E003
:100C7000DDE9022304B070472DE9F047089D0C46DA
:100C8000002B4ED194468C458646B2FA82F262D948
:100C90004AB1C2F12003914020FA03F30CFA02FC9E
:100CA000194300FA02FE4FEA1C471FFA8CF6B1FB0B
:100CB000F7F44FEA1E4307FB141143EA014304FB18
:100CC00006F199420AD91CEB030304F1FF3080F0CE
:100CD0001281994240F20F81023C6344591A1FFA73
:100CE0008EF3B1FBF7F007FB101143EA014300FB61
:100CF00006F69E420AD91CEB030300F1FF3180F097
:100D0000FC809E4240F2F980634402389B1B40EA1B
:100D1000044000211DB1D3400022C5E90032BDE8E6
:100D2000F0878B4205D90DB1C5E9000100210846C5
:100D3000F5E7B3FA83F1002946D1A34202D39042EA
:100D4000C0F0F080861A64EB03030120002DE6D08A
:100D5000C5E90063E3E7002A40F09080A1EB0C04B2
:100D60004FEA1C481FFA8CF70121B4FBF8F64FEA52
:100D70001E4308FB164443EA044307FB06F098426F
:100D800008D91CEB030306F1FF3402D2984200F2AB
:100D9000CD8026461C1A1FFA8EF3B4FBF8F008FB30
:100DA000104443EA044300FB07F79F4208D91CEBB9
:100DB000030300F1FF3402D29F4200F2B0802046CC
:100DC000DB1B40EA0640A5E7C1F120068B4022FA72
:100DD00006F71F4320FA06FC04FA01F343EA0C036A
:100DE000F44000FA01F8380C4FEA1349B4FBF0FE66
:100DF0001FFA87FC00FB1E4449EA04440EFB0CF971
:100E0000A14502FA01F20AD93C190EF1FF3A80F02D
:100E10008480A14540F28180AEF1020E3C44A4EBF7
:100E200009041FFA83F9B4FBF0F300FB134449EA09
:100E3000044403FB0CFCA44507D93C1903F1FF3023
:100E400067D2A44565D9023B3C4443EA0E40A0FB6F
:100E50000293A4EB0C049C42CE469C4651D34ED048
:100E600055B1B8EB0E0364EB0C0404FA06F6CB4064
:100E70001E43CC40C5E90064002150E7C2F12003C5
:100E800020FA03F10CFA02FC24FA03F394400C4319
:100E90004FEA1C4800FA02FE1FFA8CF7B3FBF8F089
:100EA00008FB1031230C43EA014300FB07F1994290
:100EB00008D91CEB030300F1FF362CD299422AD942
:100EC000023863445B1AA4B2B3FBF8F108FB113398
:100ED00044EA034401FB07F3A34208D91CEB0404D2
:100EE00001F1FF3613D2A34211D902396444E41A46
:100EF00041EA004139E70446F0E6084606E7C845FE
:100F0000AED2B9EB020E63EB070C0138A8E731460D
:100F1000EDE7034699E73046D4E7D6467FE76344DA
:100F200002384DE70646234608460FE7023E634473
:100F300030E700BF704700BF80B586B000AFF860F3
:100F4000B9607A607B80FB68BA681A60FB687A686F
:100F50005A60FB687A889A81FB683A6A9A60FB68F3
:100F6000BA8CDA81FB6800221A74FB6800225A747A
:100F70000023FB75FB685868FB689B8900221946B3
:100F800003F028FC012002F051FDFB685868FB6863
:100F90009B890122194603F01DFC322002F046FD18
:100FA000B6227E21F86800F029FA03461A46FB7D36
:100FB0001344FB75322002F039FD07F116031A467F
:100FC0000021F86800F0A0F903461A46FB7D13449F
:100FD000FB750A2002F02AFD09224021F86800F082
:100FE0000DFA03461A46FB7D1344FB750A2002F0F6
:100FF0001DFD01224121F86800F000FA03461A465F
:10100000FB7D1344FB750A2002F010FD0A225321D8
:10101000F86800F0F3F903461A46FB7D1344FB75AC
:101020000A2002F003FD04225821F86800F0E6F9D6
:1010300003461A46FB7D1344FB750A2002F0F6FCBA
:1010400000227C21F86800F0D9F903461A46FB7D9E
:101050001344FB750A2002F0E9FC04227D21F868A4
:1010600000F0CCF903461A46FB7D1344FB750A20B9
:1010700002F0DCFCFB683A4A1A63FB6892229A741D
:10108000FB689868FB68DB890122194603F0A2FB24
:10109000B6221421F86800F0EBF903461A46FB7DEE
:1010A0001344FB75FA2002F0C1FC07F116031A463F
:1010B0000021F86800F066F903461A46FB7D1344E8
:1010C000FB750A2002F0B2FC01220F21F86800F043
:1010D000CFF903461A46FB7D1344FB750A2002F044
:1010E000A5FC06221021F86800F0C2F903461A4652
:1010F000FB7D1344FB750A2002F098FC8022152129
:10110000F86800F0B5F903461A46FB7D1344FB75F9
:101110000A2002F08BFC01221621F86800F0A8F9E1
:1011200003461A46FB7D1344FB750A2002F07EFC41
:1011300001221821F86800F09BF903461A46FB7D4E
:101140001344FB750A2002F071FCFB68054A5A63E0
:10115000FB6882229A76FB7D18461837BD4680BD13
:10116000A4706B3A58A00B3A80B485B000AF786099
:1011700039600023FB6044E07B6893ED177A7B685D
:10118000D3ED117A77EE277A7B68C3ED177A7B6807
:1011900093ED187A7B68D3ED127A77EE277A7B6825
:1011A000C3ED187A7B6893ED197A7B68D3ED137AD7
:1011B00077EE277A7B68C3ED197A7B6893ED147A12
:1011C0007B68D3ED0E7A77EE277A7B68C3ED147ACD
:1011D0007B6893ED157A7B68D3ED0F7A77EE277AEB
:1011E0007B68C3ED157A7B6893ED167A7B68D3ED47
:1011F000107A77EE277A7B68C3ED167AFB680133A5
:10120000FB60FA683B689A42B6DB0023BB602EE0C5
:101210007A68BB6816339B0013440433D3ED006A2D
:101220003B6807EE903AB8EEE77AC6EE877A7A68BE
:10123000BB6816339B0013440433C3ED007A7A680D
:10124000BB6814339B001344D3ED006A3B6807EE80
:10125000903AB8EEE77AC6EE877A7A68BB681433BC
:101260009B001344C3ED007ABB680133BB60BB68CD
:10127000022BCDDD00BF00BF1437BD465DF8047BF7
:10128000704780B582B000AF7860396002F0C2FB71
:1012900002463B685A607B6893ED187A7B68D3ED11
:1012A000127A77EE677A3B6817EE902A5A617B686C
:1012B00093ED117A7B68D3ED177A77EE677A3B6806
:1012C00017EE902A9A617B6893ED137A7B68D3EDD1
:1012D000197A77EE677A3B6817EE902ADA617B68B5
:1012E000D3ED0F7AF1EE677A3B6817EE902A1A6217
:1012F0007B689A6B3B685A627B681A6C3B689A629F
:1013000000BF0837BD4680BD80B588B002AFF86029
:101310000B467A60FB72FB7A63F07F03DBB23B75AE
:1013200000237B750023BB75FB685868FB689B89AD
:101330000022194603F04EFAFB68186807F1100204
:1013400007F114014FF0FF330093032305F043FB33
:101350000346002B0CBF01230023DBB2FB75FB68A7
:101360005868FB689B890122194603F033FAFB7D1C
:10137000012B02D1BA7C7B681A70FB7D18461837A6
:10138000BD4680BD80B588B002AFF8600B467A607C
:10139000FB72FB7A63F07F03DBB23B7500237B7546
:1013A000FB689868FB68DB890022194603F012FA93
:1013B000FB68186807F1100207F114014FF0FF33C2
:1013C0000093022305F007FB0346002B0CBF01230B
:1013D0000023DBB2FB75FB689868FB68DB890122A0
:1013E000194603F0F7F9FB7D012B02D17A7C7B686B
:1013F0001A70FB7D18461837BD4680BD80B584B095
:1014000000AF78600B46FB701346BB70FB783B73F4
:10141000BB787B737B6858687B689B890022194680
:1014200003F0D8F97B68186807F10C014FF0FF331F
:10143000022205F08CF90346002B0CBF0123002388
:10144000DBB2FB7300BF7B681B68184605F084FEA7
:101450000346012BF7D17B6858687B689B89012282
:10146000194603F0B7F9FB7B18461037BD4680BD1F
:1014700080B584B000AF78600B46FB701346BB703C
:10148000FB783B73BB787B737B6898687B68DB89F0
:101490000022194603F09EF97B68186807F10C01D9
:1014A0004FF0FF33022205F052F90346002B0CBF28
:1014B00001230023DBB2FB7300BF7B681B68184667
:1014C00005F04AFE0346012BF7D17B6898687B68DC
:1014D000DB890122194603F07DF9FB7B18461037A2
:1014E000BD4680BD80B582B000AF78607B681B7C54
:1014F000002B01D0002323E07B6858687B689B8920
:101500000022194603F066F97B6818687B6803F1CE
:1015100012017B6803F12102082305F005FC034654
:10152000002B04D17B6801221A74012308E07B6838
:1015300058687B689B890122194603F04BF9002308
:1015400018460837BD4680BD80B584B000AF7860CE
:101550007B6858687B689B890122194603F03AF939
:101560007B6800221A747B6893F82430DBB21B027C
:101570001AB27B6893F82330DBB21BB21343FB81B2
:101580007B6893F82630DBB21B021AB27B6893F8B3
:101590002530DBB21BB21343BB817B6893F8283044
:1015A000DBB21B021AB27B6893F82730DBB21BB2A6
:1015B00013437B817B6893ED0C7AB7F90E3007EE0D
:1015C000903AF8EEE77A67EE277A77EEA77A7B68AB
:1015D000C3ED0E7A7B6893ED0C7AB7F90C3007EE09
:1015E000903AF8EEE77A67EE277A77EEA77A7B688B
:1015F000C3ED0F7A7B6893ED0C7AB7F90A3007EEEA
:10160000903AF8EEE77A67EE277A77EEA77A7B686A
:10161000C3ED107A00BF1037BD4680BD80B582B0E3
:1016200000AF78607B685B7C002B01D0002323E057
:101630007B6898687B68DB890022194603F0CAF84A
:101640007B6818687B6803F11A017B6803F1290243
:10165000072305F069FB0346002B04D17B680122B8
:101660005A74012308E07B6898687B68DB89012253
:10167000194603F0AFF8002318460837BD4680BD71
:1016800080B584B000AF78607B6898687B68DB8940
:101690000122194603F09EF87B6800225A747B6889
:1016A00093F82B30DBB21B021AB27B6893F82A3016
:1016B000DBB21BB21343FB817B6893F82D30DBB2A6
:1016C0001B021AB27B6893F82C30DBB21BB21343B7
:1016D000BB817B6893F82F30DBB21B021AB27B68A8
:1016E00093F82E30DBB21BB213437B817B6893ED02
:1016F0000D7AB7F90E3007EE903AF8EEE77A67EE1A
:10170000277A7B68C3ED117A7B6893ED0D7AB7F980
:101710000C3007EE903AF8EEE77A67EE277A7B68AE
:10172000C3ED127A7B6893ED0D7AB7F90A3007EEB4
:10173000903AF8EEE77A67EE277A7B68C3ED137A82
:1017400000BF1037BD4680BDB0B58CB000AFB0EE65
:10175000406AF0EE606AB0EE417AF0EE617A78604D
:1017600087ED026AC7ED036A87ED047AC7ED057A53
:1017700097ED027AD7ED037A27EE277AD7ED046A40
:10178000D7ED057A66EEA77A77EE277A77EEA77A15
:10179000C7ED0B7A97ED037AD7ED037A27EE277A18
:1017A000D7ED046AD7ED047A66EEA77A77EE277A4A
:1017B00077EEA77AB7EE007A77EE677AC7ED0A7A06
:1017C000F86AFEF7C1FE04460D46B86AFEF7BCFE95
:1017D00002460B4643EC112B45EC104B0EF092FAEF
:1017E00051EC100B56A3D3E90023FEF705FF024688
:1017F0000B4610461946FFF7D7F902467B681A6078
:1018000097ED027AD7ED047A27EE277AD7ED056AAD
:10181000D7ED037A66EEA77A77EE677A77EEA77A46
:10182000C7ED097AD7ED097AF0EEE77AB7EE007ADC
:10183000F4EEC77AF1EE10FA13DB786AFEF784FE55
:1018400002460B4643EC112B9FED3B0B0CF0D9F9F4
:1018500051EC100B7B681C1DFFF7A6F903462360B3
:1018600019E0786AFEF770FE02460B4643EC102B37
:101870000EF014FA51EC100B31A3D3E90023FEF75C
:10188000BBFE02460B46104619467B681C1DFFF73F
:101890008BF90346236097ED027AD7ED057A27EEA0
:1018A000277AD7ED036AD7ED047A66EEA77A77EE4A
:1018B000277A77EEA77AC7ED087A97ED047AD7ED05
:1018C000047A27EE277AD7ED056AD7ED057A66EE1A
:1018D000A77A77EE277A77EEA77AB7EE007A77EED7
:1018E000677AC7ED077A386AFEF72EFE04460D4682
:1018F000F869FEF729FE02460B4643EC112B45EC36
:10190000104B0EF0FFF951EC100B0DA3D3E900239F
:10191000FEF772FE02460B46104619467B6803F13D
:101920000804FFF741F90346236000BF3037BD4686
:10193000B0BD00BFAFF30080000000000080564043
:1019400000000020DCA54C4080B58AB000AFF860F4
:1019500087ED020AC7ED010A87ED001AD7ED027A7A
:101960009FED627A67EE877AC7ED027AD7ED017A4A
:101970009FED5E7A67EE877AC7ED017AD7ED007A40
:101980009FED5A7A67EE877AC7ED007AD7ED027A33
:10199000B6EE007A67EE877AB0EE670A0EF0F2F9DB
:1019A00087ED090AD7ED027AB6EE007A67EE877AFC
:1019B000B0EE670A0EF032FA87ED080AD7ED017A29
:1019C000B6EE007A67EE877AB0EE670A0EF0DAF9C3
:1019D00087ED070AD7ED017AB6EE007A67EE877ACF
:1019E000B0EE670A0EF01AFA87ED060AD7ED007A14
:1019F000B6EE007A67EE877AB0EE670A0EF0C2F9AB
:101A000087ED050AD7ED007AB6EE007A67EE877AA1
:101A1000B0EE670A0EF002FA87ED040A97ED097A34
:101A2000D7ED077A27EE277AD7ED057A27EE277AC2
:101A3000D7ED086AD7ED067A66EEA76AD7ED047A85
:101A400066EEA77A77EE277AFB68C3ED007A97ED0A
:101A5000087AD7ED077A27EE277AD7ED057A27EEB1
:101A6000277AD7ED096AD7ED067A66EEA76AD7ED31
:101A7000047A66EEA77A77EE677AFB68C3ED017A9F
:101A800097ED097AD7ED067A27EE277AD7ED057A12
:101A900027EE277AD7ED086AD7ED077A66EEA76AB0
:101AA000D7ED047A66EEA77A77EE277AFB68C3ED66
:101AB000027A97ED097AD7ED077A27EE277AD7EDE4
:101AC000047A27EE277AD7ED086AD7ED067A66EE14
:101AD000A76AD7ED057A66EEA77A77EE677AFB6894
:101AE000C3ED037A00BF2837BD4680BD39FA8E3C6E
:101AF00080B58CB000AFF86187ED060AC7ED050A26
:101B000087ED041AC7ED031A87ED022AC7ED012AF3
:101B1000D7ED011A97ED021AD7ED050A97ED060ADF
:101B2000F86900F068F997ED011AD7ED030A97ED0F
:101B3000040AF86900F065FA0023FB6238E0FA69EC
:101B4000FB6A04339B00134404334FF000021A6015
:101B5000FA69FB6A06339B00134404334FF000021A
:101B60001A60FA69FB6A08339B00134404334FF090
:101B700000021A60FA69FB6A0A339B0013440433BB
:101B80004FF000021A60FA69FB6A0C339B001344A1
:101B900004334FF000021A60FA69FB6A0E339B00AF
:101BA000134404334FF000021A60FB6A0133FB62F6
:101BB000FB6A012BC3DD0023BB6238E0FA69BB6A14
:101BC00010339B00134404334FF000021A60FA698B
:101BD000BB6A12339B00134404334FF000021A60B7
:101BE000FA69BB6A14339B00134404334FF00002BC
:101BF0001A60FA69BB6A16339B00134404334FF032
:101C000000021A60FA69BB6A18339B00134404335C
:101C10004FF000021A60FA69BB6A1A339B00134442
:101C200004334FF000021A60BB6A0133BB62BB6A27
:101C3000012BC3DD00237B621DE0FA697B6A1C3344
:101C40009B00134404334FF000021A60FA697B6A68
:101C50001E339B00134404334FF000021A60FA69EC
:101C60007B6A20339B00134404334FF000021A6058
:101C70007B6A01337B627B6A012BDEDD00BF00BF24
:101C80003037BD4680BD000080B584B000AF87ED21
:101C9000010AC7ED000A7868FEF756FC13A3D3E9E2
:101CA0000023FEF7A9FC02460B464FF000000E4948
:101CB000FEF7CCFD02460B4610461946FEF774FFB0
:101CC0000346FB6097ED037AD7ED007A77EE277A2B
:101CD00097ED007AC7EE276AF0EE667AB0EE670AF3
:101CE0001037BD4680BD00BF0000F03F182D4454A2
:101CF000FB21194080B485B000AFF86087ED020A7F
:101D0000C7ED010A87ED001A97ED007AD7ED017A49
:101D100027EE277AF7EE006AD7ED007A76EEE76ACB
:101D2000D7ED027A66EEA77A77EE277AB0EE670AE9
:101D30001437BD465DF8047B704780B485B000AFB2
:101D4000F86087ED020AC7ED010A87ED001AD7EDAA
:101D5000027AB7EE007AF4EEC77AF1EE10FA03DDFC
:101D60004FF07E53BB6009E0D7ED027AF5EEC07A02
:101D7000F1EE10FA02D54FF00003BB60D7ED017A07
:101D8000B7EE007AF4EEC77AF1EE10FA03DD4FF009
:101D90007E537B6009E0D7ED017AF5EEC07AF1EE73
:101DA00010FA02D54FF000037B60D7ED007AB7EE52
:101DB000007AF4EEC77AF1EE10FA03DD4FF07E53AD
:101DC0003B6009E0D7ED007AF5EEC07AF1EE10FA4B
:101DD00002D54FF000033B60FB68BA681A60FB68ED
:101DE0007A685A60FB683A681A6100BF1437BD46CA
:101DF0005DF8047B704780B58AB000AF786187EDED
:101E0000040AC7ED030A87ED021AC7ED011AD7EDE0
:101E1000010A97ED040AFFF737FF87ED090AD7EDAE
:101E2000010A97ED030AFFF72FFF87ED080AD7EDA8
:101E3000010A97ED020AFFF727FF87ED070A97EDE2
:101E4000021AD7ED080A97ED090A7869FFF775FFBE
:101E500000BF2837BD4680BD80B584B000AFF860B4
:101E6000B9607A603B60BB68D3ED067A7B6893ED1E
:101E7000007ABB68D3ED006AB0EE661AF0EE470A4E
:101E8000B0EE670AB868FFF735FFF0EE407ABB683E
:101E9000C3ED057ABB68D3ED087A7B68043393ED14
:101EA000007ABB68D3ED006AB0EE661AF0EE470A1E
:101EB000B0EE670AB868FFF71DFFF0EE407ABB6826
:101EC000C3ED077ABB68D3ED0A7A7B68083393EDDC
:101ED000007ABB68D3ED006AB0EE661AF0EE470AEE
:101EE000B0EE670AB868FFF705FFF0EE407ABB680E
:101EF000C3ED097ABB68D3ED0C7A3B6893ED007AA9
:101F0000BB68D3ED016AB0EE661AF0EE470AB0EE98
:101F1000670AB868FFF7EEFEF0EE407ABB68C3EDE3
:101F20000B7ABB68D3ED0E7A3B68043393ED007AED
:101F3000BB68D3ED016AB0EE661AF0EE470AB0EE68
:101F4000670AB868FFF7D6FEF0EE407ABB68C3EDCB
:101F50000D7ABB68D3ED107A3B68083393ED007AB5
:101F6000BB68D3ED016AB0EE661AF0EE470AB0EE38
:101F7000670AB868FFF7BEFEF0EE407ABB68C3EDB3
:101F80000F7ABB685A69BB689A61BB68DA69BB683B
:101F90001A62BB685A6ABB689A62BB68DA6ABB6835
:101FA0001A63BB685A6BBB689A63BB68DA6BBB6821
:101FB0001A64BB685A697B681A607B680433BA6824
:101FC000D2691A607B680833BA68526A1A60BB68C3
:101FD000DA6A3B681A603B680433BA68526B1A606D
:101FE0003B680833BA68D26B1A60FA68BB6810465F
:101FF00019468C231A460BF0F6FDF8681037BD46DB
:1020000080BD80B586B000AFF86087ED020AC7EDED
:10201000010A87ED001AD7ED000A97ED020A00F0D9
:1020200015F887ED050AD7ED000A97ED010A00F0D3
:102030000DF887ED040AD7ED040A97ED050AF86854
:1020400000F026F800BF1837BD4680BD80B582B0CD
:1020500000AF87ED010AC7ED000AD7ED017A9FEDC9
:102060000B7A27EE877AD7ED007A67EE277AB0EE03
:10207000670A0DF051FEF0EE407AB7EE007A77EE87
:10208000677AB0EE670A0837BD4680BDDB0FC9C06E
:1020900080B485B000AFF86087ED020AC7ED010A91
:1020A000D7ED027AB7EE007AF4EEC77AF1EE10FAC5
:1020B00003DD4FF07E53BB6009E0D7ED027AF5EE09
:1020C000C07AF1EE10FA02D54FF00003BB60D7EDF5
:1020D000017AB7EE007AF4EEC77AF1EE10FA03DD7A
:1020E0004FF07E537B6009E0D7ED017AF5EEC07AC0
:1020F000F1EE10FA02D54FF000037B60FB68BA687E
:102100009A60FB687A68DA6000BF1437BD465DF8F4
:10211000047B704780B59EB000AF87ED070AC7ED1E
:10212000060A87ED051AC7ED041A87ED032AC7EDE5
:10213000022A87ED013AEC4BD3ED007AB1EE677AD3
:10214000D7ED077A27EE277AE84BD3ED006AD7ED73
:10215000067A66EEA77A37EE677AE54BD3ED006A2A
:10216000D7ED057A66EEA77A77EE677AB6EE007A53
:1021700067EE877AC7ED1D7ADE4B93ED007AD7EDD7
:10218000077A27EE277AD94BD3ED006AD7ED057A87
:1021900066EEA77A37EE277AD54BD3ED006AD7EDF6
:1021A000067A66EEA77A77EE677AB6EE007A67EE81
:1021B000877AC7ED1C7ACF4B93ED007AD7ED067A7C
:1021C00027EE277AC84BD3ED006AD7ED057A66EE85
:1021D000A77A37EE677AC64BD3ED006AD7ED077A58
:1021E00066EEA77A77EE277AB6EE007A67EE877A00
:1021F000C7ED1B7ABF4B93ED007AD7ED057A27EE3A
:10220000277AB94BD3ED006AD7ED067A66EEA77A46
:1022100037EE277AB54BD3ED006AD7ED077A66EE35
:10222000A77A77EE677AB6EE007A67EE877AC7ED1F
:102230001A7AD7ED047AF5EE407AF1EE10FA0ED163
:10224000D7ED037AF5EE407AF1EE10FA07D1D7ED2B
:10225000027AF5EE407AF1EE10FA00F0E581D7ED62
:10226000047A27EEA77AD7ED037A67EEA77A37EEDE
:10227000277AD7ED027A67EEA77A77EE277AB0EE63
:10228000670A00F07BFA87ED190A97ED047AD7ED1B
:10229000197A67EE277AC7ED047A97ED037AD7EDBE
:1022A000197A67EE277AC7ED037A97ED027AD7EDB0
:1022B000197A67EE277AC7ED027A8E4BD3ED007A52
:1022C00077EEA77AC7ED187A874BD3ED007A77EED1
:1022D000A77AC7ED177A854BD3ED007A77EEA77A08
:1022E000C7ED167A824BD3ED007A77EEA77AC7ED69
:1022F000157A804BD3ED007AB1EE007A67EE877ADB
:10230000C7ED147A784BD3ED007AB1EE007A67EE20
:10231000877AC7ED137A754BD3ED007AB1EE007A68
:1023200067EE877AC7ED127A6F4BD3ED007AB2EE83
:10233000007A67EE877AC7ED117A6C4BD3ED007A9D
:10234000B2EE007A67EE877AC7ED107A694B93EDAB
:10235000007A684BD3ED007A67EE277AC7ED0F7AE3
:10236000614B93ED007A604BD3ED007A67EE277AEC
:10237000C7ED0E7A5D4B93ED007A5C4BD3ED007A9E
:1023800067EE277AC7ED0D7A594B93ED007A584BDB
:10239000D3ED007A67EE277AC7ED0C7A97ED147AC1
:1023A000D7ED0D7A27EE277AD7ED166AD7ED047AA6
:1023B00066EEA77A37EE277AD7ED146AD7ED0E7A54
:1023C00066EEA77A37EE277AD7ED176AD7ED037A4C
:1023D00066EEA77A77EE677AC7ED0B7A97ED137AF8
:1023E000D7ED0C7A27EE277AD7ED156AD7ED047A68
:1023F00066EEA77A37EE677AD7ED0F7AF1EE006ACC
:1024000067EEA66A384BD3ED007A66EEA77A37EE10
:10241000277AD7ED186AD7ED037A66EEA77A37EEFA
:10242000677AD7ED137A37EE677AD7ED116AD7ED71
:102430000E7A66EEA77A37EE277AD7ED116AD7EDD6
:102440000D7A66EEA77A37EE277AD7ED136AD7EDC5
:10245000027A66EEA77A77EE277AC7ED0A7AD7ED89
:102460000F7AB1EE007A27EE877A204BD3ED007A0F
:1024700027EE277AD7ED186AD7ED047A66EEA77AA9
:1024800037EE277AD7ED126AD7ED0C7A66EEA77A87
:1024900037EE277AD7ED156AD7ED037A66EEA77A7D
:1024A00037EE677AD7ED127A37EE677AD7ED106A92
:1024B000D7ED0E7A66EEA77A37EE277AD7ED106A57
:1024C000D7ED0D7A66EEA77A37EE277AD7ED126A46
:1024D000D7ED027A66EEA77A77EE277AC7ED097A0A
:1024E000D7ED0E7A08E000BF240300202803002067
:1024F0002C03002004000020B1EE007A27EE877A3A
:10250000994BD3ED007A27EE277AD7ED176AD7EDEE
:10251000047A66EEA77A37EE677AD7ED0D7AF1EE98
:10252000006A67EEA66A904BD3ED007A66EEA77A52
:1025300037EE277AD7ED166AD7ED037A66EEA77ADB
:1025400077EE677AC7ED087AD7ED0B7A27EEA77A90
:10255000D7ED0A7A67EEA77A37EE277AD7ED097AB0
:1025600067EEA77A37EE277AD7ED087A67EEA77A73
:1025700077EE277AB0EE670A00F000F987ED190AC6
:1025800097ED0B7AD7ED197A67EE277AC7ED0B7ABC
:1025900097ED0A7AD7ED197A67EE277AC7ED0A7AAE
:1025A00097ED097AD7ED197A67EE277AC7ED097AA0
:1025B00097ED087AD7ED197A67EE277AC7ED087A92
:1025C0006A4B93ED007AD7ED0B7A67EE277A97ED99
:1025D0001D7A77EE677AC7ED1D7A644B93ED007A2A
:1025E000D7ED0A7A67EE277A97ED1C7A77EE677A4D
:1025F000C7ED1C7A5D4B93ED007AD7ED097A67EE53
:10260000277A97ED1B7A77EE677AC7ED1B7A574BDF
:1026100093ED007AD7ED087A67EE277A97ED1A7A6C
:1026200077EE677AC7ED1A7AF7EE006AD7ED017A8E
:1026300086EEA77AD7ED1D7A27EE277A4C4BD3ED9D
:10264000007A77EE277A4A4BC3ED007AF7EE006AFC
:10265000D7ED017A86EEA77AD7ED1C7A27EE277A96
:10266000444BD3ED007A77EE277A424BC3ED007AE4
:10267000F7EE006AD7ED017A86EEA77AD7ED1B7ADE
:1026800027EE277A3C4BD3ED007A77EE277A3A4B48
:10269000C3ED007AF7EE006AD7ED017A86EEA77AED
:1026A000D7ED1A7A27EE277A2F4BD3ED007A77EE03
:1026B000277A2D4BC3ED007A2D4B93ED007A2C4BEE
:1026C000D3ED007A27EE277A2A4BD3ED006A294B07
:1026D000D3ED007A66EEA77A37EE277A264BD3ED54
:1026E000006A254BD3ED007A66EEA77A37EE277A9B
:1026F0001D4BD3ED006A1C4BD3ED007A66EEA77A32
:1027000077EE277AB0EE670A00F038F887ED190AFD
:10271000174B93ED007AD7ED197A67EE277A144BB1
:10272000C3ED007A134B93ED007AD7ED197A67EE7B
:10273000277A104BC3ED007A0F4B93ED007AD7ED5B
:10274000197A67EE277A0C4BC3ED007A064B93EDAE
:10275000007AD7ED197A67EE277A034BC3ED007A3A
:1027600000BF7837BD4680BD2C030020000000204C
:1027700004000020240300202803002080B487B038
:1027800000AF87ED010AD7ED017AB6EE007A67EE69
:10279000877AC7ED057A7B683B6107F110031B68F8
:1027A000FB60FB685A10124B9B1AFB6007F10C038D
:1027B0001B683B6197ED047AD7ED057A27EE277AFF
:1027C000D7ED047A67EE277AB7EE087A37EE677AA4
:1027D000D7ED047A67EE277AC7ED047A3B6907EEF6
:1027E000903AB0EE670A1C37BD465DF8047B70472F
:1027F000DF59375F80B582B000AF786001F00AF929
:1028000002460C4B1B68D31A7A689A4208D81021EA
:10281000094801F0F8FF01F0FDF80346054A13608E
:1028200001F0F8F80346054A136000BF0837BD46BB
:1028300080BD00BF64070020000402406007002044
:1028400080B582B000AF0346FB80FB88042B07D124
:102850000A4B1B7C002B0DD10848FEF743FE09E014
:10286000FB88082B06D1054B5B7C002B02D103486B
:10287000FEF7D4FE00BF0837BD4680BD2806002005
:1028800080B582B000AF78607B681B680A4A9342CB
:102890000DD10A4B1B7C002B02D00848FEF754FEDA
:1028A000064B5B7C002B02D00448FEF7E9FE00BF1C
:1028B0000837BD4680BD00BF00300140280600201B
:1028C0002DE9F04FC7B014AFC7F8C400D7F8C43033
:1028D0001B68B3F1804F60D17A4B1B680133794A92
:1028E000136079497948FEF7CCFC794C07F1300048
:1028F000784B794A7649FFF7AFFA204607F1300363
:102900008C2219460BF06FF96F4BD3ED057A6E4BA5
:1029100093ED067A6C4BD3ED076A6B4B93ED086A27
:10292000694BD3ED095A684B93ED0A5A6B4BD3EDC3
:10293000004AB0EE643AF0EE452AB0EE652AF0EEB9
:10294000461AB0EE661AF0EE470AB0EE670AFFF7D5
:10295000E1FB634B1B68634A1360634B1B68614A6E
:102960005360624B1B685F4A9360614B1B685D4A12
:10297000D3605C4B93ED006AD3ED016A93ED027A6C
:10298000D3ED037A5B48B0EE460AF0EE660AB0EE8D
:10299000471AF0EE671AFEF7D7FED7F8C4301B6867
:1029A000554A934273D1554B1B680133534A136008
:1029B000534B1B68FB62444B9B681846FDF7C4FDF4
:1029C000C7E90801404BDB681846FDF7BDFDC7E9C4
:1029D00006013D4B1B691846FDF7B6FDC7E904012A
:1029E000474B1E68384B5B691846FDF7ADFDC7E9DC
:1029F0000201354B9B691846FDF7A6FDC7E90001AA
:102A0000314BDB691846FDF79FFD82468B462E4B06
:102A10001B6A1846FDF798FD804689462A4B5B6A7B
:102A20001846FDF791FD04460D46274B9B6A184654
:102A3000FDF78AFD02460B46CDE91223CDE910458C
:102A4000CDE90E89CDE90CAB97ED007B8DED0A7BCE
:102A500097ED027B8DED087B069697ED047B8DED5F
:102A6000047B97ED067B8DED027B97ED087B8DED6A
:102A7000007BFA6A234924480AF0D2FF2248FDF776
:102A8000F7FB03469BB219461F4809F053FED7F8DF
:102A9000C4301B681D4A93420FD10B4B1C4A1A606D
:102AA000094B1C4ADA62302207491B4805F056FAE6
:102AB0001A4B1B781846FFF79DFE00BFCC37BD466A
:102AC000BDE8F08F280700203007002028060020EE
:102AD0009006002050070020440700202007002017
:102AE000040000200C000020240300202803002004
:102AF0002C03002038070020000400402407002099
:102B00002C07002034150108680700200008004049
:102B1000DDCCBBAAFF9988EE20050020080000202C
:102B200080B582B002AF00F00FFF00F09DF800F01A
:102B3000ADFA00F073FA00F001F900F035F909F090
:102B40003BFD00F0A5F900F03FFA00F0EFF9052099
:102B500001F060F800220021382001F066F801221F
:102B600000213B2001F061F800220121082001F042
:102B70005CF801220121092001F057F8002202210E
:102B80001E2001F052F81E2001F06BF84FF47A700D
:102B900000F04CFF10230193224B00931023224A94
:102BA00022492348FEF7C8F99FED221ADFED210ADA
:102BB0009FED200A2048FEF7C7FE204BD3ED007A98
:102BC0001F4B93ED007A1F4BD3ED006A1E4B93ED24
:102BD000006A1E4BD3ED005A1D4B93ED005AF0EEE8
:102BE000452AB0EE652AF0EE461AB0EE661AF0EE0F
:102BF000470AB0EE670A1748FEF77AFF4FF47A707B
:102C000000F014FF144804F033FD14490848FEF79F
:102C1000ABFA134804F02CFD124B1B781846FFF753
:102C2000E9FDF9E7000802400000024030030020FF
:102C300028060020000000000C0000201C000020DE
:102C400020000020280000202C000020240000206C
:102C50001C070020900600204804002040420F007E
:102C6000D80400200800002080B594B000AF07F120
:102C700020033022002118460AF035FF07F10C032B
:102C800000221A605A609A60DA601A610023BB6001
:102C9000284B1B6C274A43F080531364254B1B6C55
:102CA00003F08053BB60BB6800237B60224B1B6832
:102CB000214A43F4804313601F4B1B6803F4804395
:102CC0007B607B6801233B624FF480337B6202238D
:102CD000BB634FF48003FB6308233B64A8237B643E
:102CE0000223BB640723FB6407F12003184603F0AB
:102CF0000FF80346002B01D000F06EFA0F23FB60A3
:102D000002233B6100237B614FF4A053BB614FF46E
:102D10008053FB6107F10C030521184603F070FA9C
:102D20000346002B01D000F057FA00BF5037BD46D4
:102D300080BD00BF003802400070004080B500AF89
:102D4000174B184A1A60164B4FF482725A60144B94
:102D500000229A60124B0022DA60114B00221A61A5
:102D60000F4B00225A610E4B4FF400729A610C4BCC
:102D70001022DA610A4B00221A62094B00225A62C1
:102D8000074B00229A62064B0A22DA62044803F0DB
:102D900055FC0346002B01D000F01EFA00BF80BD99
:102DA000300300200030014080B586B000AF07F14D
:102DB000080300221A605A609A60DA603B460022DB
:102DC0001A605A602E4B4FF080421A602C4B292219
:102DD0005A602B4B00229A60294B42F20F72DA6044
:102DE000274B00221A61264B00229A61244804F0E6
:102DF000EFFB0346002B01D000F0EEF94FF48053B7
:102E0000BB6007F1080319461D4804F091FD034615
:102E1000002B01D000F0E0F900233B6000237B6031
:102E20003B461946164804F0B9FF0346002B01D073
:102E300000F0D2F9DFED136A114BDB680133104A61
:102E4000526802FB03F3013307EE903AF8EE677A1B
:102E500086EEA77AF7EE006AC6EE877A0A4BC3EDD4
:102E6000007A094B93ED007AF7EE006AC6EE877A96
:102E7000064BC3ED007A00BF1837BD4680BD00BFCA
:102E800048040020A037A04C1C0700202007002089
:102E900080B586B000AF07F1080300221A605A60BF
:102EA0009A60DA603B4600221A605A601D4B1E4A47
:102EB0001A601C4B29225A601A4B00229A60194B47
:102EC00042F20F72DA60174B00221A61154B002292
:102ED0009A61144804F07CFB0346002B01D000F0FB
:102EE0007BF94FF48053BB6007F1080319460D4886
:102EF00004F01EFD0346002B01D000F06DF9002305
:102F00003B6000237B603B461946064804F046FFC1
:102F10000346002B01D000F05FF900BF1837BD4613
:102F200080BD00BF900400200004004080B586B042
:102F300000AF07F1080300221A605A609A60DA6055
:102F40003B4600221A605A601D4B1E4A1A601C4BF9
:102F500029225A601A4B00229A60194B42F20F72D2
:102F6000DA60174B00221A61154B00229A6114484F
:102F700004F02EFB0346002B01D000F02DF94FF496
:102F80008053BB6007F1080319460D4804F0D0FCDC
:102F90000346002B01D000F01FF900233B60002303
:102FA0007B603B461946064804F0F8FE0346002BBA
:102FB00001D000F011F900BF1837BD4680BD00BF39
:102FC000D80400200008004080B500AF114B124A21
:102FD0001A60104B4FF4E1325A600E4B00229A6097
:102FE0000C4B0022DA600B4B00221A61094B0C22B9
:102FF0005A61084B00229A61064B0022DA610548AB
:1030000004F05CFF0346002B01D000F0E5F800BFA0
:1030100080BD00BF200500200010014080B582B0B7
:1030200000AF00237B60184B1B6B174A43F48003EF
:103030001363154B1B6B03F480037B607B680022DA
:103040000021382000F0F1FD382000F00AFE0022B7
:1030500000213A2000F0E9FD3A2000F002FE0022B3
:1030600000213B2000F0E1FD3B2000F0FAFD0022B2
:103070000021462000F0D9FD462000F0F2FD00BFFF
:103080000837BD4680BD00BF0038024080B58AB019
:1030900000AF07F1140300221A605A609A60DA60E8
:1030A0001A6100233B61484B1B6B474A43F0800386
:1030B0001363454B1B6B03F080033B613B690023AB
:1030C000FB60414B1B6B404A43F0040313633E4BD0
:1030D0001B6B03F00403FB60FB680023BB603A4BEF
:1030E0001B6B394A43F001031363374B1B6B03F02F
:1030F0000103BB60BB6800237B60334B1B6B324A10
:1031000043F002031363304B1B6B03F002037B603D
:103110007B68002210212D4801F05CFB0022102169
:103120002B4801F057FB002210212A4801F052FBE6
:103130000C237B614FF48813BB610023FB6107F113
:1031400014031946224801F0A9F910237B610123D9
:10315000BB610023FB6100233B6207F114031946A6
:103160001A4801F09BF910237B610123BB61002306
:10317000FB6100233B6207F114031946144801F078
:103180008DF910237B610123BB610023FB610023C8
:103190003B6207F1140319460E4801F07FF9002243
:1031A0000021082000F041FD082000F05AFD002217
:1031B0000021092000F039FD092000F052FD00BF78
:1031C0002837BD4680BD00BF0038024000000240E5
:1031D000000802400004024080B5A0B000AF3B46AA
:1031E0000B4918460AF01CFC00BF3B461846FDF789
:1031F0003FF803469AB23B461146184609F09AFA40
:103200000346022BF1D072B600BF00BFFDE700BF3E
:103210007015010880B483B000AF00237B60104BB1
:103220005B6C0F4A43F4804353640D4B5B6C03F4B7
:1032300080437B607B6800233B60094B1B6C084A22
:1032400043F080531364064B1B6C03F080533B60C8
:103250003B6800BF0C37BD465DF8047B704700BF7C
:103260000038024080B58AB000AF786007F11403DF
:1032700000221A605A609A60DA601A617B681B68E3
:103280004C4A934240F0928000233B614A4B5B6C76
:10329000494A43F480535364474B5B6C03F48053B7
:1032A0003B613B690023FB60434B1B6B424A43F08D
:1032B00001031363404B1B6B03F00103FB60FB68CE
:1032C000E0237B610223BB610023FB6103233B629C
:1032D00005237B6207F114031946384801F0DEF834
:1032E000374B384A1A60364B4FF0C0625A60344B45
:1032F00000229A60324B0022DA60314B4FF4806238
:103300001A612F4B00225A612D4B00229A612C4BDF
:103310000022DA612A4B4FF440321A62284B002215
:103320005A62274800F0B8FC0346002B01D0FFF793
:1033300053FF7B68224ADA64214A7B689363224BFD
:10334000224A1A60204B4FF0C0625A601E4B402246
:103350009A601D4B0022DA601B4B4FF480621A61A9
:10336000194B00225A61184B00229A61164B002219
:10337000DA61154B4FF440321A62134B00225A6245
:10338000114800F089FC0346002B01D0FFF724FF11
:103390007B680D4A9A640C4A7B6893630022002183
:1033A000232000F042FC232000F05BFC00BF283704
:1033B000BD4680BD003001400038024000000240A0
:1033C0008803002010640240E80300205864024093
:1033D00080B586B000AF78607B681B68B3F1804F22
:1033E00016D100237B61284B1B6C274A43F0010355
:1033F0001364254B1B6C03F001037B617B69002286
:1034000000211C2000F011FC1C2000F02AFC36E0FA
:103410007B681B681D4A934216D100233B611A4BFF
:103420001B6C194A43F002031364174B1B6C03F027
:1034300002033B613B69002200211D2000F0F5FBE7
:103440001D2000F00EFC1AE07B681B68104A9342B6
:1034500015D10023FB600C4B1B6C0B4A43F004039B
:103460001364094B1B6C03F00403FB60FB68002230
:1034700000211E2000F0D9FB1E2000F0F2FB00BF4F
:103480001837BD4680BD00BF003802400004004030
:103490000008004080B58AB000AF786007F11403DF
:1034A00000221A605A609A60DA601A617B681B68B1
:1034B0004C4A934240F0918000233B614A4B5B6C45
:1034C000494A43F010035364474B5B6C03F010030D
:1034D0003B613B690023FB60434B1B6B424A43F05B
:1034E00001031363404B1B6B03F00103FB60FB689C
:1034F0004FF4C0637B610223BB610023FB610323A4
:103500003B6207237B6207F114031946374800F03A
:10351000C5FF374B374A1A60354B4FF000625A608F
:10352000334B40229A60324B0022DA60304B4FF42A
:1035300080621A612E4B00225A612D4B00229A6143
:103540002B4B0022DA612A4B00221A62284B002200
:103550005A62274800F0A0FB0346002B01D0FFF77A
:103560003BFE7B68224A9A63214A7B689363224B25
:10357000224A1A60204B4FF000625A601E4B002214
:103580009A601D4B0022DA601B4B4FF480621A6177
:10359000194B00225A61184B00229A61164B0022E7
:1035A000DA61154B00221A62134B00225A6212484C
:1035B00000F072FB0346002B01D0FFF70DFE7B6885
:1035C0000D4ADA630C4A7B689363002200212520B0
:1035D00000F02BFB252000F044FB00BF2837BD4640
:1035E00080BD00BF001001400038024000000240D2
:1035F00068050020B8640240C8050020406402400D
:1036000080B400AF00BFFDE780B400AF00BFFDE7AE
:1036100080B400AF00BFFDE780B400AF00BFFDE79E
:1036200080B400AF00BFFDE780B400AF00BFBD466F
:103630005DF8047B704780B400AF00BFBD465DF805
:10364000047B704780B400AF00BFBD465DF8047BCB
:10365000704780B500AF00F0C9F900BF80BD80B5EC
:1036600000AF042001F0EAF800BF80BD80B500AFD4
:10367000082001F0E3F800BF80BD000080B500AF76
:10368000024804F065F800BF80BD00BF4804002078
:1036900080B500AF024804F05BF800BF80BD00BFFA
:1036A0009004002080B500AF024804F051F800BF3C
:1036B00080BD00BFD804002080B500AF024803F0F1
:1036C0002FFC00BF80BD00BF3003002080B500AFDD
:1036D000024804F0B3FC00BF80BD00BF20050020FD
:1036E00080B500AF024800F06FFC00BF80BD00BF96
:1036F0008803002080B500AF024800F065FC00BFE1
:1037000080BD00BFC805002080B500AF024800F0B2
:103710005BFC00BF80BD00BFE803002080B500AFA8
:10372000024801F0E7F900BF80BD00BF501D002036
:1037300080B500AF024800F047FC00BF80BD00BF6D
:103740006805002080B400AF01231846BD465DF82F
:10375000047B704780B582B000AF786039600AF0B2
:1037600015FA034616221A604FF0FF331846083741
:10377000BD4680BD80B582B000AF78604FF0FF31AC
:103780007868FFF7E7FF00BFFDE780B586B000AFC0
:10379000F860B9607A6000237B610AE0AFF30080D3
:1037A0000146BB685A1CBA60CAB21A707B69013301
:1037B0007B617A697B689A42F0DB7B681846183730
:1037C000BD4680BD80B586B000AFF860B9607A6054
:1037D00000237B6109E0BB685A1CBA601B7818465D
:1037E000AFF300807B6901337B617A697B689A4221
:1037F000F1DB7B6818461837BD4680BD80B483B0C6
:1038000000AF78604FF0FF3318460C37BD465DF8C7
:10381000047B704780B483B000AF786039603B6848
:103820004FF400525A60002318460C37BD465DF82D
:10383000047B704780B483B000AF786001231846E2
:103840000C37BD465DF8047B704780B485B000AF8F
:10385000F860B9607A60002318461437BD465DF8F9
:10386000047B704780B586B000AF7860144A154B72
:10387000D31A7B617B693B61134B1B68002B02D120
:10388000114B124A1A60104B1A687B6813443A694C
:103890009A4207D20AF07AF903460C221A604FF0D6
:1038A000FF3309E0084B1B68FB60074B1A687B6815
:1038B0001344054A1360FB6818461837BD4680BD9F
:1038C000000002200004000068080020A02500205D
:1038D00080B400AF064BD3F88830054A43F4700338
:1038E000C2F8883000BFBD465DF8047B704700BF5A
:1038F00000ED00E0DFF834D0FFF7EAFF0C480D4997
:103900000D4A002302E0D458C4500433C4188C423A
:10391000F9D30A4A0A4C002301E013600432A242A0
:10392000FBD30AF039F9FFF7FBF8704700000220DB
:103930000000002008030020C01D0108080300202B
:10394000A0250020FEE7000080B500AF0E4B1B68ED
:103950000D4A43F4007313600B4B1B680A4A43F48F
:1039600080631360084B1B68074A43F4807313603D
:10397000032000F04FF90F2000F008F8FFF74AFC91
:103980000023184680BD00BF003C024080B582B0D5
:1039900000AF7860124B1A68124B1B7819464FF42F
:1039A0007A73B3FBF1F3B2FBF3F3184600F067F957
:1039B0000346002B01D001230EE07B680F2B0AD8B1
:1039C000002279684FF0FF3000F02FF9064A7B683B
:1039D0001360002300E0012318460837BD4680BD70
:1039E00030000020380000203400002080B400AFF8
:1039F000064B1B781A46064B1B681344044A136097
:103A000000BFBD465DF8047B704700BF3800002052
:103A10006C08002080B400AF034B1B681846BD46FD
:103A20005DF8047B704700BF6C08002080B584B04F
:103A300000AF7860FFF7EEFFB8607B68FB60FB6863
:103A4000B3F1FF3F05D00A4B1B781A46FB681344BD
:103A5000FB6000BFFFF7DEFF0246BB68D31AFA68BF
:103A60009A42F7D800BF00BF1037BD4680BD00BFE7
:103A70003800002080B485B000AF78607B6803F028
:103A80000703FB600C4BDB68BB60BA684FF6FF03B3
:103A90001340BB60FB681A02BB68134343F0BF636B
:103AA00043F40033BB60044ABB68D36000BF1437E3
:103AB000BD465DF8047B704700ED00E080B400AFC8
:103AC000044BDB681B0A03F007031846BD465DF88C
:103AD000047B704700ED00E080B483B000AF034684
:103AE000FB7197F90730002B0BDBFB7903F01F020A
:103AF000074997F907305B09012000FA02F241F803
:103B0000232000BF0C37BD465DF8047B704700BF23
:103B100000E100E080B483B000AF03463960FB7180
:103B200097F90730002B0ADB3B68DAB20C4997F9AA
:103B300007301201D2B20B4483F800230AE03B683D
:103B4000DAB20849FB7903F00F03043B1201D2B249
:103B50000B441A7600BF0C37BD465DF8047B7047F6
:103B600000E100E000ED00E080B489B000AFF86053
:103B7000B9607A60FB6803F00703FB61FB69C3F17E
:103B80000703042B28BF0423BB61FB690433062B06
:103B900002D9FB69033B00E000237B614FF0FF3259
:103BA000BB6902FA03F3DA43BB681A407B699A40A7
:103BB0004FF0FF317B6901FA03F3D9437B680B4077
:103BC000134318462437BD465DF8047B7047000058
:103BD00080B582B000AF78607B68013BB3F1807F35
:103BE00001D301230FE00A4A7B68013B53600F2198
:103BF0004FF0FF30FFF78EFF054B00229A60044B19
:103C000007221A60002318460837BD4680BD00BF52
:103C100010E000E080B582B000AF78607868FFF710
:103C200029FF00BF0837BD4680BD80B586B000AF14
:103C30000346B9607A60FB7300237B61FFF73EFFA8
:103C400078617A68B9687869FFF78EFF024697F95C
:103C50000F3011461846FFF75DFF00BF1837BD460D
:103C600080BD80B582B000AF0346FB7197F9073085
:103C70001846FFF731FF00BF0837BD4680BD80B54D
:103C800082B000AF78607868FFF7A2FF034618465D
:103C90000837BD4680BD000080B586B000AF7860B3
:103CA00000237B61FFF7B6FE38617B68002B01D1F2
:103CB000012399E07B68022283F835207B6800228B
:103CC00083F834207B681B681A687B681B6822F0C5
:103CD00001021A600FE0FFF79DFE02463B69D31A0E
:103CE000052B08D97B6820225A657B68032283F85C
:103CF0003520032378E07B681B681B6803F0010311
:103D0000002BE8D17B681B681B687B617A69384BA4
:103D100013407B617B685A687B689B681A437B68A9
:103D2000DB681A437B681B691A437B685B691A432B
:103D30007B689B691A437B68DB691A437B681B6A53
:103D400013437A6913437B617B685B6A042B07D159
:103D50007B68DA6A7B681B6B13437A6913437B6168
:103D60007B681B687A691A607B681B685B697B618A
:103D70007B6923F007037B617B685B6A7A69134385
:103D80007B617B685B6A042B17D17B689B6A7A69CD
:103D900013437B617B68DB6A002B0ED0786800F0F0
:103DA00001FB0346002B08D07B6840225A657B68E4
:103DB000012283F83520012316E07B681B687A69AD
:103DC0005A61786800F0B8FA0346FB607B68DB6DE7
:103DD0003F229A40FB689A607B6800225A657B68A4
:103DE000012283F83520002318461837BD4680BDD0
:103DF0003F8010F080B586B000AFF860B9607A609F
:103E00003B600023FB75FB689B6D3B61FB6893F88F
:103E10003430012B01D1022340E0FB68012283F8FA
:103E20003420FB6893F83530DBB2012B2FD1FB68CF
:103E3000022283F83520FB6800225A653B687A68C5
:103E4000B968F86800F04AFAFB68DB6D3F229A40D7
:103E50003B699A60FB681B681A68FB681B6842F044
:103E600016021A60FB681B6C002B07D0FB681B68EE
:103E70001A68FB681B6842F008021A60FB681B683E
:103E80001A68FB681B6842F001021A6005E0FB68D3
:103E9000002283F834200223FB75FB7D1846183777
:103EA000BD4680BD80B584B000AF78607B689B6DF7
:103EB000FB60FFF7AFFDB8607B6893F83530DBB28D
:103EC000022B08D07B6880225A657B68002283F829
:103ED0003420012352E07B681B681A687B681B68EA
:103EE00022F016021A607B681B685A697B681B689F
:103EF00022F080025A617B681B6C002B03D17B6827
:103F00009B6C002B07D07B681B681A687B681B685A
:103F100022F008021A607B681B681A687B681B68BD
:103F200022F001021A6013E0FFF774FD0246BB683D
:103F3000D31A052B0CD97B6820225A657B68032293
:103F400083F835207B68002283F83420032315E0B2
:103F50007B681B681B6803F00103002BE4D17B68BE
:103F6000DB6D3F229A40FB689A607B68012283F8F0
:103F700035207B68002283F8342000231846103750
:103F8000BD4680BD80B483B000AF78607B6893F895
:103F90003530DBB2022B04D07B6880225A650123C6
:103FA0000CE07B68052283F835207B681B681A6863
:103FB0007B681B6822F001021A60002318460C3748
:103FC000BD465DF8047B704780B586B000AF786071
:103FD0000023BB608E4B1B688E4AA2FB03239B0A07
:103FE0007B617B689B6D3B613B691B68FB607B6809
:103FF000DB6D08229A40FB681340002B1AD07B68C7
:104000001B681B6803F00403002B13D07B681B683C
:104010001A687B681B6822F004021A607B68DB6DFB
:1040200008229A403B699A607B685B6D43F001020D
:104030007B685A657B68DB6D01229A40FB68134000
:10404000002B12D07B681B685B6903F08003002B98
:104050000BD07B68DB6D01229A403B699A607B68DC
:104060005B6D43F002027B685A657B68DB6D04225E
:104070009A40FB681340002B12D07B681B681B68BA
:1040800003F00203002B0BD07B68DB6D04229A4007
:104090003B699A607B685B6D43F004027B685A65FC
:1040A0007B68DB6D10229A40FB681340002B43D0E5
:1040B0007B681B681B6803F00803002B3CD07B68FF
:1040C000DB6D10229A403B699A607B681B681B6815
:1040D00003F48023002B18D07B681B681B6803F453
:1040E0000023002B08D17B681B6C002B24D07B683D
:1040F0001B6C786898471FE07B689B6C002B1BD07B
:104100007B689B6C7868984716E07B681B681B6827
:1041100003F48073002B07D17B681B681A687B68E7
:104120001B6822F008021A607B681B6C002B03D00E
:104130007B681B6C786898477B68DB6D20229A400F
:10414000FB681340002B00F08F807B681B681B68A6
:1041500003F01003002B00F087807B68DB6D2022CA
:104160009A403B699A607B6893F83530DBB2052B47
:1041700036D17B681B681A687B681B6822F01602C0
:104180001A607B681B685A697B681B6822F0800292
:104190005A617B681B6C002B03D17B689B6C002BE6
:1041A00007D07B681B681A687B681B6822F00802CE
:1041B0001A607B68DB6D3F229A403B699A607B689E
:1041C000012283F835207B68002283F834207B6845
:1041D0001B6D002B7ED07B681B6D7868984779E05B
:1041E0007B681B681B6803F48023002B1DD07B6851
:1041F0001B681B6803F40023002B0DD17B685B6CEC
:10420000002B31D07B685B6C786898472CE000BF4E
:1042100030000020B5814E1B7B68DB6B002B23D068
:104220007B68DB6B786898471EE07B681B681B68BF
:1042300003F48073002B0FD17B681B681A687B68BE
:104240001B6822F010021A607B68012283F8352077
:104250007B68002283F834207B68DB6B002B03D063
:104260007B68DB6B786898477B685B6D002B32D08E
:104270007B685B6D03F00103002B22D07B68052275
:1042800083F835207B681B681A687B681B6822F0FE
:1042900001021A60BB680133BB607A699A4207D396
:1042A0007B681B681B6803F00103002BF2D100E060
:1042B00000BF7B68012283F835207B68002283F8E9
:1042C00034207B68DB6C002B05D07B68DB6C786866
:1042D000984700E000BF1837BD4680BD80B485B068
:1042E00000AFF860B9607A603B60FB681B681A68D1
:1042F000FB681B6822F480221A60FB681B683A681E
:104300005A60FB689B68402B08D1FB681B687A6881
:104310009A60FB681B68BA68DA6007E0FB681B6894
:10432000BA689A60FB681B687A68DA6000BF143765
:10433000BD465DF8047B704780B485B000AF7860FF
:104340007B681B68DBB2103B144AA2FB03231B09EA
:10435000FB60134AFB6813441B781A467B68DA65D6
:10436000FB68032B09D97B681B6823F47F7323F058
:1043700003031A1D7B689A6507E07B681B6823F4BA
:104380007F7323F003037A6893657B689B6D1846FF
:104390001437BD465DF8047B704700BFABAAAAAADC
:1043A000DC15010880B485B000AF78600023FB7392
:1043B0007B689B6ABB607B689B69002B1FD1BB68D5
:1043C000032B56D801A252F823F000BFDD430008AA
:1043D000EF430008DD430008734400087B68DB6A94
:1043E00003F08073002B46D00123FB7343E07B680E
:1043F000DB6AB3F1C07F40D10123FB733DE07B68F2
:104400009B69B3F5005F21D1BB68032B37D801A2AC
:1044100052F823F0254400082B44000825440008E6
:104420003D4400080123FB7330E07B68DB6A03F046
:104430008073002B25D00123FB7322E07B68DB6AAD
:10444000B3F1C07F1FD10123FB731CE0BB68022BBB
:1044500003D9BB68032B03D018E00123FB7315E0DD
:104460007B68DB6A03F08073002B0ED00123FB73A3
:104470000BE000BF0AE000BF08E000BF06E000BF9D
:1044800004E000BF02E000BF00E000BFFB7B184675
:104490001437BD465DF8047B704700BF80B489B017
:1044A00000AF7860396000237B6100233B6100230B
:1044B000BB610023FB616BE10122FB6902FA03F39C
:1044C0007B613B681B687A6913403B613A697B6991
:1044D0009A4240F05A813B685B6803F00303012B6A
:1044E00005D03B685B6803F00303022B30D17B6887
:1044F0009B68BB61FB695B00032202FA03F3DB43A9
:10450000BA691340BB613B68DA68FB695B0002FA79
:1045100003F3BA691343BB617B68BA699A607B682D
:104520005B68BB610122FB6902FA03F3DB43BA69F2
:104530001340BB613B685B681B0903F00102FB6928
:1045400002FA03F3BA691343BB617B68BA695A6024
:104550003B685B6803F00303032B17D07B68DB68C1
:10456000BB61FB695B00032202FA03F3DB43BA6918
:104570001340BB613B689A68FB695B0002FA03F376
:10458000BA691343BB617B68BA69DA603B685B68F0
:1045900003F00303022B23D1FB69DA087B6808329E
:1045A00053F82230BB61FB6903F007039B000F2225
:1045B00002FA03F3DB43BA691340BB613B681A6933
:1045C000FB6903F007039B0002FA03F3BA69134384
:1045D000BB61FB69DA087B680832B96943F82210CD
:1045E0007B681B68BB61FB695B00032202FA03F373
:1045F000DB43BA691340BB613B685B6803F00302AD
:10460000FB695B0002FA03F3BA691343BB617B6881
:10461000BA691A603B685B6803F44033002B00F012
:10462000B4800023FB60604B5B6C5F4A43F48043C3
:1046300053645D4B5B6C03F48043FB60FB685B4A37
:10464000FB699B08023352F82330BB61FB6903F01E
:1046500003039B000F2202FA03F3DB43BA69134002
:10466000BB617B68524A93422BD07B68514A93428C
:1046700025D07B68504A93421FD07B684F4A9342B3
:1046800019D07B684E4A934213D07B684D4A9342BF
:104690000DD07B684C4A934207D07B684B4A9342CB
:1046A00001D107230EE008230CE006230AE00523CE
:1046B00008E0042306E0032304E0022302E00123D0
:1046C00000E00023FA6902F0030292009340BA6905
:1046D0001343BB613549FB699B080233BA6941F852
:1046E00023203B4B9B68BB613B69DB43BA691340AA
:1046F000BB613B685B6803F48013002B03D0BA698D
:104700003B691343BB61324ABB699360304BDB6842
:10471000BB613B69DB43BA691340BB613B685B68C3
:1047200003F40013002B03D0BA693B691343BB6148
:10473000274ABB69D360264B5B68BB613B69DB439F
:10474000BA691340BB613B685B6803F40033002B1C
:1047500003D0BA693B691343BB611D4ABB6953600F
:104760001B4B1B68BB613B69DB43BA691340BB61F0
:104770003B685B6803F48033002B03D0BA693B6964
:104780001343BB61124ABB691360FB690133FB61D0
:10479000FB690F2B7FF690AE00BF00BF2437BD46EC
:1047A0005DF8047B704700BF0038024000380140CC
:1047B000000002400004024000080240000C0240D9
:1047C000001002400014024000180240001C024089
:1047D000003C014080B483B000AF78600B467B8022
:1047E00013467B707B78002B03D07A887B689A61B4
:1047F00003E07B881A047B689A6100BF0C37BD46D2
:104800005DF8047B704780B485B000AF78600B46DC
:104810007B807B685B69FB607A88FB6813401A04C5
:10482000FB68D9437B880B401A437B689A6100BFC1
:104830001437BD465DF8047B7047000080B582B038
:1048400000AF0346FB80084B5A69FB881340002BDE
:1048500006D0054AFB885361FB881846FDF7F0FF38
:1048600000BF0837BD4680BD003C014080B586B022
:1048700002AF78607B68002B01D1012301E17B68E6
:104880001B68BB607B6893F89534DBB2002B06D1C4
:104890007B68002283F89424786808F093F87B689A
:1048A000032283F89524BB68B3F1A04F02D17B6843
:1048B00000229A717B681B68184604F07AFC7B68BA
:1048C00018687B681A7C8DF8002004330ECB04F046
:1048D00059FB0346002B05D07B68022283F8952400
:1048E0000123CEE07B681B680021184604F072FCAF
:1048F0000346002B05D07B68022283F89524012310
:10490000BFE00023FB734AE0FA7B79681346DB00C3
:1049100013449B000B44153301221A70FA7B79680B
:104920001346DB0013449B000B441433FA7B1A70CC
:10493000FA7BFB7B98B279681346DB0013449B003B
:104940000B442E3302461A80FA7B79681346DB004B
:1049500013449B000B44183300221A70FA7B7968C9
:104960001346DB0013449B000B441C3300221A60E7
:10497000FA7B79681346DB0013449B000B44203319
:1049800000221A60FA7B79681346DB0013449B000F
:104990000B44243300221A60FB7B0133FB737B68DA
:1049A0001B79FA7B9A42AFD30023FB7344E0FA7B76
:1049B00079681346DB0013449B000B4403F2552334
:1049C00000221A70FA7B79681346DB0013449B00BF
:1049D0000B4403F51573FA7B1A70FA7B796813465A
:1049E000DB0013449B000B4403F5167300221A707E
:1049F000FA7B79681346DB0013449B000B4403F5F4
:104A0000177300221A60FA7B79681346DB0013449F
:104A10009B000B4403F5187300221A60FA7B796837
:104A20001346DB0013449B000B4403F5197300226B
:104A30001A60FB7B0133FB737B681B79FA7B9A421C
:104A4000B5D37B6818687B681A7C8DF80020043326
:104A50000ECB04F00BFC0346002B05D07B68022232
:104A600083F8952401230CE07B6800225A747B684C
:104A7000012283F895247B681B68184605F055FCD5
:104A8000002318461037BD4680BD80B584B000AF06
:104A900078607B681B68FB607B6893F89434012B1B
:104AA00001D1022322E07B68012283F89424FB6871
:104AB000DB6803F04003002B09D07B685B7B012B94
:104AC00005D1FB689B6B43F48032FB689A637B687B
:104AD0001B68184604F05CFB7B681B68184605F0F1
:104AE00003FC7B68002283F89424002318461037C7
:104AF000BD4680BD90B58DB000AF78607B681B6807
:104B00003B623B6AFB617B681B68184605F0C1FC91
:104B10000346002B40F08C847B681B68184605F028
:104B200025FC0346002B00F08284FB6903F500633B
:104B30009B681B0AC3F30D027B68C3F8D4247B680F
:104B40001B68184605F012FC034603F00203022B13
:104B500007D17B681B685A697B681B6802F00202F8
:104B60005A617B681B68184605F000FC034603F099
:104B70001003102B61D17B681B689A697B681B68E6
:104B800022F010029A613B6A1B6ABB61BB6903F0A9
:104B90000F021346DB0013449B0003F514737A687D
:104BA000134404337B61BB695B0C03F00F03022BDE
:104BB00024D1BA6947F6F0731340002B35D07B69D6
:104BC000D968BB691B099BB2C3F30A039BB21A469F
:104BD000386A05F037FA7B69DA68BB691B09C3F3E9
:104BE0000A031A447B69DA607B695A69BB691B094D
:104BF000C3F30A031A447B695A6116E0BB695B0C74
:104C000003F00F03062B10D17B6803F29C430822AC
:104C10001946386A05F016FA7B695A69BB691B099F
:104C2000C3F30A031A447B695A617B681B689A695B
:104C30007B681B6842F010029A617B681B6818460B
:104C400005F094FB034603F40023B3F5002F40F076
:104C5000A78000237B627B681B68184605F099FBE0
:104C6000B86299E0BB6A03F00103002B00F08E806C
:104C70007B681B687A6AD2B21146184605F0BDFB04
:104C800038613B6903F00103002B0CD07B6A5A01A9
:104C9000FB69134403F530631A4601239360796A74
:104CA000786800F0A3FE3B6903F00803002B0CD0EA
:104CB0007B6A5A01FB69134403F530631A460823E3
:104CC0009360796A786800F079FF3B6903F010031C
:104CD000002B08D07B6A5A01FB69134403F530634B
:104CE0001A46102393603B6903F00203002B30D077
:104CF0003B6A5B6903F08003802B09D1FB6903F5F4
:104D000000635B68FA6902F5006243F480635360F4
:104D10007A6A1346DB0013449B0003F514737A6828
:104D2000134404337B617B69DB78012B08D17B69F9
:104D30000022DA707B6ADBB21946786807F048FF18
:104D40007B6A5A01FB69134403F530631A46022358
:104D500093603B6903F02003002B08D07B6A5A0163
:104D6000FB69134403F530631A46202393603B69C3
:104D700003F40053002B09D07B6A5A01FB691344EA
:104D800003F530631A464FF4005393607B6A013396
:104D90007B62BB6A5B08BB62BB6A002B7FF462AFBD
:104DA0007B681B68184605F0E1FA034603F480238C
:104DB000B3F5802F40F0DB807B681B68184605F058
:104DC00002FBB86200237B62CDE0BB6A03F0010303
:104DD000002B00F0C2807B681B687A6AD2B2114651
:104DE000184605F028FB38613B6903F00103002BEE
:104DF00057D07B6A03F00F03012202FA03F3FB6032
:104E0000FB6903F500635A6BFB68DB43F96901F545
:104E1000006113404B637B6A5A01FB69134403F53D
:104E200010631A46012393607B689B79012B32D172
:104E300079687A6A1346DB0013449B000B442033E5
:104E4000196878687A6A1346DB0013449B000344B0
:104E50001C331B68194478687A6A1346DB001344D4
:104E60009B000344203319607B6A002B13D17968BF
:104E70007A6A1346DB0013449B000B4424331B68FF
:104E8000002B08D17B6818687B6803F29C431A46A4
:104E9000012105F02FFB7B6ADBB21946786807F029
:104EA00012FE3B6903F00803002B08D07B6A5A010D
:104EB000FB69134403F510631A46082393603B69AA
:104EC00003F01003002B08D07B6A5A01FB691344DE
:104ED00003F510631A46102393603B6903F0400307
:104EE000002B08D07B6A5A01FB69134403F5106359
:104EF0001A46402393603B6903F00203002B23D042
:104F0000796A386A04F016FB7A6A1346DB001344A8
:104F10009B0010337A68134404337B617B69DB7830
:104F2000012B08D17B690022DA707B6ADBB219465B
:104F3000786807F05FFE7B6A5A01FB69134403F54A
:104F400010631A46022393603B6903F08003002B31
:104F500003D0796A786800F0BDFC7B6A01337B621C
:104F6000BB6A5B08BB62BB6A002B7FF42EAF7B6819
:104F70001B68184605F0FAF9034603F00043B3F145
:104F8000004F22D1FB6903F500635B68FA6902F503
:104F9000006223F0010353607B6893F8CC34012B4B
:104FA00008D17B68002283F8CC240021786800F0C7
:104FB000A3FE02E0786807F0FDFD7B681B685A6974
:104FC0007B681B6802F000425A617B681B681846C8
:104FD00005F0CCF9034603F40063B3F5006F12D17A
:104FE000FB6903F500639B6803F00103012B02D109
:104FF000786807F0B9FD7B681B685A697B681B6895
:1050000002F400625A617B681B68184605F0AEF92D
:10501000034603F48053B3F5805F40F0B780FB692B
:1050200003F500635B68FA6902F5006223F001038F
:1050300053607B681B681021184604F07BFA00233C
:10504000FB6246E0FB6A5A01FB69134403F51063F7
:105050001A464FF67F339360FB6A5A01FB6913448B
:1050600003F510631B68FA6A5101FA690A4402F5F4
:10507000106223F400131360FB6A5A01FB691344A6
:1050800003F530631A464FF67F339360FB6A5A018B
:10509000FB69134403F530631B68FA6A5101FA692E
:1050A0000A4402F5306223F400131360FB6A5A01CC
:1050B000FB69134403F530631B68FA6A5101FA690E
:1050C0000A4402F5306243F000631360FB6A013367
:1050D000FB627B681B791A46FB6A9342B2D3FB6979
:1050E00003F50063DB69FA6902F5006243F001131E
:1050F000D3617B68DB7B002B16D0FB6903F5006373
:10510000D3F88430FA6902F5006243F00B03C2F869
:105110008430FB6903F500635B6CFA6902F5006299
:1051200043F00B03536415E0FB6903F500635B690F
:10513000FA6902F5006243F4005343F02B03536114
:10514000FB6903F500631B69FA6902F5006243F02D
:105150000B031361FB6903F500631B68FA6902F531
:10516000006223F4FE6313607B6818687B6899799A
:105170007B6803F29C431A4605F0BCF97B681B6808
:105180005A697B681B6802F480525A617B681B680D
:10519000184605F0EBF8034603F40053B3F5005F3F
:1051A00023D17B681B68184605F081F97B681B6872
:1051B000184604F038FA03461A467B68DA717B68B1
:1051C0001C6801F007FA01467B68DB791A46204625
:1051D00003F03CFF786807F09EFC7B681B685A6907
:1051E0007B681B6802F400525A617B681B68184692
:1051F00005F0BCF8034603F00803082B0AD17868D1
:1052000007F07BFC7B681B685A697B681B6802F0AF
:1052100008025A617B681B68184605F0A7F8034628
:1052200003F08003802B23D13B6A9B6923F080022B
:105230003B6A9A6101237B6214E079687A6A1346BB
:10524000DB0013449B000B4403F257231B78012B14
:1052500005D17B6ADBB21946786800F00AFB7B6AED
:1052600001337B627B681B791A467B6A9342E4D3E5
:105270007B681B68184605F079F8034603F4801331
:10528000B3F5801F3CD101237B622BE07B6A5A017E
:10529000FB69134403F510631B68BB6179687A6A84
:1052A0001346DB0013449B000B4418331B78012B7F
:1052B00015D1BB69002B12DA79687A6A1346DB00D4
:1052C00013449B000B44173301221A707B6ADBB234
:1052D00063F07F03DBB21946786800F0CAFA7B6A94
:1052E00001337B627B681B791A467B6A9342CDD37C
:1052F0007B681B685A697B681B6802F480125A61DC
:105300007B681B68184605F031F8034603F4001368
:10531000B3F5001F56D101237B6245E07B6A5A0139
:10532000FB69134403F530631B68BB6179687A6AD3
:105330001346DB0013449B000B4403F516731B78E4
:10534000012B2ED1BB69002B2BDABB6903F4803211
:105350007B68D3F8D43403F001039A4221D17968F1
:105360007A6A1346DB0013449B000B4403F2572375
:1053700001221A703B6A9B6943F080023B6A9A6182
:105380003B6A5B6903F08003002B0AD1FB6903F5DC
:1053900000635B68FA6902F5006243F400735360CE
:1053A00008E07B6A01337B627B681B791A467B6A63
:1053B0009342B3D37B681B685A697B681B6802F40D
:1053C00000125A617B681B68184604F0CFFF034641
:1053D00003F08043B3F1804F0AD1786807F01CFCDA
:1053E0007B681B685A697B681B6802F080425A61BF
:1053F0007B681B68184604F0B9FF034603F00403FA
:10540000042B15D17B681B685B68BB61BB6903F02B
:105410000403002B02D0786807F00CFC7B681B6843
:1054200059687B681B68BA690A435A6000E000BF8C
:105430003437BD4690BD80B582B000AF78600B4672
:10544000FB707B6893F89434012B01D1022312E0A6
:105450007B68012283F894247B68FA785A747B680D
:105460001B68FA781146184604F018FF7B68002282
:1054700083F89424002318460837BD4680BD80B5C4
:1054800084B000AF7860084611461A460346FB70A8
:105490000B463B801346BB700023FB7297F9033029
:1054A000002B0FDAFB7803F00F021346DB001344E6
:1054B0009B0010337A6813440433FB60FB680122BD
:1054C0005A700FE0FB7803F00F021346DB00134421
:1054D0009B0003F514737A6813440433FB60FB6884
:1054E00000225A70FB7803F00F03DAB2FB681A70DF
:1054F0003B88C3F30A02FB689A60FB68BA781A71AA
:10550000FB685B78002B04D0FB681B781A46FB68AD
:105510005A83BB78022B02D1FB6800225A717B6848
:1055200093F89434012B01D102230EE07B68012211
:1055300083F894247B681B68F968184604F098F88F
:105540007B68002283F89424FB7A18461037BD4606
:1055500080BD80B584B000AF78600B46FB7097F9D2
:105560000330002B0FDAFB7803F00F021346DB0049
:1055700013449B0010337A6813440433FB60FB68C8
:1055800001225A700FE0FB7803F00F021346DB0094
:1055900013449B0003F514737A6813440433FB60CF
:1055A000FB6800225A70FB7803F00F03DAB2FB6845
:1055B0001A707B6893F89434012B01D102230EE01A
:1055C0007B68012283F894247B681B68F96818467D
:1055D00004F0D6F87B68002283F894240023184650
:1055E0001037BD4680BD80B586B000AFF8607A60E8
:1055F0003B600B46FB72FB7A03F00F021346DB00A5
:1056000013449B0003F51473FA68134404337B615D
:105610007B697A68DA607B693A681A617B69002283
:105620005A617B6900225A70FB7A03F00F03DAB2E9
:105630007B691A70FB689B79012B02D17A687B69C0
:10564000DA61FB681868FB689B791A46796904F08F
:1056500073F9002318461837BD4680BD80B483B067
:1056600000AF78600B46FB70FB7803F00F0279689F
:105670001346DB0013449B000B4403F51A731B68AD
:1056800018460C37BD465DF8047B704780B586B080
:1056900000AFF8607A603B600B46FB72FB7A03F068
:1056A0000F021346DB0013449B001033FA681344C7
:1056B00004337B617B697A68DA607B693A681A61D6
:1056C0007B6900225A617B6901225A70FB7A03F0E0
:1056D0000F03DAB27B691A70FB689B79012B02D148
:1056E0007A687B69DA61FB681868FB689B791A46FF
:1056F000796904F021F9002318461837BD4680BDAA
:1057000080B584B000AF78600B46FB70FB7803F087
:105710000F037A681279934201D901234FE097F978
:105720000330002B0FDAFB7803F00F021346DB0087
:1057300013449B0010337A6813440433FB60FB6806
:1057400001225A700DE0FA781346DB0013449B00E7
:1057500003F514737A6813440433FB60FB6800227A
:105760005A70FB6801229A70FB7803F00F03DAB2DB
:10577000FB681A707B6893F89434012B01D10223E3
:105780001DE07B68012283F894247B681B68F9681C
:10579000184604F0AFFCFB7803F00F03002B09D18F
:1057A0007B6818687B6899797B6803F29C431A468A
:1057B00004F0A0FE7B68002283F89424002318469E
:1057C0001037BD4680BD80B584B000AF78600B4611
:1057D000FB70FB7803F00F037A681279934201D9CA
:1057E000012342E097F90330002B0FDAFB7803F036
:1057F0000F021346DB0013449B0010337A681344F6
:105800000433FB60FB6801225A700FE0FB7803F061
:105810000F021346DB0013449B0003F514737A68F0
:1058200013440433FB60FB6800225A70FB680022BB
:105830009A70FB7803F00F03DAB2FB681A707B688A
:1058400093F89434012B01D102230EE07B680122EE
:1058500083F894247B681B68F968184604F0B8FC48
:105860007B68002283F89424002318461037BD4635
:1058700080BD80B584B000AF78600B46FB7097F9AF
:105880000330002B0CDAFB7803F00F021346DB0029
:1058900013449B0010337A6813440433FB600CE01C
:1058A000FB7803F00F021346DB0013449B0003F563
:1058B00014737A6813440433FB607B681B68F968CF
:1058C000184604F0D7FA0346FB72FB7A18461037E5
:1058D000BD4680BD80B58AB002AF786039607B6814
:1058E0001B687B617B693B613A681346DB001344AC
:1058F0009B0010337A6813440433FB60FB685A69D9
:10590000FB681B699A4201D901236BE0FB681A69A5
:10591000FB685B69D31AFB61FB689B68FA699A4272
:1059200002D9FB689B68FB61FB6903339B08BB6181
:105930002AE0FB681A69FB685B69D31AFB61FB68A4
:105940009B68FA699A4202D9FB689B68FB61FB6914
:1059500003339B08BB61FB68D9683B68DAB2FB691B
:1059600098B27B689B7900930346786904F02CFB1E
:10597000FB68DA68FB691A44FB68DA60FB685A69FD
:10598000FB691A44FB685A613B685A013B6913443E
:1059900003F510639B699BB2BA699A4209D8FB6808
:1059A0005A69FB681B699A4203D2FB681B69002B8A
:1059B000BFD1FB681A69FB685B699A4211D83B68E2
:1059C00003F00F03012202FA03F3BB603B6903F506
:1059D00000635A6BBB68DB43396901F50061134012
:1059E0004B63002318462037BD4680BD80B588B084
:1059F00000AF786039607B681B68FB61FB69BB6145
:105A0000FB693C3304331B687B613B685A01BB690B
:105A1000134403F530639B683B617B689B79012BE2
:105A20007BD13B6903F00803002B15D07B69614AE9
:105A3000934240F2B9803B6903F40043002B00F02D
:105A4000B3803B685A01BB69134403F530631A46BF
:105A50004FF400439360A7E03B6903F02003002B61
:105A600009D03B685A01BB69134403F530631A46F9
:105A70002023936098E03B6903F02803002B40F05B
:105A800093807B694B4A93420FD93B6903F40043EF
:105A9000002B0AD03B685A01BB69134403F53063FD
:105AA0001A464FF4004393607EE03A681346DB00E9
:105AB00013449B0003F514737A6813440433FB60AA
:105AC000FB681A6A3B685901BB690B4403F53063F4
:105AD0001B69C3F31203D21AFB685A613B68002B9F
