:020000040800F2
:1000000000000220153B000899380008A1380008BC
:10001000A9380008B1380008B9380008000000000D
:10002000000000000000000000000000C1380008CF
:10003000CF38000800000000DD380008EB38000869
:10004000653B0008653B0008653B0008653B000810
:10005000653B0008653B0008653B0008653B000800
:10006000F738000805390008653B0008653B0008C3
:10007000653B0008653B0008653B0008653B0008E0
:10008000653B0008653B0008653B0008653B0008D0
:10009000653B0008653B0008653B0008653B0008C0
:1000A000653B0008653B0008653B0008653B0008B0
:1000B000653B0008653B0008653B0008653B0008A0
:1000C000653B0008653B0008653B000815390008E2
:1000D000653B0008653B0008653B0008653B000880
:1000E000653B0008653B0008653B0008653B000870
:1000F000653B0008653B0008653B0008653B000860
:10010000653B0008653B0008653B0008653B00084F
:10011000653B0008653B0008653B0008653B00083F
:1001200029390008653B0008653B00083D39000897
:10013000653B00080000000000000000653B00086F
:10014000653B0008653B0008653B00085139000825
:10015000653B0008653B0008653B0008653B0008FF
:10016000653B0008653B0008653B0008653B0008EF
:10017000653B0008653B000800000000000000002F
:08018000653B0008653B000827
:1001900010B5054C237833B9044B13B10448AFF3C1
:1001A00000800123237010BDC40200200000000065
:1001B00050FA000808B5034B1BB103490348AFF3DD
:1001C000008008BD00000000C802002050FA0008AE
:1001D00001F0FF01102A2BDB10F0070F08D010F8F8
:1001E000013B013A8B422DD010F0070F42B3F6D1FC
:1001F000F0B441EA012141EA014122F007047FF015
:1002000000070023F0E80256083C85EA010586EA6B
:10021000010685FA47F5A3FA87F586FA47F6A5FAA7
:1002200087F68EB9EED1F0BC01F0FF0102F00702B3
:1002300032B110F8013B013A83EA010313B1F8D15E
:100240000020704701387047002D06BF354603383F
:10025000073815F0010F07D1013015F4807F02BF78
:10026000013015F4C03F0130F0BC0138704700BFC9
:10027000034613F8012B002AFBD1181A01387047E6
:1002800081F0004102E000BF83F0004330B54FEA47
:1002900041044FEA430594EA050F08BF90EA020FB4
:1002A0001FBF54EA000C55EA020C7FEA645C7FEA47
:1002B000655C00F0E2804FEA5454D4EB5555B8BF6A
:1002C0006D420CDD2C4480EA020281EA030382EADB
:1002D000000083EA010180EA020281EA0303362D6D
:1002E00088BF30BD11F0004F4FEA01314FF4801C40
:1002F0004CEA113102D0404261EB410113F0004F52
:100300004FEA03334CEA133302D0524263EB430308
:1003100094EA050F00F0A780A4F10104D5F1200EA6
:100320000DDB02FA0EFC22FA05F2801841F1000101
:1003300003FA0EF2801843FA05F359410EE0A5F1D5
:1003400020050EF1200E012A03FA0EFC28BF4CF006
:10035000020C43FA05F3C01851EBE37101F00045BC
:1003600007D54FF0000EDCF1000C7EEB00006EEBC9
:100370000101B1F5801F1BD3B1F5001F0CD3490853
:100380005FEA30004FEA3C0C04F101044FEA4452AA
:1003900012F5800F80F09A80BCF1004F08BF5FEA31
:1003A000500C50F1000041EB045141EA050130BD11
:1003B0005FEA4C0C404141EB0101013C28BFB1F523
:1003C000801FE9D291F0000F04BF01460020B1FA6E
:1003D00081F308BF2033A3F10B03B3F120020CDA41
:1003E0000C3208DD02F1140CC2F10C0201FA0CF01F
:1003F00021FA02F10CE002F11402D8BFC2F1200C84
:1004000001FA02F120FA0CFCDCBF41EA0C01904039
:10041000E41AA2BF01EB0451294330BD6FEA040482
:100420001F3C1CDA0C340EDC04F11404C4F120026D
:1004300020FA04F001FA02F340EA030021FA04F37F
:1004400045EA030130BDC4F10C04C4F1200220FAD6
:1004500002F001FA04F340EA0300294630BD21FA14
:1004600004F0294630BD94F0000F83F4801306BFDA
:1004700081F480110134013D4EE77FEA645C18BFCE
:100480007FEA655C29D094EA050F08BF90EA020F65
:1004900005D054EA000C04BF1946104630BD91EA5D
:1004A000030F1EBF0021002030BD5FEA545C05D160
:1004B0004000494128BF41F0004130BD14F580049F
:1004C0003CBF01F5801130BD01F0004545F0FE4113
:1004D00041F470014FF0000030BD7FEA645C1ABF48
:1004E000194610467FEA655C1CBF0B46024650EA7F
:1004F000013406BF52EA033591EA030F41F40021AB
:1005000030BD00BF90F0000F04BF0021704730B530
:100510004FF4806404F132044FF000054FF0000105
:1005200050E700BF90F0000F04BF0021704730B5C6
:100530004FF4806404F1320410F0004548BF40429B
:100540004FF000013EE700BF42004FEAE2014FEAF0
:1005500031014FEA02701FBF12F07F4393F07F4FCB
:1005600081F06051704732F07F4208BF704793F0CE
:100570007F4F04BF41F40021704730B54FF46074E1
:1005800001F0004521F000411CE700BF50EA0102E4
:1005900008BF704730B54FF000050AE050EA01028D
:1005A00008BF704730B511F0004502D5404261EBFD
:1005B00041014FF4806404F132045FEA915C3FF43E
:1005C000D8AE4FF003025FEADC0C18BF03325FEADB
:1005D000DC0C18BF033202EBDC02C2F1200300FA8C
:1005E00003FC20FA02F001FA03FE40EA0E0021FAB1
:1005F00002F11444BDE600BF70B54FF0FF0C4CF49F
:10060000E06C1CEA11541DBF1CEA135594EA0C0F50
:1006100095EA0C0F00F0DEF82C4481EA030621EA8B
:100620004C5123EA4C5350EA013518BF52EA0335C6
:1006300041F4801143F4801338D0A0FB02CE4FF078
:100640000005E1FB02E506F00042E0FB03E54FF0A8
:100650000006E1FB03569CF0000F18BF4EF0010EA0
:10066000A4F1FF04B6F5007F64F5407404D25FEA9C
:100670004E0E6D4146EB060642EAC62141EA55514F
:100680004FEAC52040EA5E504FEACE2EB4F1FD0C91
:1006900088BFBCF5E06F1ED8BEF1004F08BF5FEA0F
:1006A000500E50F1000041EB045170BD06F00046C1
:1006B00046EA010140EA020081EA0301B4EB5C046E
:1006C000C2BFD4EB0C0541EA045170BD41F4801166
:1006D0004FF0000E013C00F3AB8014F1360FDEBF8B
:1006E000002001F0004170BDC4F10004203C35DA67
:1006F0000C341BDC04F11404C4F1200500FA05F3EA
:1007000020FA04F001FA05F240EA020001F000428A
:1007100021F0004110EBD37021FA04F642EB060100
:100720005EEA430E08BF20EAD37070BDC4F10C042A
:10073000C4F1200500FA04F320FA05F001FA04F2EE
:1007400040EA020001F0004110EBD37041F10001DA
:100750005EEA430E08BF20EAD37070BDC4F12005E5
:1007600000FA05F24EEA020E20FA04F301FA05F24D
:1007700043EA020321FA04F001F0004121FA04F2F5
:1007800020EA020000EBD3705EEA430E08BF20EAC5
:10079000D37070BD94F0000F0FD101F000464000FF
:1007A00041EB010111F4801F08BF013CF7D041EA81
:1007B000060195F0000F18BF704703F00046520085
:1007C00043EB030313F4801F08BF013DF7D043EA56
:1007D0000603704794EA0C0F0CEA135518BF95EA0C
:1007E0000C0F0CD050EA410618BF52EA4306D1D193
:1007F00081EA030101F000414FF0000070BD50EAB2
:10080000410606BF1046194652EA430619D094EA3B
:100810000C0F02D150EA013613D195EA0C0F05D125
:1008200052EA03361CBF104619460AD181EA030179
:1008300001F0004141F0FE4141F470014FF0000031
:1008400070BD41F0FE4141F4780170BD70B54FF0CC
:10085000FF0C4CF4E06C1CEA11541DBF1CEA13554C
:1008600094EA0C0F95EA0C0F00F0A7F8A4EB05042E
:1008700081EA030E52EA03354FEA013100F0888025
:100880004FEA03334FF0805545EA131343EA1263EE
:100890004FEA022245EA111545EA10654FEA0026A3
:1008A0000EF000419D4208BF964244F1FD0404F55C
:1008B000407402D25B084FEA3202B61A65EB0305B8
:1008C0005B084FEA32024FF480104FF4002CB6EB75
:1008D000020E75EB030E22BFB61A754640EA0C00F5
:1008E0005B084FEA3202B6EB020E75EB030E22BF35
:1008F000B61A754640EA5C005B084FEA3202B6EB76
:10090000020E75EB030E22BFB61A754640EA9C0034
:100910005B084FEA3202B6EB020E75EB030E22BF04
:10092000B61A754640EADC0055EA060E18D04FEAC2
:10093000051545EA16754FEA06164FEAC30343EA62
:1009400052734FEAC2025FEA1C1CC0D111F4801F2F
:100950000BD141EA00014FF000004FF0004CB6E728
:1009600011F4801F04BF01430020B4F1FD0C88BFC7
:10097000BCF5E06F3FF6AFAEB5EB030C04BFB6EBD2
:10098000020C5FEA500C50F1000041EB045170BDC5
:100990000EF0004E4EEA113114EB5C04C2BFD4EBF2
:1009A0000C0541EA045170BD41F480114FF0000E76
:1009B000013C90E645EA060E8DE60CEA135594EAF2
:1009C0000C0F08BF95EA0C0F3FF43BAF94EA0C0FF5
:1009D0000AD150EA01347FF434AF95EA0C0F7FF46A
:1009E00025AF104619462CE795EA0C0F06D152EABE
:1009F00003353FF4FDAE1046194622E750EA4106A2
:100A000018BF52EA43067FF4C5AE50EA41047FF4B2
:100A10000DAF52EA43057FF4EBAE12E74FF0FF3C17
:100A200006E000BF4FF0010C02E000BF4FF0010CE8
:100A30004DF804CD4FEA410C7FEA6C5C4FEA430C61
:100A400018BF7FEA6C5C1BD001B050EA410C0CBFB0
:100A500052EA430C91EA030F02BF90EA020F002012
:100A6000704710F1000F91EA030F58BF994208BF79
:100A700090422CBFD8176FEAE37040F00100704736
:100A80004FEA410C7FEA6C5C02D150EA013C07D18D
:100A90004FEA430C7FEA6C5CD6D152EA033CD3D0D8
:100AA0005DF8040B704700BF8446104662468C46D2
:100AB0001946634600E000BF01B5FFF7B7FF002805
:100AC00048BF10F1000F01BD4DF808EDFFF7F4FF2E
:100AD0000CBF012000205DF808FB00BF4DF808EDB9
:100AE000FFF7EAFF34BF012000205DF808FB00BFDC
:100AF0004DF808EDFFF7E0FF94BF012000205DF8FE
:100B000008FB00BF4DF808EDFFF7CEFF94BF0120B2
:100B100000205DF808FB00BF4DF808EDFFF7C4FFAB
:100B200034BF012000205DF808FB00BF4FEA410CF4
:100B30007FEA6C5C02D150EA013C0AD14FEA430CD7
:100B40007FEA6C5C02D152EA033C02D14FF0000014
:100B500070474FF0010070474FEA410212F5001252
:100B600015D211D56FF47873B3EB625212D94FEAF4
:100B7000C12343F0004343EA505311F0004F23FADE
:100B800002F018BF404270474FF00000704750EA33
:100B9000013005D111F0004008BF6FF000407047F0
:100BA0004FF00000704700BF53B94AB9002908BF91
:100BB00000281CBF4FF0FF314FF0FF3000F06AB942
:100BC000ADF1080C6DE904CE00F006F8DDF804E0A4
:100BD000DDE9022304B070472DE9F047089D0C467B
:100BE000002B4ED194468C458646B2FA82F262D9E9
:100BF0004AB1C2F12003914020FA03F30CFA02FC3F
:100C0000194300FA02FE4FEA1C471FFA8CF6B1FBAB
:100C1000F7F44FEA1E4307FB141143EA014304FBB8
:100C200006F199420AD91CEB030304F1FF3080F06E
:100C30001281994240F20F81023C6344591A1FFA13
:100C40008EF3B1FBF7F007FB101143EA014300FB01
:100C500006F69E420AD91CEB030300F1FF3180F037
:100C6000FC809E4240F2F980634402389B1B40EABC
:100C7000044000211DB1D3400022C5E90032BDE887
:100C8000F0878B4205D90DB1C5E900010021084666
:100C9000F5E7B3FA83F1002946D1A34202D390428B
:100CA000C0F0F080861A64EB03030120002DE6D02B
:100CB000C5E90063E3E7002A40F09080A1EB0C0453
:100CC0004FEA1C481FFA8CF70121B4FBF8F64FEAF3
:100CD0001E4308FB164443EA044307FB06F0984210
:100CE00008D91CEB030306F1FF3402D2984200F24C
:100CF000CD8026461C1A1FFA8EF3B4FBF8F008FBD1
:100D0000104443EA044300FB07F79F4208D91CEB59
:100D1000030300F1FF3402D29F4200F2B08020466C
:100D2000DB1B40EA0640A5E7C1F120068B4022FA12
:100D300006F71F4320FA06FC04FA01F343EA0C030A
:100D4000F44000FA01F8380C4FEA1349B4FBF0FE06
:100D50001FFA87FC00FB1E4449EA04440EFB0CF911
:100D6000A14502FA01F20AD93C190EF1FF3A80F0CE
:100D70008480A14540F28180AEF1020E3C44A4EB98
:100D800009041FFA83F9B4FBF0F300FB134449EAAA
:100D9000044403FB0CFCA44507D93C1903F1FF30C4
:100DA00067D2A44565D9023B3C4443EA0E40A0FB10
:100DB0000293A4EB0C049C42CE469C4651D34ED0E9
:100DC00055B1B8EB0E0364EB0C0404FA06F6CB4005
:100DD0001E43CC40C5E90064002150E7C2F1200366
:100DE00020FA03F10CFA02FC24FA03F394400C43BA
:100DF0004FEA1C4800FA02FE1FFA8CF7B3FBF8F02A
:100E000008FB1031230C43EA014300FB07F1994230
:100E100008D91CEB030300F1FF362CD299422AD9E2
:100E2000023863445B1AA4B2B3FBF8F108FB113338
:100E300044EA034401FB07F3A34208D91CEB040472
:100E400001F1FF3613D2A34211D902396444E41AE6
:100E500041EA004139E70446F0E6084606E7C8459E
:100E6000AED2B9EB020E63EB070C0138A8E73146AE
:100E7000EDE7034699E73046D4E7D6467FE763447B
:100E800002384DE70646234608460FE7023E634414
:100E900030E700BF704700BF80B586B000AFF86094
:100EA000B9607A607B80FB68BA681A60FB687A6810
:100EB0005A60FB687A889A81FB683A6A9A60FB6894
:100EC000BA8CDA81FB6800221A74FB6800225A741B
:100ED0000023FB75FB685868FB689B890022194654
:100EE00003F018FD012002F0B1FEFB685868FB68B2
:100EF0009B890122194603F00DFD322002F0A6FE67
:100F0000B6227E21F86800F059F903461A46FB7DA7
:100F10001344FB75322002F099FE07F116031A46BE
:100F20000021F86800F0D0F803461A46FB7D134410
:100F3000FB750A2002F08AFEA8224021F86800F022
:100F40003DF903461A46FB7D1344FB750A2002F067
:100F50007DFE00224121F86800F030F903461A4670
:100F6000FB7D1344FB750A2002F070FE0A22532118
:100F7000F86800F023F903461A46FB7D1344FB751D
:100F80000A2002F063FE04225821F86800F016F9E6
:100F900003461A46FB7D1344FB750A2002F056FEF9
:100FA00000227C21F86800F009F903461A46FB7D0F
:100FB0001344FB750A2002F049FE04227D21F868E3
:100FC00000F0FCF803461A46FB7D1344FB750A202B
:100FD00002F03CFEFB683A4A1A63FB6892229A745C
:100FE000FB689868FB68DB890122194603F092FCD4
:100FF000B6221421F86800F01BF903461A46FB7D5F
:101000001344FB75FA2002F021FE07F116031A467D
:101010000021F86800F096F803461A46FB7D134459
:10102000FB750A2002F012FE01220F21F86800F081
:10103000FFF803461A46FB7D1344FB750A2002F0B5
:1010400005FE07221021F86800F0F2F803461A4660
:10105000FB7D1344FB750A2002F0F8FD8022152168
:10106000F86800F0E5F803461A46FB7D1344FB756B
:101070000A2002F0EBFD01221621F86800F0D8F8F2
:1010800003461A46FB7D1344FB750A2002F0DEFD81
:1010900001221821F86800F0CBF803461A46FB7DC0
:1010A0001344FB750A2002F0D1FDFB68054A5A6320
:1010B000FB6882229A76FB7D18461837BD4680BDB4
:1010C000A4706B3A58A00B3A80B588B002AFF860B4
:1010D0000B467A60FB72FB7A63F07F03DBB23B75F1
:1010E00000237B750023BB75FB685868FB689B89F0
:1010F0000022194603F00EFCFB68186807F1100285
:1011000007F114014FF0FF330093032305F0C1FCF6
:101110000346002B0CBF01230023DBB2FB75FB68E9
:101120005868FB689B890122194603F0F3FBFB7D9D
:10113000012B02D1BA7C7B681A70FB7D18461837E8
:10114000BD4680BD80B588B002AFF8600B467A60BE
:10115000FB72FB7A63F07F03DBB23B7500237B7588
:10116000FB689868FB68DB890022194603F0D2FB14
:10117000FB68186807F1100207F114014FF0FF3304
:101180000093022305F085FC0346002B0CBF0123CE
:101190000023DBB2FB75FB689868FB68DB890122E2
:1011A000194603F0B7FBFB7D012B02D17A7C7B68EB
:1011B0001A70FB7D18461837BD4680BD80B584B0D7
:1011C00000AF78600B46FB701346BB70FB783B7337
:1011D000BB787B737B6858687B689B8900221946C3
:1011E00003F098FB7B68186807F10C014FF0FF33A0
:1011F000022205F00AFB0346002B0CBF012300234B
:10120000DBB2FB7300BF7B681B68184606F002F870
:101210000346012BF7D17B6858687B689B890122C4
:10122000194603F077FBFB7B18461037BD4680BD9F
:1012300080B584B000AF78600B46FB701346BB707E
:10124000FB783B73BB787B737B6898687B68DB8932
:101250000022194603F05EFB7B68186807F10C0159
:101260004FF0FF33022205F0D0FA0346002B0CBFEB
:1012700001230023DBB2FB7300BF7B681B681846A9
:1012800005F0C8FF0346012BF7D17B6898687B689F
:10129000DB890122194603F03DFBFB7B1846103722
:1012A000BD4680BD80B582B000AF78607B6858686D
:1012B0007B689B890022194603F02CFB7B68186829
:1012C0007B6803F112017B6803F12102082305F01A
:1012D00089FD0346002B04D17B6801221A74012387
:1012E00008E07B6858687B689B890122194603F0F7
:1012F00011FB002318460837BD4680BD80B584B079
:1013000000AF78607B6858687B689B89012219462A
:1013100003F000FB7B6800221A747B6893F824308A
:10132000DBB21B021AB27B6893F82330DBB21BB22C
:101330001343FB817B6893F82630DBB21B021AB2A1
:101340007B6893F82530DBB21BB21343BB817B680B
:1013500093F82830DBB21B021AB27B6893F827306F
:10136000DBB21BB213437B817B6893ED0C7AB7F938
:101370000E3007EE903AF8EEE77A67EE277A7B6850
:10138000C3ED0E7A7B6893ED0C7AB7F90C3007EE5B
:10139000903AF8EEE77A67EE277A7B68C3ED0F7A2A
:1013A0007B6893ED0C7AB7F90A3007EE903AF8EEC5
:1013B000E77A67EE277A7B68C3ED107A00BF1037B3
:1013C000BD4680BD80B582B000AF78607B6898680C
:1013D0007B68DB890022194603F09CFA7B68186859
:1013E0007B6803F11A017B6803F12902072305F0EA
:1013F000F9FC0346002B04D17B6801225A740123B7
:1014000008E07B6898687B68DB890122194603F055
:1014100081FA002318460837BD4680BD80B584B0E8
:1014200000AF78607B6898687B68DB890122194689
:1014300003F070FA7B6800225A747B6893F82B30B3
:10144000DBB21B021AB27B6893F82A30DBB21BB204
:101450001343FB817B6893F82D30DBB21B021AB279
:101460007B6893F82C30DBB21BB21343BB817B68E3
:1014700093F82F30DBB21B021AB27B6893F82E3040
:10148000DBB21BB213437B817B6893ED0D7AB7F916
:101490000E3007EE903AF8EEE77A67EE277A7B682F
:1014A000C3ED117A7B6893ED0D7AB7F90C3007EE36
:1014B000903AF8EEE77A67EE277A7B68C3ED127A06
:1014C0007B6893ED0D7AB7F90A3007EE903AF8EEA3
:1014D000E77A67EE277A7B68C3ED137A00BF10378F
:1014E000BD4680BD80B483B000AF87ED010AD7ED63
:1014F000017A9FED057A67EE877AB0EE670A0C37BE
:10150000BD465DF8047B704735FA8E3C80B485B0EB
:1015100000AF87ED010A7B68FB60FB685A10104B37
:101520009B1AFB6097ED037AD7ED017ADFED0D6A28
:1015300067EEA66AD7ED037A66EEA76AD7ED037A5F
:1015400066EEA77ADFED086A76EEE77A67EE277A2D
:10155000B0EE670A1437BD465DF8047B704700BFE4
:1015600012141F5F12D3363FFF51D83F80B485B0AD
:1015700000AFF0EE406AB0EE607AF0EE417AC7ED6F
:10158000016A87ED027AC7ED037AD7ED017AF5EEAD
:10159000407AF1EE10FA0FD1D7ED027AF5EE407AEB
:1015A000F1EE10FA08D1D7ED037AF5EE407AF1EEBC
:1015B00010FA01D1012300E0002303F00103DBB2A4
:1015C00018461437BD465DF8047B704780B491B06F
:1015D00000AFB0EE405AF0EE605AB0EE416AF0EE65
:1015E000616AB0EE427AF0EE627A87ED075AC7ED93
:1015F000085A87ED096AC7ED046A87ED057AC7EDD9
:10160000067A97ED077AD7ED047A77EE277AC7ED59
:101610000A7A97ED087AD7ED057A77EE277AC7ED43
:101620000B7A97ED097AD7ED067A77EE277AC7ED30
:101630000C7A07F1340307F1280207CA83E8070090
:10164000796BBA6BFB6B06EE901A07EE102A07EE69
:10165000903AB0EE660AF0EE470AB0EE671A4437E9
:10166000BD465DF8047B704780B485B000AFF0EEF6
:10167000406AB0EE607AF0EE417AC7ED016A87ED1C
:10168000027AC7ED037A97ED017AD7ED027A37EE49
:10169000277AD7ED037A77EE277AB0EE670A143708
:1016A000BD465DF8047B704780B48FB000AFF0EEAC
:1016B000406AB0EE607AF0EE417AC7ED041AC7EDE9
:1016C000056A87ED067AC7ED077A97ED057AD7EDBB
:1016D000047A67EE277AC7ED087A97ED067AD7ED98
:1016E000047A67EE277AC7ED097A97ED077AD7ED86
:1016F000047A67EE277AC7ED0A7A07F12C0307F11F
:10170000200207CA83E80700F96A3A6B7B6B06EE92
:10171000901A07EE102A07EE903AB0EE660AF0EE45
:10172000470AB0EE671A3C37BD465DF8047B704748
:1017300080B491B000AFB0EE405AF0EE605AB0EE17
:10174000416AF0EE616AB0EE427AF0EE627A87EDBD
:10175000075AC7ED085A87ED096AC7ED046A87ED95
:10176000057AC7ED067A97ED077AD7ED047A67EE2A
:10177000277AC7ED0A7A97ED087AD7ED057A67EEF2
:10178000277AC7ED0B7A97ED097AD7ED067A67EEDF
:10179000277AC7ED0C7A07F1340307F1280207CA4C
:1017A00083E80700796BBA6BFB6B06EE901A07EEC5
:1017B000102A07EE903AB0EE660AF0EE470AB0EE55
:1017C000671A4437BD465DF8047B704780B491B01A
:1017D00000AFB0EE405AF0EE605AB0EE416AF0EE63
:1017E000616AB0EE427AF0EE627A87ED075AC7ED91
:1017F000085A87ED096AC7ED046A87ED057AC7EDD7
:10180000067A97ED087AD7ED067A27EE277AD7ED94
:10181000096AD7ED057A66EEA77A77EE677AC7EDA3
:101820000A7A97ED097AD7ED047A27EE277AD7ED71
:10183000076AD7ED067A66EEA77A77EE677AC7ED84
:101840000B7A97ED077AD7ED057A27EE277AD7ED51
:10185000086AD7ED047A66EEA77A77EE677AC7ED65
:101860000C7A07F1340307F1280207CA83E807005E
:10187000796BBA6BFB6B06EE901A07EE102A07EE37
:10188000903AB0EE660AF0EE470AB0EE671A4437B7
:10189000BD465DF8047B704780B58AB000AFB0EEFE
:1018A000405AF0EE605AB0EE416AF0EE616AB0EE76
:1018B000427AF0EE627A87ED035AC7ED045A87ED5B
:1018C000056AC7ED006A87ED017AC7ED027A97EDE8
:1018D000005AD7ED015A97ED026AD7ED036A97EDEA
:1018E000047AD7ED057AF0EE451AB0EE652AF0EEEF
:1018F000462AB0EE660AF0EE470AB0EE671AFFF726
:1019000017FFF0EE406AB0EE607AF0EE417AC7ED74
:10191000076A87ED087AC7ED097AD7ED076A97ED70
:10192000087AD7ED097AB0EE660AF0EE470AB0EE13
:10193000671AFFF799FEF0EE407AB0EE670A283793
:10194000BD4680BD80B588B000AFF0EE406AB0EE15
:10195000607AF0EE417AC7ED016A87ED027AC7ED51
:10196000037A97ED015AD7ED025A97ED036AD7ED46
:10197000016A97ED027AD7ED037AF0EE451AB0EEE0
:10198000652AF0EE462AB0EE660AF0EE470AB0EE9F
:10199000671AFFF7CDFEF0EE406AB0EE607AF0EE27
:1019A000417AC7ED056A87ED067AC7ED077AD7ED6C
:1019B000056A97ED067AD7ED077AB0EE660AF0EE83
:1019C000470AB0EE671AFFF74FFEF0EE407AB0EE2E
:1019D000670A2037BD4680BD80B58CB000AFF0EE01
:1019E000406AB0EE607AF0EE417AC7ED056A87EDA5
:1019F000067AC7ED077AD7ED056A97ED067AD7ED37
:101A0000077AB0EE660AF0EE470AB0EE671AFFF703
:101A100099FFF0EE407AB0EE670AFFF777FD87EDA9
:101A20000B0AD7ED056A97ED067AD7ED077AD7ED61
:101A30000B1AB0EE660AF0EE470AB0EE671AFFF72F
:101A400033FEF0EE406AB0EE607AF0EE417AC7ED18
:101A5000086A87ED097AC7ED0A7A396A7A6ABB6A39
:101A600006EE901A07EE102A07EE903AB0EE660ADC
:101A7000F0EE470AB0EE671A3037BD4680BD90B42D
:101A800094B000AFB0EE404AF0EE604AB0EE415A7A
:101A9000F0EE615AB0EE426AF0EE626AB0EE437A5E
:101AA000F0EE637A87ED084AC7ED094A87ED0A5AD6
:101AB000C7ED0B5A87ED046AC7ED056A87ED067A14
:101AC000C7ED077A97ED087AD7ED047A77EE277A93
:101AD000C7ED0C7A97ED097AD7ED057A77EE277A7C
:101AE000C7ED0D7A97ED0A7AD7ED067A77EE277A69
:101AF000C7ED0E7A97ED0B7AD7ED077A77EE277A56
:101B0000C7ED0F7A07F1400407F130030FCB84E8EB
:101B10000F00386C796CBA6CFB6C06EE100A06EE9E
:101B2000901A07EE102A07EE903AB0EE460AF0EE51
:101B3000660AB0EE471AF0EE671A5037BD4690BC01
:101B4000704790B494B000AFB0EE404AF0EE604AF7
:101B5000B0EE415AF0EE615AB0EE426AF0EE626ABF
:101B6000B0EE437AF0EE637A87ED084AC7ED094A92
:101B700087ED0A5AC7ED0B5A87ED046AC7ED056A6F
:101B800087ED067AC7ED077A97ED087AD7ED047AE4
:101B900027EE277AD7ED096AD7ED057A66EEA77AA0
:101BA00037EE677AD7ED0A6AD7ED067A66EEA77A3E
:101BB00037EE677AD7ED0B6AD7ED077A66EEA77A2C
:101BC00077EE677AC7ED0C7A97ED087AD7ED057A4C
:101BD00027EE277AD7ED096AD7ED047A66EEA77A61
:101BE00037EE277AD7ED0A6AD7ED077A66EEA77A3D
:101BF00037EE277AD7ED0B6AD7ED067A66EEA77A2D
:101C000077EE677AC7ED0D7A97ED087AD7ED067A09
:101C100027EE277AD7ED096AD7ED077A66EEA77A1D
:101C200037EE677AD7ED0A6AD7ED047A66EEA77ABF
:101C300037EE277AD7ED0B6AD7ED057A66EEA77AED
:101C400077EE277AC7ED0E7A97ED087AD7ED077A07
:101C500027EE277AD7ED096AD7ED067A66EEA77ADE
:101C600037EE277AD7ED0A6AD7ED057A66EEA77ABE
:101C700037EE677AD7ED0B6AD7ED047A66EEA77A6E
:101C800077EE277AC7ED0F7A07F1400407F13003AA
:101C90000FCB84E80F00386C796CBA6CFB6C06EEE5
:101CA000100A06EE901A07EE102A07EE903AB0EEF0
:101CB000460AF0EE660AB0EE471AF0EE671A5037A1
:101CC000BD4690BC704790B494B000AFF0EE404A6F
:101CD000B0EE605AF0EE415AB0EE616AF0EE426A40
:101CE000B0EE627AF0EE437AC7ED084A87ED095A02
:101CF000C7ED0A5A87ED0B6AC7ED056A87ED067ACC
:101D0000C7ED077AD7ED097AB1EE677AD7ED057A94
:101D100027EE277AD7ED0A6AD7ED067A66EEA77A1C
:101D200037EE677AD7ED0B6AD7ED077A66EEA77ABA
:101D300077EE677AC7ED0C7A97ED087AD7ED057ADA
:101D400027EE277AD7ED0A6AD7ED077A66EEA77AEB
:101D500037EE277AD7ED0B6AD7ED067A66EEA77ACB
:101D600077EE677AC7ED0D7A97ED087AD7ED067AA8
:101D700027EE277AD7ED096AD7ED077A66EEA77ABC
:101D800037EE677AD7ED0B6AD7ED057A66EEA77A5C
:101D900077EE277AC7ED0E7A97ED087AD7ED077AB6
:101DA00027EE277AD7ED096AD7ED067A66EEA77A8D
:101DB00037EE277AD7ED0A6AD7ED057A66EEA77A6D
:101DC00077EE677AC7ED0F7A07F1400407F1300329
:101DD0000FCB84E80F00386C796CBA6CFB6C06EEA4
:101DE000100A06EE901A07EE102A07EE903AB0EEAF
:101DF000460AF0EE660AB0EE471AF0EE671A503760
:101E0000BD4690BC704790B593B000AFB0EE406A4D
:101E1000F0EE606AB0EE417AF0EE617A87ED046A26
:101E2000C7ED056A87ED067AC7ED077A97ED047A64
:101E3000D7ED047A27EE277AD7ED056AD7ED057A34
:101E400066EEA77A37EE277AD7ED066AD7ED067ADF
:101E500066EEA77A37EE277AD7ED076AD7ED077ACD
:101E600066EEA77A77EE277AB0EE670AFFF74EFBA9
:101E700087ED110A97ED047AD7ED117A67EE277A8C
:101E8000C7ED097A97ED057AD7ED117A67EE277AD3
:101E9000C7ED0A7A97ED067AD7ED117A67EE277AC1
:101EA000C7ED0B7A97ED077AD7ED117A67EE277AAF
:101EB000C7ED0C7A07F1340407F124030FCB84E853
:101EC0000F00786BB96BFA6B3B6C06EE100A06EEEE
:101ED000901A07EE102A07EE903AB0EE460AF0EE9E
:101EE000660AB0EE471AF0EE671A4C37BD4690BD51
:101EF000B0B588B000AF78600B4B07F108041D4601
:101F00000FCD0FC495E8030084E8030007F1080330
:101F10001946786800F06EF8786800F007F800BF9E
:101F20002037BD46B0BD00BF68FA000880B491B04C
:101F300000AF78607B684FF07E529A617B684FF00B
:101F40000002DA617B684FF000021A627B684FF092
:101F500000025A627B684FF000029A627B684FF081
:101F60000002DA627B684FF000021A637B6801228C
:101F700083F834207B681E4A9A637B68002283F8CA
:101F800040207B684FF000025A647B684FF00002EB
:101F90009A647B684FF00002DA647B684FF00002BD
:101FA0001A657B684FF000025A657B684FF00002AB
:101FB0009A657B68002283F85C207B6800221A66A1
:101FC0007B685B691A467B685A667B68002283F8E7
:101FD00068207B680022DA667B685B691A467B684A
:101FE0001A6700BF4437BD465DF8047B704700BFE9
:101FF0000000204180B582B000AF786039603B6856
:102000001A787B681A703B685A687B685A603B682C
:10201000D3ED027AF5EE407AF1EE10FA07D03B6884
:10202000D3ED027A9FED4C7A67EE877A01E0DFED1F
:102030004B7A7B68C3ED027A3B68D3ED037AF5EE09
:10204000407AF1EE10FA1BD03B68D3ED037AB0EE84
:10205000670AFFF747FAF0EE407AB0EE670A0CF035
:1020600061FAF0EE407AB6EE007A67EE877AF0EE2B
:10207000000AB0EE670A0CF0B1F9F0EE407A01E028
:10208000DFED367A7B68C3ED037A3B68D3ED047AE3
:10209000F5EE407AF1EE10FA1BD03B68D3ED047AEE
:1020A000B0EE670AFFF71EFAF0EE407AB0EE670A6C
:1020B0000CF038FAF0EE407AB6EE007A67EE877AE6
:1020C000F0EE000AB0EE670A0CF088F9F0EE407A04
:1020D00001E0DFED227A7B68C3ED047A3B685A6940
:1020E0007B685A617B685B691A467B685A667B68C5
:1020F0005B691A467B681A673B68D3ED017AF5EE97
:10210000407AF1EE10FA03D03B685B69002B05D1F1
:102110007B68134ADA607B68114A1A617B6893F81E
:10212000343083F00103DBB2002B03D07B685A68A4
:102130007B689A637B68D3ED017AB2EE047A37EE5E
:10214000677AF0EE086AC7EE267A7B68C3ED0F7AED
:1021500000BF0837BD4680BD48E17A3FFFFF7F7F63
:10216000FFFF7F7F90B5BFB000AFF862B0EE615A5D
:10217000F0EE425AB0EE626AF0EE436AB0EE637A75
:10218000F0EE447AC7ED014A87ED080AC7ED090A67
:1021900087ED0A1A87ED055AC7ED065A87ED076ADB
:1021A000C7ED026A87ED037AC7ED047AFB6A28332C
:1021B00007F1140207CA83E80700D7ED087AB0EEEA
:1021C000E77AFB6AD3ED027AB4EEE77AF1EE10FA21
:1021D00017DCD7ED097AB0EEE77AFB6AD3ED027A25
:1021E000B4EEE77AF1EE10FA0BDCD7ED0A7AB0EE36
:1021F000E77AFB6AD3ED027AB4EEE77AF1EE10FAF1
:1022000015DDFB6A07F13C0418330FCB84E80F009F
:10221000F86AFFF78BFEFB6A03F1180407F13C0331
:102220000FCB84E80F00FB6A012283F84020FB6A91
:1022300093F83430002B2DD0FB6A93ED0E7AFB6AB5
:10224000D3ED0F6AD7ED017A66EEA77A77EE677A5B
:10225000FB6AC3ED0E7AFB6A93ED0E7AFB6AD3ED4F
:10226000017AB4EEE77AF1EE10FA07D4FB6AD3ED07
:10227000017AF5EE407AF1EE10FA0BD1FB6A5A685A
:10228000FB6A9A63FB6A002283F83420FB6A00220F
:1022900083F84020F86A00F0F4FAF0EE406AB0EEFD
:1022A000607AF0EE417AC7ED256A87ED267AC7EDB0
:1022B000277A4FF00003C7F888304FF00003C7F8C3
:1022C0008C304FF00003C7F89030FB6A012283F88E
:1022D0005C20D7ED056A97ED067AD7ED077AB0EE68
:1022E000660AF0EE470AB0EE671AFFF73FF90346B9
:1022F00083F00103DBB2002B00F09C80D7ED056A70
:1023000097ED067AD7ED077AB0EE660AF0EE470A47
:10231000B0EE671AFFF760FBF0EE406AB0EE607A4D
:10232000F0EE417AC7ED286A87ED297AC7ED2A7A5F
:10233000FC6A97ED255AD7ED265A97ED276AD7ED17
:10234000286A97ED297AD7ED2A7AF0EE451AB0EE91
:10235000652AF0EE462AB0EE660AF0EE470AB0EEC5
:10236000671A00F055FCF0EE406AB0EE607AF0EECD
:10237000417AC4ED116A84ED127AC4ED137AFB6AD6
:1023800093F83430002B18D1FB6AD3ED116A93ED2A
:10239000127AD3ED137AB0EE660AF0EE470AB0EE89
:1023A000671AFFF7CFFAB0EE407AFB6AD3ED037AF3
:1023B000B4EEE77AF1EE10FA0AD8FB6A002283F84D
:1023C0005C20FB6A1B6EA3F10902FB6A1A6604E03B
:1023D000FB6A1B6E5A1CFB6A1A66FB6A1A6EFB6A62
:1023E0005B6E9A4207DDFB6A00225A66FB6A002296
:1023F00083F85C2004E0FB6A5B691A46FB6A5A6654
:10240000FB6A186EFB6A5B691A46002100F0B5FC96
:102410000246FB6A1A66FB6A93F85C3083F001039C
:10242000DBB2002B06D0FA6A07F18803443207CAF0
:1024300083E807004FF000033B674FF000037B6722
:102440004FF00003BB67FB6A012283F86820D7EDD9
:10245000026A97ED037AD7ED047AB0EE660AF0EEE1
:10246000470AB0EE671AFFF781F8034683F00103CD
:10247000DBB2002B00F0D180F86A00F0BFFAF0EE7A
:10248000406AB0EE607AF0EE417AC7ED0C6A87EDF3
:102490000D7AC7ED0E7A97ED025AD7ED035A97EDF4
:1024A000046AD7ED256A97ED267AD7ED277AF0EE04
:1024B000451AB0EE652AF0EE462AB0EE660AF0EE56
:1024C000470AB0EE671AFFF781F9F0EE406AB0EE06
:1024D000607AF0EE417AC7ED2B6A87ED2C7AC7ED72
:1024E0002D7AD7ED2B6A97ED2C7AD7ED2D7AB0EEB9
:1024F000660AF0EE470AB0EE671AFFF76DFAF0EEE3
:10250000406AB0EE607AF0EE417AC7ED2E6A87ED50
:102510002F7AC7ED307AFC6A97ED0C5AD7ED0D5A39
:1025200097ED0E6AD7ED2E6A97ED2F7AD7ED307AB8
:10253000F0EE451AB0EE652AF0EE462AB0EE660AD5
:10254000F0EE470AB0EE671A00F062FBF0EE406A68
:10255000B0EE607AF0EE417AC4ED146A84ED157A3B
:10256000C4ED167AFB6A93F83430002B18D1FB6A5D
:10257000D3ED146A93ED157AD3ED167AB0EE660AB0
:10258000F0EE470AB0EE671AFFF7DCF9B0EE407ADA
:10259000FB6AD3ED047AB4EEE77AF1EE10FA0AD8CA
:1025A000FB6A002283F86820FB6ADB6EA3F1090254
:1025B000FB6ADA6604E0FB6ADB6E5A1CFB6ADA66C9
:1025C000FB6ADA6EFB6A1B6F9A4207DDFB6A002228
:1025D0001A67FB6A002283F8682004E0FB6A5B69E3
:1025E0001A46FB6A1A67FB6AD86EFB6A5B691A4671
:1025F000002100F0C2FB0246FB6ADA66FB6A93F830
:10260000683083F00103DBB2002B06D0FA6A07F1D1
:102610007003503207CA83E80700B6EE000AFEF7DF
:1026200061FFB0EE406AD7ED086A97ED097AD7ED01
:102630000A7AF0EE461AB0EE660AF0EE470AB0EEFD
:10264000671AFFF731F8F0EE406AB0EE607AF0EE0C
:10265000417AC7ED166A87ED177AC7ED187A97EDBC
:102660001C5AD7ED1D5A97ED1E6AD7ED226A97EDD9
:10267000237AD7ED247AF0EE451AB0EE652AF0EE13
:10268000462AB0EE660AF0EE470AB0EE671AFEF789
:102690009DFFF0EE406AB0EE607AF0EE417AC7ED51
:1026A000316A87ED327AC7ED337AFB6A93ED0E6AB1
:1026B000D7ED316A97ED327AD7ED337AF0EE461ADC
:1026C000B0EE660AF0EE470AB0EE671AFEF7ECFFCE
:1026D000F0EE406AB0EE607AF0EE417AC7ED346A0F
:1026E00087ED357AC7ED367A97ED345AD7ED355AFE
:1026F00097ED366AD7ED166A97ED177AD7ED187A07
:10270000F0EE451AB0EE652AF0EE462AB0EE660A03
:10271000F0EE470AB0EE671AFEF758FFF0EE406A97
:10272000B0EE607AF0EE417AC7ED136A87ED147A65
:10273000C7ED157AD7ED136A97ED147AD7ED157AB0
:10274000D7ED011AB0EE660AF0EE470AB0EE671A4E
:10275000FEF7AAFFF0EE406AB0EE607AF0EE417A42
:10276000C7ED376A87ED387AC7ED397AD7ED374A42
:1027700097ED385AD7ED395AFB6A93ED066AD3EDD7
:10278000076A93ED087AD3ED097AB0EE642AF0EE89
:10279000452AB0EE653AB0EE460AF0EE660AB0EEB3
:1027A000471AF0EE671AFFF78EFAB0EE406AF0EEC5
:1027B000606AB0EE417AF0EE617A87ED3A6AC7ED71
:1027C0003B6A87ED3C7AC7ED3D7AFC6A97ED3A4A61
:1027D000D7ED3B4A97ED3C5AD7ED3D5AFB6A93ED56
:1027E000066AD3ED076A93ED087AD3ED097AB0EE65
:1027F000442AF0EE642AB0EE453AF0EE653AB0EEC7
:10280000460AF0EE660AB0EE471AF0EE671AFFF7D6
:1028100036F9B0EE406AF0EE606AB0EE417AF0EE62
:10282000617A84ED066AC4ED076A84ED087AC4ED26
:10283000097AFC6AFB6A93ED066AD3ED076A93EDA9
:10284000087AD3ED097AB0EE460AF0EE660AB0EEE9
:10285000471AF0EE671AFFF7D6FAB0EE406AF0EECC
:10286000606AB0EE417AF0EE617A84ED066AC4EDFA
:10287000076A84ED087AC4ED097A00BFFC37BD46CB
:1028800090BD80B493B000AF78617B691B78012B59
:1028900002DC002B03DA94E0022B48D091E07B6944
:1028A00093ED077A7B69D3ED097A27EE277A7B6966
:1028B000D3ED066A7B69D3ED087A66EEA77A77EEE8
:1028C000677AC7ED097A7B6993ED087A7B69D3ED66
:1028D000097A27EE277A7B69D3ED066A7B69D3ED07
:1028E000077A66EEA77A77EE277AC7ED0A7A7B69D0
:1028F00093ED067A7B69D3ED067A67EE277AB6EE1A
:10290000007A37EEC77A7B69D3ED096A7B69D3ED2C
:10291000097A66EEA77A77EE277AC7ED0B7A07F188
:102920003C0307F1240207CA83E8070052E07B69F1
:1029300093ED067A7B69D3ED087A27EE277A7B69D7
:10294000D3ED076A7B69D3ED097A66EEA77A77EE55
:10295000677AC7ED067A7B6993ED087A7B69D3EDD8
:10296000097A27EE277A7B69D3ED066A7B69D3ED76
:10297000077A66EEA77A77EE277AF1EE677AC7EDE7
:10298000077A7B6993ED067A7B69D3ED067A67EE69
:10299000277AB6EE007A37EE677A7B69D3ED096A5B
:1029A0007B69D3ED097A66EEA77A77EE677AC7ED91
:1029B000087A07F13C0307F1180207CA83E8070009
:1029C00008E04FF00003FB634FF000033B644FF05F
:1029D00000037B64F96B3A6C7B6C06EE901A07EE91
:1029E000102A07EE903AB0EE660AF0EE470AB0EE13
:1029F000671A4C37BD465DF8047B704780B497B0CA
:102A000000AF78617B691B78022B00F09A80022B63
:102A100000F3E180002B02D0012B48D0DBE07B6982
:102A200093ED077A7B69D3ED087A27EE277A7B69E5
:102A3000D3ED066A7B69D3ED097A66EEA77A77EE65
:102A4000277AC7ED0D7A7B6993ED067A7B69D3ED22
:102A5000067A67EE277AB6EE007A37EEC77A7B6998
:102A6000D3ED086A7B69D3ED087A66EEA77A77EE34
:102A7000277AC7ED0E7A7B6993ED087A7B69D3EDEF
:102A8000097A27EE277A7B69D3ED066A7B69D3ED55
:102A9000077A66EEA77A77EE677AC7ED0F7A07F1C5
:102AA0004C0307F1340207CA83E807009CE07B6906
:102AB00093ED067A7B69D3ED067A67EE277AB6EE58
:102AC000007A37EE677A7B69D3ED076A7B69D3EDCD
:102AD000077A66EEA77A77EE677AC7ED0A7A7B699E
:102AE00093ED067A7B69D3ED097A27EE277A7B6925
:102AF000D3ED076A7B69D3ED087A66EEA77A77EEA5
:102B0000677AC7ED0B7A7B6993ED077A7B69D3ED22
:102B1000097A27EE277A7B69D3ED066A7B69D3EDC4
:102B2000087A66EEA77A77EE277AF1EE677AC7ED34
:102B30000C7A07F14C0307F1280207CA83E8070063
:102B400052E07B6993ED077A7B69D3ED087A27EE33
:102B5000277A7B69D3ED066A7B69D3ED097A66EE45
:102B6000A77A77EE277AF1EE677AC7ED077A7B6965
:102B700093ED067A7B69D3ED067A67EE277AB6EE97
:102B8000007A37EE677A7B69D3ED086A7B69D3ED0B
:102B9000087A66EEA77A77EE677AC7ED087A7B69DE
:102BA00093ED067A7B69D3ED077A27EE277A7B6966
:102BB000D3ED086A7B69D3ED097A66EEA77A77EEE2
:102BC000677AC7ED097A07F14C0307F11C0207CABF
:102BD00083E8070008E04FF00003FB644FF00003B8
:102BE0003B654FF000037B65F96C3A6D7B6D06EE3B
:102BF000901A07EE102A07EE903AB0EE660AF0EE51
:102C0000470AB0EE671A5C37BD465DF8047B704733
:102C100080B590B000AFB0EE405AF0EE605AB0EE22
:102C2000416AF0EE616AB0EE427AF0EE627A87EDC8
:102C3000075AC7ED085A87ED096AC7ED046A87EDA0
:102C4000057AC7ED067A97ED045AD7ED055A97ED48
:102C5000066AD7ED076A97ED087AD7ED097AF0EEA4
:102C6000451AB0EE652AF0EE462AB0EE660AF0EE9E
:102C7000470AB0EE671AFEF70FFEF0EE407AF5EE67
:102C8000C07AF1EE10FA40D597ED045AD7ED055A07
:102C900097ED066AD7ED076A97ED087AD7ED097ABE
:102CA000F0EE451AB0EE652AF0EE462AB0EE660A5E
:102CB000F0EE470AB0EE671AFEF788FDF0EE406AC4
:102CC000B0EE607AF0EE417AC7ED0D6A87ED0E7ACC
:102CD000C7ED0F7AD7ED0D6A97ED0E7AD7ED0F7A23
:102CE000B0EE660AF0EE470AB0EE671AFEF774FE21
:102CF000F0EE406AB0EE607AF0EE417AC7ED0A6A13
:102D000087ED0B7AC7ED0C7A25E097ED045AD7EDE5
:102D1000055A97ED066AD7ED076A97ED087AD7ED61
:102D2000097AF0EE451AB0EE652AF0EE462AB0EECA
:102D3000660AF0EE470AB0EE671AFEF747FDF0EEBE
:102D4000406AB0EE607AF0EE417AC7ED0A6A87ED2C
:102D50000B7AC7ED0C7AB96AFA6A3B6B06EE901AE9
:102D600007EE102A07EE903AB0EE660AF0EE470A38
:102D7000B0EE671A4037BD4680BD80B485B000AF65
:102D8000F860B9607A60FA68BB689A4201DABB6899
:102D900006E0FA687B689A4201DD7B6800E0FB6828
:102DA00018461437BD465DF8047B704780B58CB07B
:102DB00000AFF861B0EE405AF0EE605AB0EE416AF2
:102DC000F0EE616AB0EE427AF0EE627A87ED003A98
:102DD00087ED045AC7ED055A87ED066AC7ED016A0B
:102DE00087ED027AC7ED037A4FF000037B624FF064
:102DF0000003BB624FF00003FB6297ED093AD7ED89
:102E00000A3A97ED0B4A97ED015AD7ED025A97ED22
:102E1000036AD7ED046A97ED057AD7ED067AD7ED08
:102E2000004AF0EE451AB0EE652AF0EE462AB0EE02
:102E3000660AF0EE470AB0EE671AF869FFF792F9F2
:102E4000FB6993F83430002B04D09FED040AF86935
:102E500000F029F800BF3037BD4680BD00000000FB
:102E600090B48AB000AF78617B6907F11804183319
:102E70000FCB84E80F00B869F9693A6A7B6A06EEFD
:102E8000100A06EE901A07EE102A07EE903AB0EEFE
:102E9000460AF0EE660AB0EE471AF0EE671A2837D7
:102EA000BD4690BC704790B589B000AF786087EDA3
:102EB000000A7B6893ED067A7B68D3ED097A27EEEA
:102EC000277A7B68D3ED076A7B68D3ED087A66EED4
:102ED000A77A37EE276A7B6893ED087A7B68D3ED93
:102EE000087A67EE277AB6EE007A37EE677A7B6863
:102EF000D3ED096A7B68D3ED097A66EEA77A77EE9F
:102F0000677AF0EE670AB0EE460A0BF065FA87EDD5
:102F1000070A97ED000AFEF7E5FAB0EE407AD7ED22
:102F2000077A77EEC77AB6EE007A67EE877AC7ED52
:102F3000067A97ED060A0BF0A9FAF0EE407AC7ED93
:102F4000027A4FF00003FB604FF000033B6197ED06
:102F5000060A0BF0E7FAF0EE407AF1EE677AC7ED79
:102F6000057A7C687B6893ED064AD3ED074A93EDBA
:102F7000085AD3ED095A97ED026AD7ED036A97ED27
:102F8000047AD7ED057AB0EE442AF0EE642AB0EE6A
:102F9000453AF0EE653AB0EE460AF0EE660AB0EE5B
:102FA000471AF0EE671AFEF7CCFDB0EE406AF0EE7D
:102FB000606AB0EE417AF0EE617A84ED066AC4EDA3
:102FC000076A84ED087AC4ED097A00BF2437BD464C
:102FD00090BD000080B483B000AF87ED010AD7ED4B
:102FE000017A9FED057A67EE877AB0EE670A0C37B3
:102FF000BD465DF8047B7047E02E654280B582B027
:1030000000AF87ED010AD7ED017ABFEE007AF4EE4A
:10301000C77AF1EE10FA02D8DFED0C7A11E0D7EDA5
:10302000017AB7EE007AF4EEC77AF1EE10FA02DB1D
:10303000DFED077A05E097ED010A0BF0A1F9F0EE5C
:10304000407AB0EE670A0837BD4680BDDB0FC9BFC6
:10305000DB0FC93F80B590B000AFB0EE406AF0EE34
:10306000606AB0EE417AF0EE617A87ED046AC7EDEE
:10307000056A87ED067AC7ED077A97ED067AD7EDF0
:10308000067A67EE277AB6EE007A77EE677AC7EDB2
:103090000F7A97ED047AD7ED057A27EE277AD7EDE8
:1030A000066AD7ED077A66EEA77A77EE276A97ED7C
:1030B000057AD7ED057A67EE277A97ED0F7A77EEE6
:1030C000677AF0EE670AB0EE660A0BF085F9F0EE6B
:1030D000407AB0EE670AFFF77DFFF0EE407AC7ED69
:1030E000097A97ED047AD7ED067A27EE277AD7ED9D
:1030F000076AD7ED057A66EEA77A77EE677A77EEFC
:10310000A77AB0EE670AFFF779FFF0EE407AB0EEEB
:10311000670AFFF75FFFF0EE407AC7ED0A7A97ED96
:10312000047AD7ED077A27EE277AD7ED056AD7ED2F
:10313000067A66EEA77A77EE276A97ED077AD7EDDB
:10314000077A67EE277A97ED0F7A77EE677AF0EED7
:10315000670AB0EE660A0BF03FF9F0EE407AB0EE87
:10316000670AFFF737FFF0EE407AC7ED0B7A07F1F9
:10317000300307F1240207CA83E80700396B7A6B32
:10318000BB6B06EE901A07EE102A07EE903AB0EEEF
:10319000660AF0EE470AB0EE671A4037BD4680BDBA
:1031A00080B582B000AF0346FB80FB88042B03D1BF
:1031B0000648FEF777F805E0FB88082B02D10348A4
:1031C000FEF700F900BF0837BD4680BDF8030020B8
:1031D00080B582B000AF78607B681B680A4A934272
:1031E0000DD10A4B1B7C002B02D00848FEF786F855
:1031F000064B5B7C002B02D00448FEF70FF900BFA2
:103200000837BD4680BD00BF00300140F8030020F4
:1032100080B582B000AF7860472240217868FDF722
:10322000CDFF012241217868FDF7C8FF00227C21F3
:103230007868FDF7C3FF04220F217868FDF7F8FFD7
:1032400002220F217868FDF7F3FF0722102178682A
:10325000FDF7EEFF00BF0837BD4680BD2DE9B04346
:10326000B0B004AF00F080FC00F0C4F800F08AF9C0
:1032700000F060F900F028F907F022FD4FF000039C
:10328000C7F8A83010230193544B00931023544ADD
:1032900054495548FDF700FE07F124031846FEF790
:1032A00027FE0023C7F8AC304F48FFF7B1FF00F00E
:1032B000C1FC0246D7F8AC30D31A012BF7D94A4BE0
:1032C0005B6CBB61484B9B6CFB61474BDB6C3B62AF
:1032D000454B9B6BFB60444BDB6B3B61424B1B6C78
:1032E0007B6197ED035AD7ED045A97ED056AD7ED48
:1032F000066A97ED077AD7ED087A07F12403B0EE56
:10330000003AF0EE451AB0EE652AF0EE462AB0EE2D
:10331000660AF0EE470AB0EE671A1846FFF746FD58
:1033200007F124031846FFF79BFDB0EE406AF0EE6C
:10333000606AB0EE417AF0EE617A87ED266AC7EDF9
:10334000276A87ED287AC7ED297A97ED266AD7EDA7
:10335000276A97ED287AD7ED297AB0EE460AF0EE83
:10336000660AB0EE471AF0EE671AFFF773FEF0EE4A
:10337000406AB0EE607AF0EE417AC7ED006A87ED00
:10338000017AC7ED027A3B681846FDF7DDF8804602
:1033900089467B681846FDF7D7F804460D46BB689A
:1033A0001846FDF7D1F802460B46CDE90223CDE9D8
:1033B000004542464B460D490D4808F0B5FE0C4805
:1033C000FCF756FF03469BB21946094807F036FD45
:1033D00000F030FCC7F8AC0069E700BF000802400D
:1033E00000000240E0020020F803002080FA0008FC
:1033F0004804002080B594B000AF07F120033022CC
:103400000021184608F0F3FE07F10C0300221A60B1
:103410005A609A60DA601A610023BB60284B1B6C0B
:10342000274A43F080531364254B1B6C03F08053F1
:10343000BB60BB6800237B60224B1B68214A43F4BE
:10344000804313601F4B1B6803F480437B607B68E1
:1034500001233B624FF480337B620223BB634FF452
:103460008003FB6308233B64A8237B640223BB64C3
:103470000723FB6407F12003184602F0CFFC034644
:10348000002B01D000F024F90F23FB6002233B61E5
:1034900000237B614FF4A053BB614FF48053FB6169
:1034A00007F10C030521184602F030FF0346002BFC
:1034B00001D000F00DF900BF5037BD4680BD00BF00
:1034C000003802400070004080B500AF174B184A2A
:1034D0001A60164B4FF482725A60144B00229A60A5
:1034E000124B0022DA60114B00221A610F4B0022AE
:1034F0005A610E4B4FF400729A610C4B1022DA6144
:103500000A4B00221A62094B00225A62074B002222
:103510009A62064B0A22DA62044803F0EDF8034689
:10352000002B01D000F0D4F800BF80BDE0020020E5
:103530000030014080B582B000AF00237B60104BAB
:103540001B6B0F4A43F4800313630D4B1B6B03F497
:1035500080037B607B6800220021382000F075FC2E
:10356000382000F08EFC002200213B2000F06DFC92
:103570003B2000F086FC00BF0837BD4680BD00BF81
:103580000038024080B58AB000AF07F11403002272
:103590001A605A609A60DA601A6100233B61484BF6
:1035A0001B6B474A43F080031363454B1B6B03F0CF
:1035B00080033B613B690023FB60414B1B6B404A2E
:1035C00043F0040313633E4B1B6B03F00403FB60E7
:1035D000FB680023BB603A4B1B6B394A43F0010385
:1035E0001363374B1B6B03F00103BB60BB68002305
:1035F0007B60334B1B6B324A43F002031363304B47
:103600001B6B03F002037B607B68002210212D48B6
:1036100001F080F9002210212B4801F07BF90022F3
:1036200010212A4801F076F90C237B614FF48813AE
:10363000BB610023FB6107F114031946224800F027
:10364000CDFF10237B610123BB610023FB610023BD
:103650003B6207F1140319461A4800F0BFFF10231C
:103660007B610123BB610023FB6100233B6207F107
:1036700014031946144800F0B1FF10237B610123A5
:10368000BB610023FB6100233B6207F11403194671
:103690000E4800F0A3FF00220021082000F0D5FB17
:1036A000082000F0EEFB00220021092000F0CDFBF5
:1036B000092000F0E6FB00BF2837BD4680BD00BFF3
:1036C00000380240000002400008024000040240AE
:1036D00080B400AF72B600BF00BFFDE780B483B016
:1036E00000AF00237B60104B5B6C0F4A43F48043B8
:1036F00053640D4B5B6C03F480437B607B68002359
:103700003B60094B1B6C084A43F080531364064B23
:103710001B6C03F080533B603B6800BF0C37BD4619
:103720005DF8047B704700BF0038024080B58AB066
:1037300000AF786007F1140300221A605A609A60A3
:10374000DA601A617B681B684C4A934240F09280B1
:1037500000233B614A4B5B6C494A43F480535364FA
:10376000474B5B6C03F480533B613B690023FB6078
:10377000434B1B6B424A43F001031363404B1B6BEB
:1037800003F00103FB60FB68E0237B610223BB6164
:103790000023FB6103233B6205237B6207F11403D3
:1037A0001946384800F01AFF374B384A1A60364B32
:1037B0004FF0C0625A60344B00229A60324B0022B4
:1037C000DA60314B4FF480621A612F4B00225A614C
:1037D0002D4B00229A612C4B0022DA612A4B4FF4C8
:1037E00000321A62284B00225A62274800F064FB1C
:1037F0000346002B01D0FFF76BFF7B68224ADA6497
:10380000214A7B689363224B224A1A60204B4FF077
:10381000C0625A601E4B40229A601D4B0022DA6043
:103820001B4B4FF480621A61194B00225A61184BEE
:1038300000229A61164B0022DA61154B4FF40032D8
:103840001A62134B00225A62114800F035FB0346FE
:10385000002B01D0FFF73CFF7B680D4A9A640C4AAD
:103860007B68936300220021232000F0EEFA2320DE
:1038700000F007FB00BF2837BD4680BD0030014087
:10388000003802400000024038030020106402406B
:10389000980300205864024080B400AF00BFFDE7E9
:1038A00080B400AF00BFFDE780B400AF00BFFDE70C
:1038B00080B400AF00BFFDE780B400AF00BFFDE7FC
:1038C00080B400AF00BFBD465DF8047B704780B494
:1038D00000AF00BFBD465DF8047B704780B400AF09
:1038E00000BFBD465DF8047B704780B500AF00F0B7
:1038F0008DF900BF80BD80B500AF042001F024F831
:1039000000BF80BD80B500AF082001F01DF800BFEA
:1039100080BD000080B500AF024803F05FFB00BF30
:1039200080BD00BFE002002080B500AF024800F07B
:10393000EBFB00BF80BD00BF3803002080B500AFA7
:10394000024800F0E1FB00BF80BD00BF98030020EB
:1039500080B500AF024801F053F900BF80BD00BF41
:10396000F819002080B400AF01231846BD465DF869
:10397000047B704780B582B000AF7860396008F092
:1039800089FC034616221A604FF0FF3318460837A9
:10399000BD4680BD80B582B000AF78604FF0FF318A
:1039A0007868FFF7E7FF00BFFDE780B586B000AF9E
:1039B000F860B9607A6000237B610AE0AFF30080B1
:1039C0000146BB685A1CBA60CAB21A707B690133DF
:1039D0007B617A697B689A42F0DB7B68184618370E
:1039E000BD4680BD80B586B000AFF860B9607A6032
:1039F00000237B6109E0BB685A1CBA601B7818463B
:103A0000AFF300807B6901337B617A697B689A42FE
:103A1000F1DB7B6818461837BD4680BD80B483B0A3
:103A200000AF78604FF0FF3318460C37BD465DF8A5
:103A3000047B704780B483B000AF786039603B6826
:103A40004FF400525A60002318460C37BD465DF80B
:103A5000047B704780B483B000AF786001231846C0
:103A60000C37BD465DF8047B704780B485B000AF6D
:103A7000F860B9607A60002318461437BD465DF8D7
:103A8000047B704780B586B000AF7860144A154B50
:103A9000D31A7B617B693B61134B1B68002B02D1FE
:103AA000114B124A1A60104B1A687B6813443A692A
:103AB0009A4207D208F0EEFB03460C221A604FF040
:103AC000FF3309E0084B1B68FB60074B1A687B68F3
:103AD0001344054A1360FB6818461837BD4680BD7D
:103AE00000000220000400001005002048220020F1
:103AF00080B400AF064BD3F88830054A43F4700316
:103B0000C2F8883000BFBD465DF8047B704700BF37
:103B100000ED00E0DFF834D0FFF7EAFF0C480D4974
:103B20000D4A002302E0D458C4500433C4188C4218
:103B3000F9D30A4A0A4C002301E013600432A2427E
:103B4000FBD308F0ADFBFFF789FB704700000220B4
:103B500000000020C4020020A8020108C4020020C6
:103B600048220020FEE7000080B500AF0E4B1B6826
:103B70000D4A43F4007313600B4B1B680A4A43F46D
:103B800080631360084B1B68074A43F4807313601B
:103B9000032000F04FF90F2000F008F8FFF79EFD1A
:103BA0000023184680BD00BF003C024080B582B0B3
:103BB00000AF7860124B1A68124B1B7819464FF40D
:103BC0007A73B3FBF1F3B2FBF3F3184600F067F935
:103BD0000346002B01D001230EE07B680F2B0AD88F
:103BE000002279684FF0FF3000F02FF9064A7B6819
:103BF0001360002300E0012318460837BD4680BD4E
:103C000000000020080000200400002080B400AF65
:103C1000064B1B781A46064B1B681344044A136074
:103C200000BFBD465DF8047B704700BF0800002060
:103C30001405002080B400AF034B1B681846BD4636
:103C40005DF8047B704700BF1405002080B584B088
:103C500000AF7860FFF7EEFFB8607B68FB60FB6841
:103C6000B3F1FF3F05D00A4B1B781A46FB6813449B
:103C7000FB6000BFFFF7DEFF0246BB68D31AFA689D
:103C80009A42F7D800BF00BF1037BD4680BD00BFC5
:103C90000800002080B485B000AF78607B6803F036
:103CA0000703FB600C4BDB68BB60BA684FF6FF0391
:103CB0001340BB60FB681A02BB68134343F0BF6349
:103CC00043F40033BB60044ABB68D36000BF1437C1
:103CD000BD465DF8047B704700ED00E080B400AFA6
:103CE000044BDB681B0A03F007031846BD465DF86A
:103CF000047B704700ED00E080B483B000AF034662
:103D0000FB7197F90730002B0BDBFB7903F01F02E7
:103D1000074997F907305B09012000FA02F241F8E0
:103D2000232000BF0C37BD465DF8047B704700BF01
:103D300000E100E080B483B000AF03463960FB715E
:103D400097F90730002B0ADB3B68DAB20C4997F988
:103D500007301201D2B20B4483F800230AE03B681B
:103D6000DAB20849FB7903F00F03043B1201D2B227
:103D70000B441A7600BF0C37BD465DF8047B7047D4
:103D800000E100E000ED00E080B489B000AFF86031
:103D9000B9607A60FB6803F00703FB61FB69C3F15C
:103DA0000703042B28BF0423BB61FB690433062BE4
:103DB00002D9FB69033B00E000237B614FF0FF3237
:103DC000BB6902FA03F3DA43BB681A407B699A4085
:103DD0004FF0FF317B6901FA03F3D9437B680B4055
:103DE000134318462437BD465DF8047B7047000036
:103DF00080B582B000AF78607B68013BB3F1807F13
:103E000001D301230FE00A4A7B68013B53600F2175
:103E10004FF0FF30FFF78EFF054B00229A60044BF6
:103E200007221A60002318460837BD4680BD00BF30
:103E300010E000E080B582B000AF78607868FFF7EE
:103E400029FF00BF0837BD4680BD80B586B000AFF2
:103E50000346B9607A60FB7300237B61FFF73EFF86
:103E600078617A68B9687869FFF78EFF024697F93A
:103E70000F3011461846FFF75DFF00BF1837BD46EB
:103E800080BD80B582B000AF0346FB7197F9073063
:103E90001846FFF731FF00BF0837BD4680BD80B52B
:103EA00082B000AF78607868FFF7A2FF034618463B
:103EB0000837BD4680BD000080B586B000AF786091
:103EC00000237B61FFF7B6FE38617B68002B01D1D0
:103ED000012399E07B68022283F835207B68002269
:103EE00083F834207B681B681A687B681B6822F0A3
:103EF00001021A600FE0FFF79DFE02463B69D31AEC
:103F0000052B08D97B6820225A657B68032283F839
:103F10003520032378E07B681B681B6803F00103EE
:103F2000002BE8D17B681B681B687B617A69384B82
:103F300013407B617B685A687B689B681A437B6887
:103F4000DB681A437B681B691A437B685B691A4309
:103F50007B689B691A437B68DB691A437B681B6A31
:103F600013437A6913437B617B685B6A042B07D137
:103F70007B68DA6A7B681B6B13437A6913437B6146
:103F80007B681B687A691A607B681B685B697B6168
:103F90007B6923F007037B617B685B6A7A69134363
:103FA0007B617B685B6A042B17D17B689B6A7A69AB
:103FB00013437B617B68DB6A002B0ED0786800F0CE
:103FC00091FA0346002B08D07B6840225A657B6833
:103FD000012283F83520012316E07B681B687A698B
:103FE0005A61786800F048FA0346FB607B68DB6D35
:103FF0003F229A40FB689A607B6800225A657B6882
:10400000012283F83520002318461837BD4680BDAD
:104010003F8010F080B586B000AFF860B9607A607C
:104020003B600023FB75FB689B6D3B61FB6893F86D
:104030003430012B01D1022340E0FB68012283F8D8
:104040003420FB6893F83530DBB2012B2FD1FB68AD
:10405000022283F83520FB6800225A653B687A68A3
:10406000B968F86800F0DAF9FB68DB6D3F229A4026
:104070003B699A60FB681B681A68FB681B6842F022
:1040800016021A60FB681B6C002B07D0FB681B68CC
:104090001A68FB681B6842F008021A60FB681B681C
:1040A0001A68FB681B6842F001021A6005E0FB68B1
:1040B000002283F834200223FB75FB7D1846183755
:1040C000BD4680BD80B483B000AF78607B6893F854
:1040D0003530DBB2022B04D07B6880225A65012385
:1040E0000CE07B68052283F835207B681B681A6822
:1040F0007B681B6822F001021A60002318460C3707
:10410000BD465DF8047B704780B586B000AF78602F
:104110000023BB608E4B1B688E4AA2FB03239B0AC5
:104120007B617B689B6D3B613B691B68FB607B68C7
:10413000DB6D08229A40FB681340002B1AD07B6885
:104140001B681B6803F00403002B13D07B681B68FB
:104150001A687B681B6822F004021A607B68DB6DBA
:1041600008229A403B699A607B685B6D43F00102CC
:104170007B685A657B68DB6D01229A40FB681340BF
:10418000002B12D07B681B685B6903F08003002B57
:104190000BD07B68DB6D01229A403B699A607B689B
:1041A0005B6D43F002027B685A657B68DB6D04221D
:1041B0009A40FB681340002B12D07B681B681B6879
:1041C00003F00203002B0BD07B68DB6D04229A40C6
:1041D0003B699A607B685B6D43F004027B685A65BB
:1041E0007B68DB6D10229A40FB681340002B43D0A4
:1041F0007B681B681B6803F00803002B3CD07B68BE
:10420000DB6D10229A403B699A607B681B681B68D3
:1042100003F48023002B18D07B681B681B6803F411
:104220000023002B08D17B681B6C002B24D07B68FB
:104230001B6C786898471FE07B689B6C002B1BD039
:104240007B689B6C7868984716E07B681B681B68E6
:1042500003F48073002B07D17B681B681A687B68A6
:104260001B6822F008021A607B681B6C002B03D0CD
:104270007B681B6C786898477B68DB6D20229A40CE
:10428000FB681340002B00F08F807B681B681B6865
:1042900003F01003002B00F087807B68DB6D202289
:1042A0009A403B699A607B6893F83530DBB2052B06
:1042B00036D17B681B681A687B681B6822F016027F
:1042C0001A607B681B685A697B681B6822F0800251
:1042D0005A617B681B6C002B03D17B689B6C002BA5
:1042E00007D07B681B681A687B681B6822F008028D
:1042F0001A607B68DB6D3F229A403B699A607B685D
:10430000012283F835207B68002283F834207B6803
:104310001B6D002B7ED07B681B6D7868984779E019
:104320007B681B681B6803F48023002B1DD07B680F
:104330001B681B6803F40023002B0DD17B685B6CAA
:10434000002B31D07B685B6C786898472CE000BF0D
:1043500000000020B5814E1B7B68DB6B002B23D057
:104360007B68DB6B786898471EE07B681B681B687E
:1043700003F48073002B0FD17B681B681A687B687D
:104380001B6822F010021A607B68012283F8352036
:104390007B68002283F834207B68DB6B002B03D022
:1043A0007B68DB6B786898477B685B6D002B32D04D
:1043B0007B685B6D03F00103002B22D07B68052234
:1043C00083F835207B681B681A687B681B6822F0BD
:1043D00001021A60BB680133BB607A699A4207D355
:1043E0007B681B681B6803F00103002BF2D100E01F
:1043F00000BF7B68012283F835207B68002283F8A8
:1044000034207B68DB6C002B05D07B68DB6C786824
:10441000984700E000BF1837BD4680BD80B485B026
:1044200000AFF860B9607A603B60FB681B681A688F
:10443000FB681B6822F480221A60FB681B683A68DC
:104440005A60FB689B68402B08D1FB681B687A6840
:104450009A60FB681B68BA68DA6007E0FB681B6853
:10446000BA689A60FB681B687A68DA6000BF143724
:10447000BD465DF8047B704780B485B000AF7860BE
:104480007B681B68DBB2103B144AA2FB03231B09A9
:10449000FB60134AFB6813441B781A467B68DA6595
:1044A000FB68032B09D97B681B6823F47F7323F017
:1044B00003031A1D7B689A6507E07B681B6823F479
:1044C0007F7323F003037A6893657B689B6D1846BE
:1044D0001437BD465DF8047B704700BFABAAAAAA9B
:1044E000FCFA000880B485B000AF78600023FB734D
:1044F0007B689B6ABB607B689B69002B1FD1BB6894
:10450000032B56D801A252F823F000BF1D45000826
:104510002F4500081D450008B34500087B68DB6A8D
:1045200003F08073002B46D00123FB7343E07B68CC
:10453000DB6AB3F1C07F40D10123FB733DE07B68B0
:104540009B69B3F5005F21D1BB68032B37D801A26B
:1045500052F823F0654500086B45000865450008E2
:104560007D4500080123FB7330E07B68DB6A03F0C4
:104570008073002B25D00123FB7322E07B68DB6A6C
:10458000B3F1C07F1FD10123FB731CE0BB68022B7A
:1045900003D9BB68032B03D018E00123FB7315E09C
:1045A0007B68DB6A03F08073002B0ED00123FB7362
:1045B0000BE000BF0AE000BF08E000BF06E000BF5C
:1045C00004E000BF02E000BF00E000BFFB7B184634
:1045D0001437BD465DF8047B704700BF80B489B0D6
:1045E00000AF7860396000237B6100233B610023CA
:1045F000BB610023FB616BE10122FB6902FA03F35B
:104600007B613B681B687A6913403B613A697B694F
:104610009A4240F05A813B685B6803F00303012B28
:1046200005D03B685B6803F00303022B30D17B6845
:104630009B68BB61FB695B00032202FA03F3DB4367
:10464000BA691340BB613B68DA68FB695B0002FA38
:1046500003F3BA691343BB617B68BA699A607B68EC
:104660005B68BB610122FB6902FA03F3DB43BA69B1
:104670001340BB613B685B681B0903F00102FB69E7
:1046800002FA03F3BA691343BB617B68BA695A60E3
:104690003B685B6803F00303032B17D07B68DB6880
:1046A000BB61FB695B00032202FA03F3DB43BA69D7
:1046B0001340BB613B689A68FB695B0002FA03F335
:1046C000BA691343BB617B68BA69DA603B685B68AF
:1046D00003F00303022B23D1FB69DA087B6808325D
:1046E00053F82230BB61FB6903F007039B000F22E4
:1046F00002FA03F3DB43BA691340BB613B681A69F2
:10470000FB6903F007039B0002FA03F3BA69134342
:10471000BB61FB69DA087B680832B96943F822108B
:104720007B681B68BB61FB695B00032202FA03F331
:10473000DB43BA691340BB613B685B6803F003026B
:10474000FB695B0002FA03F3BA691343BB617B6840
:10475000BA691A603B685B6803F44033002B00F0D1
:10476000B4800023FB60604B5B6C5F4A43F4804382
:1047700053645D4B5B6C03F48043FB60FB685B4AF6
:10478000FB699B08023352F82330BB61FB6903F0DD
:1047900003039B000F2202FA03F3DB43BA691340C1
:1047A000BB617B68524A93422BD07B68514A93424B
:1047B00025D07B68504A93421FD07B684F4A934272
:1047C00019D07B684E4A934213D07B684D4A93427E
:1047D0000DD07B684C4A934207D07B684B4A93428A
:1047E00001D107230EE008230CE006230AE005238D
:1047F00008E0042306E0032304E0022302E001238F
:1048000000E00023FA6902F0030292009340BA69C3
:104810001343BB613549FB699B080233BA6941F810
:1048200023203B4B9B68BB613B69DB43BA69134068
:10483000BB613B685B6803F48013002B03D0BA694B
:104840003B691343BB61324ABB699360304BDB6801
:10485000BB613B69DB43BA691340BB613B685B6882
:1048600003F40013002B03D0BA693B691343BB6107
:10487000274ABB69D360264B5B68BB613B69DB435E
:10488000BA691340BB613B685B6803F40033002BDB
:1048900003D0BA693B691343BB611D4ABB695360CE
:1048A0001B4B1B68BB613B69DB43BA691340BB61AF
:1048B0003B685B6803F48033002B03D0BA693B6923
:1048C0001343BB61124ABB691360FB690133FB618F
:1048D000FB690F2B7FF690AE00BF00BF2437BD46AB
:1048E0005DF8047B704700BF00380240003801408B
:1048F000000002400004024000080240000C024098
:10490000001002400014024000180240001C024047
:10491000003C014080B483B000AF78600B467B80E0
:1049200013467B707B78002B03D07A887B689A6172
:1049300003E07B881A047B689A6100BF0C37BD4690
:104940005DF8047B7047000080B582B000AF03467D
:10495000FB80084B5A69FB881340002B06D0054AA0
:10496000FB885361FB881846FEF71AFC00BF083726
:10497000BD4680BD003C014080B586B002AF786086
:104980007B68002B01D1012301E17B681B68BB60C0
:104990007B6893F89534DBB2002B06D17B6800224C
:1049A00083F89424786806F091FB7B68032283F8EF
:1049B0009524BB68B3F1A04F02D17B6800229A71A5
:1049C0007B681B68184602F078FF7B6818687B6874
:1049D0001A7C8DF8002004330ECB02F057FE0346FC
:1049E000002B05D07B68022283F895240123CEE0BA
:1049F0007B681B680021184602F070FF0346002BFD
:104A000005D07B68022283F895240123BFE00023B0
:104A1000FB734AE0FA7B79681346DB0013449B0082
:104A20000B44153301221A70FA7B79681346DB00B8
:104A300013449B000B441433FA7B1A70FA7BFB7B04
:104A400098B279681346DB0013449B000B442E3365
:104A500002461A80FA7B79681346DB0013449B00F8
:104A60000B44183300221A70FA7B79681346DB0076
:104A700013449B000B441C3300221A60FA7B7968B4
:104A80001346DB0013449B000B44203300221A60C2
:104A9000FA7B79681346DB0013449B000B442433F4
:104AA00000221A60FB7B0133FB737B681B79FA7B66
:104AB0009A42AFD30023FB7344E0FA7B7968134634
:104AC000DB0013449B000B4403F2552300221A70B1
:104AD000FA7B79681346DB0013449B000B4403F513
:104AE0001573FA7B1A70FA7B79681346DB0013445E
:104AF0009B000B4403F5167300221A70FA7B796849
:104B00001346DB0013449B000B4403F5177300228C
:104B10001A60FA7B79681346DB0013449B000B4450
:104B200003F5187300221A60FA7B79681346DB00DC
:104B300013449B000B4403F5197300221A60FB7B9E
:104B40000133FB737B681B79FA7B9A42B5D37B6890
:104B500018687B681A7C8DF8002004330ECB02F0B5
:104B600009FF0346002B05D07B68022283F89524B9
:104B700001230CE07B6800225A747B68012283F8D1
:104B800095247B681B68184603F053FF00231846E2
:104B90001037BD4680BD80B584B000AF78607B68BB
:104BA0001B68FB607B6893F89434012B01D10223CE
:104BB00022E07B68012283F89424FB68DB6803F021
:104BC0004003002B09D07B685B7B012B05D1FB6880
:104BD0009B6B43F48032FB689A637B681B681846C2
:104BE00002F05AFE7B681B68184603F001FF7B68E1
:104BF000002283F89424002318461037BD4680BD58
:104C000090B58DB000AF78607B681B683B623B6AF3
:104C1000FB617B681B68184603F0BFFF0346002B4F
:104C200040F08C847B681B68184603F023FF034622
:104C3000002B00F08284FB6903F500639B681B0A6C
:104C4000C3F30D027B68C3F8D4247B681B68184645
:104C500003F010FF034603F00203022B07D17B6829
:104C60001B685A697B681B6802F002025A617B6804
:104C70001B68184603F0FEFE034603F01003102BDA
:104C800061D17B681B689A697B681B6822F01002FF
:104C90009A613B6A1B6ABB61BB6903F00F02134652
:104CA000DB0013449B0003F514737A681344043348
:104CB0007B61BB695B0C03F00F03022B24D1BA6943
:104CC00047F6F0731340002B35D07B69D968BB6978
:104CD0001B099BB2C3F30A039BB21A46386A03F05E
:104CE00035FD7B69DA68BB691B09C3F30A031A4403
:104CF0007B69DA607B695A69BB691B09C3F30A03E4
:104D00001A447B695A6116E0BB695B0C03F00F0320
:104D1000062B10D17B6803F29C4308221946386A9F
:104D200003F014FD7B695A69BB691B09C3F30A03CD
:104D30001A447B695A617B681B689A697B681B68A7
:104D400042F010029A617B681B68184603F092FEDD
:104D5000034603F40023B3F5002F40F0A78000239F
:104D60007B627B681B68184603F097FEB86299E087
:104D7000BB6A03F00103002B00F08E807B681B6888
:104D80007A6AD2B21146184603F0BBFE38613B691D
:104D900003F00103002B0CD07B6A5A01FB6913441A
:104DA00003F530631A4601239360796A786800F04E
:104DB000A3FE3B6903F00803002B0CD07B6A5A0169
:104DC000FB69134403F530631A4608239360796A3C
:104DD000786800F079FF3B6903F01003002B08D0DE
:104DE0007B6A5A01FB69134403F530631A461023AA
:104DF00093603B6903F00203002B30D03B6A5B6990
:104E000003F08003802B09D1FB6903F500635B6825
:104E1000FA6902F5006243F4806353607A6A1346CC
:104E2000DB0013449B0003F514737A6813440433C6
:104E30007B617B69DB78012B08D17B690022DA700A
:104E40007B6ADBB21946786806F046FA7B6A5A013B
:104E5000FB69134403F530631A46022393603B69F0
:104E600003F02003002B08D07B6A5A01FB6913442E
:104E700003F530631A46202393603B6903F4005323
:104E8000002B09D07B6A5A01FB69134403F5306398
:104E90001A464FF4005393607B6A01337B62BB6A0E
:104EA0005B08BB62BB6A002B7FF462AF7B681B6848
:104EB000184603F0DFFD034603F48023B3F5802F8B
:104EC00040F0DB807B681B68184603F000FEB86288
:104ED00000237B62CDE0BB6A03F00103002B00F0EE
:104EE000C2807B681B687A6AD2B21146184603F00A
:104EF00026FE38613B6903F00103002B57D07B6A23
:104F000003F00F03012202FA03F3FB60FB6903F5D0
:104F100000635A6BFB68DB43F96901F500611340DC
:104F20004B637B6A5A01FB69134403F510631A460D
:104F3000012393607B689B79012B32D179687A6A6F
:104F40001346DB0013449B000B4420331968786838
:104F50007A6A1346DB0013449B0003441C331B682E
:104F6000194478687A6A1346DB0013449B000344B3
:104F7000203319607B6A002B13D179687A6A134653
:104F8000DB0013449B000B4424331B68002B08D127
:104F90007B6818687B6803F29C431A46012103F082
:104FA0002DFE7B6ADBB21946786806F010F93B6982
:104FB00003F00803002B08D07B6A5A01FB691344F5
:104FC00003F510631A46082393603B6903F010034E
:104FD000002B08D07B6A5A01FB69134403F5106368
:104FE0001A46102393603B6903F04003002B08D05E
:104FF0007B6A5A01FB69134403F510631A46402388
:1050000093603B6903F00203002B23D0796A386A6E
:1050100002F014FE7A6A1346DB0013449B0010333F
:105020007A68134404337B617B69DB78012B08D1F8
:105030007B690022DA707B6ADBB21946786806F079
:105040005DF97B6A5A01FB69134403F510631A4644
:10505000022393603B6903F08003002B03D0796A3D
:10506000786800F0BDFC7B6A01337B62BB6A5B0839
:10507000BB62BB6A002B7FF42EAF7B681B681846AF
:1050800003F0F8FC034603F00043B3F1004F22D1D4
:10509000FB6903F500635B68FA6902F5006223F0BF
:1050A000010353607B6893F8CC34012B08D17B68F3
:1050B000002283F8CC240021786800F0A3FE02E0EF
:1050C000786806F0FBF87B681B685A697B681B6888
:1050D00002F000425A617B681B68184603F0CAFC64
:1050E000034603F40063B3F5006F12D1FB6903F5C7
:1050F00000639B6803F00103012B02D1786806F07E
:10510000B7F87B681B685A697B681B6802F4006209
:105110005A617B681B68184603F0ACFC034603F435
:105120008053B3F5805F40F0B780FB6903F50063FF
:105130005B68FA6902F5006223F0010353607B6843
:105140001B681021184602F079FD0023FB6246E03F
:10515000FB6A5A01FB69134403F510631A464FF6C4
:105160007F339360FB6A5A01FB69134403F51063B4
:105170001B68FA6A5101FA690A4402F5106223F4C5
:1051800000131360FB6A5A01FB69134403F5306393
:105190001A464FF67F339360FB6A5A01FB6913444A
:1051A00003F530631B68FA6A5101FA690A4402F593
:1051B000306223F400131360FB6A5A01FB69134445
:1051C00003F530631B68FA6A5101FA690A4402F573
:1051D000306243F000631360FB6A0133FB627B685B
:1051E0001B791A46FB6A9342B2D3FB6903F500634D
:1051F000DB69FA6902F5006243F00113D3617B6851
:10520000DB7B002B16D0FB6903F50063D3F88430F9
:10521000FA6902F5006243F00B03C2F88430FB69BF
:1052200003F500635B6CFA6902F5006243F00B035F
:10523000536415E0FB6903F500635B69FA6902F5E5
:10524000006243F4005343F02B035361FB6903F501
:1052500000631B69FA6902F5006243F00B031361F6
:10526000FB6903F500631B68FA6902F5006223F429
:10527000FE6313607B6818687B6899797B6803F22A
:105280009C431A4603F0BAFC7B681B685A697B682A
:105290001B6802F480525A617B681B68184603F051
:1052A000E9FB034603F40053B3F5005F23D17B68A9
:1052B0001B68184603F07FFC7B681B68184602F0E9
:1052C00036FD03461A467B68DA717B681C6801F07C
:1052D00007FA01467B68DB791A46204602F03AFA63
:1052E000786805F09CFF7B681B685A697B681B68BF
:1052F00002F400525A617B681B68184603F0BAFB3F
:10530000034603F00803082B0AD1786805F079FFFB
:105310007B681B685A697B681B6802F008025A6147
:105320007B681B68184603F0A5FB034603F0800367
:10533000802B23D13B6A9B6923F080023B6A9A61F0
:1053400001237B6214E079687A6A1346DB00134418
:105350009B000B4403F257231B78012B05D17B6A7A
:10536000DBB21946786800F00AFB7B6A01337B6286
:105370007B681B791A467B6A9342E4D37B681B687F
:10538000184603F077FB034603F48013B3F5801F40
:105390003CD101237B622BE07B6A5A01FB691344F9
:1053A00003F510631B68BB6179687A6A1346DB00FA
:1053B00013449B000B4418331B78012B15D1BB6998
:1053C000002B12DA79687A6A1346DB0013449B00DB
:1053D0000B44173301221A707B6ADBB263F07F0340
:1053E000DBB21946786800F0CAFA7B6A01337B6247
:1053F0007B681B791A467B6A9342CDD37B681B6816
:105400005A697B681B6802F480125A617B681B68CA
:10541000184603F02FFB034603F40013B3F5001FF7
:1054200056D101237B6245E07B6A5A01FB69134434
:1054300003F530631B68BB6179687A6A1346DB0049
:1054400013449B000B4403F516731B78012B2ED1DC
:10545000BB69002B2BDABB6903F480327B68D3F87D
:10546000D43403F001039A4221D179687A6A134651
:10547000DB0013449B000B4403F2572301221A70F4
:105480003B6A9B6943F080023B6A9A613B6A5B69B5
:1054900003F08003002B0AD1FB6903F500635B680E
:1054A000FA6902F5006243F40073536008E07B6A16
:1054B00001337B627B681B791A467B6A9342B3D3C4
:1054C0007B681B685A697B681B6802F400125A618A
:1054D0007B681B68184603F0CDFA034603F080434F
:1054E000B3F1804F0AD1786805F01AFF7B681B681A
:1054F0005A697B681B6802F080425A617B681B68AE
:10550000184603F0B7FA034603F00403042B15D141
:105510007B681B685B68BB61BB6903F00403002BFD
:1055200002D0786805F00AFF7B681B6859687B68C1
:105530001B68BA690A435A6000E000BF3437BD46B1
:1055400090BD80B582B000AF78600B46FB707B6881
:1055500093F89434012B01D1022312E07B680122DD
:1055600083F894247B68FA785A747B681B68FA780D
:105570001146184603F016FA7B68002283F894243B
:10558000002318460837BD4680BD80B584B000AF03
:105590007860084611461A460346FB700B463B806E
:1055A0001346BB700023FB7297F90330002B0FDA10
:1055B000FB7803F00F021346DB0013449B0010330B
:1055C0007A6813440433FB60FB6801225A700FE0D1
:1055D000FB7803F00F021346DB0013449B0003F536
:1055E00014737A6813440433FB60FB6800225A701A
:1055F000FB7803F00F03DAB2FB681A703B88C3F341
:105600000A02FB689A60FB68BA781A71FB685B78DB
:10561000002B04D0FB681B781A46FB685A83BB78C2
:10562000022B02D1FB6800225A717B6893F89434F4
:10563000012B01D102230EE07B68012283F8942420
:105640007B681B68F968184602F096FB7B680022AD
:1056500083F89424FB7A18461037BD4680BD80B588
:1056600084B000AF78600B46FB7097F90330002BD5
:105670000FDAFB7803F00F021346DB0013449B00A4
:1056800010337A6813440433FB60FB6801225A70BC
:105690000FE0FB7803F00F021346DB0013449B007E
:1056A00003F514737A6813440433FB60FB6800222B
:1056B0005A70FB7803F00F03DAB2FB681A707B684C
:1056C00093F89434012B01D102230EE07B68012270
:1056D00083F894247B681B68F968184602F0D4FBB1
:1056E0007B68002283F89424002318461037BD46B7
:1056F00080BD80B586B000AFF8607A603B600B4635
:10570000FB72FB7A03F00F021346DB0013449B008D
:1057100003F51473FA68134404337B617B697A6878
:10572000DA607B693A681A617B6900225A617B6999
:1057300000225A70FB7A03F00F03DAB27B691A7009
:10574000FB689B79012B02D17A687B69DA61FB687F
:105750001868FB689B791A46796902F071FC00238E
:1057600018461837BD4680BD80B483B000AF78605E
:105770000B46FB70FB7803F00F0279681346DB00E1
:1057800013449B000B4403F51A731B6818460C372F
:10579000BD465DF8047B704780B586B000AFF86009
:1057A0007A603B600B46FB72FB7A03F00F021346F4
:1057B000DB0013449B001033FA68134404337B610D
:1057C0007B697A68DA607B693A681A617B690022D2
:1057D0005A617B6901225A70FB7A03F00F03DAB237
:1057E0007B691A70FB689B79012B02D17A687B690F
:1057F000DA61FB681868FB689B791A46796902F0E0
:105800001FFC002318461837BD4680BD80B584B004
:1058100000AF78600B46FB70FB7803F00F037A68EB
:105820001279934201D901234FE097F90330002BFD
:105830000FDAFB7803F00F021346DB0013449B00E2
:1058400010337A6813440433FB60FB6801225A70FA
:105850000DE0FA781346DB0013449B0003F5147344
:105860007A6813440433FB60FB6800225A70FB68BB
:1058700001229A70FB7803F00F03DAB2FB681A700A
:105880007B6893F89434012B01D102231DE07B68DF
:10589000012283F894247B681B68F968184602F09B
:1058A000ADFFFB7803F00F03002B09D17B6818686C
:1058B0007B6899797B6803F29C431A4603F09EF952
:1058C0007B68002283F89424002318461037BD46D5
:1058D00080BD80B584B000AF78600B46FB70FB786C
:1058E00003F00F037A681279934201D9012342E051
:1058F00097F90330002B0FDAFB7803F00F02134601
:10590000DB0013449B0010337A6813440433FB60BC
:10591000FB6801225A700FE0FB7803F00F02134678
:10592000DB0013449B0003F514737A6813440433BB
:10593000FB60FB6800225A70FB6800229A70FB78BB
:1059400003F00F03DAB2FB681A707B6893F89434A3
:10595000012B01D102230EE07B68012283F89424FD
:105960007B681B68F968184602F0B6FF7B68002266
:1059700083F89424002318461037BD4680BD80B5B7
:1059800084B000AF78600B46FB7097F90330002BB2
:105990000CDAFB7803F00F021346DB0013449B0084
:1059A00010337A6813440433FB600CE0FB7803F097
:1059B0000F021346DB0013449B0003F514737A684F
:1059C00013440433FB607B681B68F968184602F0D7
:1059D000D5FD0346FB72FB7A18461037BD4680BDE5
:1059E00080B58AB002AF786039607B681B687B61E4
:1059F0007B693B613A681346DB0013449B0010331C
:105A00007A6813440433FB60FB685A69FB681B69BE
:105A10009A4201D901236BE0FB681A69FB685B6954
:105A2000D31AFB61FB689B68FA699A4202D9FB684A
:105A30009B68FB61FB6903339B08BB612AE0FB6841
:105A40001A69FB685B69D31AFB61FB689B68FA699A
:105A50009A4202D9FB689B68FB61FB6903339B0890
:105A6000BB61FB68D9683B68DAB2FB6998B27B68B6
:105A70009B7900930346786902F02AFEFB68DA6896
:105A8000FB691A44FB68DA60FB685A69FB691A44CF
:105A9000FB685A613B685A013B69134403F5106384
:105AA0009B699BB2BA699A4209D8FB685A69FB683C
:105AB0001B699A4203D2FB681B69002BBFD1FB68AC
:105AC0001A69FB685B699A4211D83B6803F00F03BF
:105AD000012202FA03F3BB603B6903F500635A6BD2
