:020000040800F2
:1000000000000220952E0008F12B0008F92B0008B3
:10001000012C0008092C0008112C00080000000029
:10002000000000000000000000000000192C000883
:10003000272C000800000000352C0008432C000885
:10004000E52E0008E52E0008E52E0008E52E000844
:10005000E52E0008E52E0008E52E0008E52E000834
:100060004F2C00085D2C0008E52E0008E52E000846
:10007000E52E0008E52E0008E52E0008E52E000814
:10008000E52E0008E52E0008E52E0008E52E000804
:10009000E52E0008E52E0008E52E0008E52E0008F4
:1000A000E52E0008E52E0008E52E0008E52E0008E4
:1000B0006D2C0008812C0008E52E0008E52E0008B4
:1000C000E52E0008E52E0008E52E0008952C000816
:1000D000E52E0008E52E0008E52E0008E52E0008B4
:1000E000E52E0008E52E0008E52E0008E52E0008A4
:1000F000E52E0008E52E0008E52E0008E52E000894
:10010000E52E0008E52E0008E52E0008E52E000883
:10011000E52E0008E52E0008E52E0008E52E000873
:10012000A92C0008E52E0008E52E0008BD2C0008CB
:10013000E52E00080000000000000000E52E000889
:10014000E52E0008E52E0008E52E0008D12C000859
:10015000E52E0008E52E0008E52E0008E52E000833
:10016000E52E0008E52E0008E52E0008E52E000823
:10017000E52E0008E52E0008000000000000000049
:08018000E52E0008E52E000841
:1001900010B5054C237833B9044B13B10448AFF3C1
:1001A00000800123237010BDF80200200000000031
:1001B00008F9000808B5034B1BB103490348AFF326
:1001C000008008BD00000000FC02002008F90008C3
:1001D00001F0FF01102A2BDB10F0070F08D010F8F8
:1001E000013B013A8B422DD010F0070F42B3F6D1FC
:1001F000F0B441EA012141EA014122F007047FF015
:1002000000070023F0E80256083C85EA010586EA6B
:10021000010685FA47F5A3FA87F586FA47F6A5FAA7
:1002200087F68EB9EED1F0BC01F0FF0102F00702B3
:1002300032B110F8013B013A83EA010313B1F8D15E
:100240000020704701387047002D06BF354603383F
:10025000073815F0010F07D1013015F4807F02BF78
:10026000013015F4C03F0130F0BC0138704700BFC9
:10027000034613F8012B002AFBD1181A01387047E6
:1002800081F0004102E000BF83F0004330B54FEA47
:1002900041044FEA430594EA050F08BF90EA020FB4
:1002A0001FBF54EA000C55EA020C7FEA645C7FEA47
:1002B000655C00F0E2804FEA5454D4EB5555B8BF6A
:1002C0006D420CDD2C4480EA020281EA030382EADB
:1002D000000083EA010180EA020281EA0303362D6D
:1002E00088BF30BD11F0004F4FEA01314FF4801C40
:1002F0004CEA113102D0404261EB410113F0004F52
:100300004FEA03334CEA133302D0524263EB430308
:1003100094EA050F00F0A780A4F10104D5F1200EA6
:100320000DDB02FA0EFC22FA05F2801841F1000101
:1003300003FA0EF2801843FA05F359410EE0A5F1D5
:1003400020050EF1200E012A03FA0EFC28BF4CF006
:10035000020C43FA05F3C01851EBE37101F00045BC
:1003600007D54FF0000EDCF1000C7EEB00006EEBC9
:100370000101B1F5801F1BD3B1F5001F0CD3490853
:100380005FEA30004FEA3C0C04F101044FEA4452AA
:1003900012F5800F80F09A80BCF1004F08BF5FEA31
:1003A000500C50F1000041EB045141EA050130BD11
:1003B0005FEA4C0C404141EB0101013C28BFB1F523
:1003C000801FE9D291F0000F04BF01460020B1FA6E
:1003D00081F308BF2033A3F10B03B3F120020CDA41
:1003E0000C3208DD02F1140CC2F10C0201FA0CF01F
:1003F00021FA02F10CE002F11402D8BFC2F1200C84
:1004000001FA02F120FA0CFCDCBF41EA0C01904039
:10041000E41AA2BF01EB0451294330BD6FEA040482
:100420001F3C1CDA0C340EDC04F11404C4F120026D
:1004300020FA04F001FA02F340EA030021FA04F37F
:1004400045EA030130BDC4F10C04C4F1200220FAD6
:1004500002F001FA04F340EA0300294630BD21FA14
:1004600004F0294630BD94F0000F83F4801306BFDA
:1004700081F480110134013D4EE77FEA645C18BFCE
:100480007FEA655C29D094EA050F08BF90EA020F65
:1004900005D054EA000C04BF1946104630BD91EA5D
:1004A000030F1EBF0021002030BD5FEA545C05D160
:1004B0004000494128BF41F0004130BD14F580049F
:1004C0003CBF01F5801130BD01F0004545F0FE4113
:1004D00041F470014FF0000030BD7FEA645C1ABF48
:1004E000194610467FEA655C1CBF0B46024650EA7F
:1004F000013406BF52EA033591EA030F41F40021AB
:1005000030BD00BF90F0000F04BF0021704730B530
:100510004FF4806404F132044FF000054FF0000105
:1005200050E700BF90F0000F04BF0021704730B5C6
:100530004FF4806404F1320410F0004548BF40429B
:100540004FF000013EE700BF42004FEAE2014FEAF0
:1005500031014FEA02701FBF12F07F4393F07F4FCB
:1005600081F06051704732F07F4208BF704793F0CE
:100570007F4F04BF41F40021704730B54FF46074E1
:1005800001F0004521F000411CE700BF50EA0102E4
:1005900008BF704730B54FF000050AE050EA01028D
:1005A00008BF704730B511F0004502D5404261EBFD
:1005B00041014FF4806404F132045FEA915C3FF43E
:1005C000D8AE4FF003025FEADC0C18BF03325FEADB
:1005D000DC0C18BF033202EBDC02C2F1200300FA8C
:1005E00003FC20FA02F001FA03FE40EA0E0021FAB1
:1005F00002F11444BDE600BF70B54FF0FF0C4CF49F
:10060000E06C1CEA11541DBF1CEA135594EA0C0F50
:1006100095EA0C0F00F0DEF82C4481EA030621EA8B
:100620004C5123EA4C5350EA013518BF52EA0335C6
:1006300041F4801143F4801338D0A0FB02CE4FF078
:100640000005E1FB02E506F00042E0FB03E54FF0A8
:100650000006E1FB03569CF0000F18BF4EF0010EA0
:10066000A4F1FF04B6F5007F64F5407404D25FEA9C
:100670004E0E6D4146EB060642EAC62141EA55514F
:100680004FEAC52040EA5E504FEACE2EB4F1FD0C91
:1006900088BFBCF5E06F1ED8BEF1004F08BF5FEA0F
:1006A000500E50F1000041EB045170BD06F00046C1
:1006B00046EA010140EA020081EA0301B4EB5C046E
:1006C000C2BFD4EB0C0541EA045170BD41F4801166
:1006D0004FF0000E013C00F3AB8014F1360FDEBF8B
:1006E000002001F0004170BDC4F10004203C35DA67
:1006F0000C341BDC04F11404C4F1200500FA05F3EA
:1007000020FA04F001FA05F240EA020001F000428A
:1007100021F0004110EBD37021FA04F642EB060100
:100720005EEA430E08BF20EAD37070BDC4F10C042A
:10073000C4F1200500FA04F320FA05F001FA04F2EE
:1007400040EA020001F0004110EBD37041F10001DA
:100750005EEA430E08BF20EAD37070BDC4F12005E5
:1007600000FA05F24EEA020E20FA04F301FA05F24D
:1007700043EA020321FA04F001F0004121FA04F2F5
:1007800020EA020000EBD3705EEA430E08BF20EAC5
:10079000D37070BD94F0000F0FD101F000464000FF
:1007A00041EB010111F4801F08BF013CF7D041EA81
:1007B000060195F0000F18BF704703F00046520085
:1007C00043EB030313F4801F08BF013DF7D043EA56
:1007D0000603704794EA0C0F0CEA135518BF95EA0C
:1007E0000C0F0CD050EA410618BF52EA4306D1D193
:1007F00081EA030101F000414FF0000070BD50EAB2
:10080000410606BF1046194652EA430619D094EA3B
:100810000C0F02D150EA013613D195EA0C0F05D125
:1008200052EA03361CBF104619460AD181EA030179
:1008300001F0004141F0FE4141F470014FF0000031
:1008400070BD41F0FE4141F4780170BD70B54FF0CC
:10085000FF0C4CF4E06C1CEA11541DBF1CEA13554C
:1008600094EA0C0F95EA0C0F00F0A7F8A4EB05042E
:1008700081EA030E52EA03354FEA013100F0888025
:100880004FEA03334FF0805545EA131343EA1263EE
:100890004FEA022245EA111545EA10654FEA0026A3
:1008A0000EF000419D4208BF964244F1FD0404F55C
:1008B000407402D25B084FEA3202B61A65EB0305B8
:1008C0005B084FEA32024FF480104FF4002CB6EB75
:1008D000020E75EB030E22BFB61A754640EA0C00F5
:1008E0005B084FEA3202B6EB020E75EB030E22BF35
:1008F000B61A754640EA5C005B084FEA3202B6EB76
:10090000020E75EB030E22BFB61A754640EA9C0034
:100910005B084FEA3202B6EB020E75EB030E22BF04
:10092000B61A754640EADC0055EA060E18D04FEAC2
:10093000051545EA16754FEA06164FEAC30343EA62
:1009400052734FEAC2025FEA1C1CC0D111F4801F2F
:100950000BD141EA00014FF000004FF0004CB6E728
:1009600011F4801F04BF01430020B4F1FD0C88BFC7
:10097000BCF5E06F3FF6AFAEB5EB030C04BFB6EBD2
:10098000020C5FEA500C50F1000041EB045170BDC5
:100990000EF0004E4EEA113114EB5C04C2BFD4EBF2
:1009A0000C0541EA045170BD41F480114FF0000E76
:1009B000013C90E645EA060E8DE60CEA135594EAF2
:1009C0000C0F08BF95EA0C0F3FF43BAF94EA0C0FF5
:1009D0000AD150EA01347FF434AF95EA0C0F7FF46A
:1009E00025AF104619462CE795EA0C0F06D152EABE
:1009F00003353FF4FDAE1046194622E750EA4106A2
:100A000018BF52EA43067FF4C5AE50EA41047FF4B2
:100A10000DAF52EA43057FF4EBAE12E74FF0FF3C17
:100A200006E000BF4FF0010C02E000BF4FF0010CE8
:100A30004DF804CD4FEA410C7FEA6C5C4FEA430C61
:100A400018BF7FEA6C5C1BD001B050EA410C0CBFB0
:100A500052EA430C91EA030F02BF90EA020F002012
:100A6000704710F1000F91EA030F58BF994208BF79
:100A700090422CBFD8176FEAE37040F00100704736
:100A80004FEA410C7FEA6C5C02D150EA013C07D18D
:100A90004FEA430C7FEA6C5CD6D152EA033CD3D0D8
:100AA0005DF8040B704700BF8446104662468C46D2
:100AB0001946634600E000BF01B5FFF7B7FF002805
:100AC00048BF10F1000F01BD4DF808EDFFF7F4FF2E
:100AD0000CBF012000205DF808FB00BF4DF808EDB9
:100AE000FFF7EAFF34BF012000205DF808FB00BFDC
:100AF0004DF808EDFFF7E0FF94BF012000205DF8FE
:100B000008FB00BF4DF808EDFFF7CEFF94BF0120B2
:100B100000205DF808FB00BF4DF808EDFFF7C4FFAB
:100B200034BF012000205DF808FB00BF4FEA410CF4
:100B30007FEA6C5C02D150EA013C0AD14FEA430CD7
:100B40007FEA6C5C02D152EA033C02D14FF0000014
:100B500070474FF0010070474FEA410212F5001252
:100B600015D211D56FF47873B3EB625212D94FEAF4
:100B7000C12343F0004343EA505311F0004F23FADE
:100B800002F018BF404270474FF00000704750EA33
:100B9000013005D111F0004008BF6FF000407047F0
:100BA0004FF00000704700BF4FEA4102B2F1E0434E
:100BB00024BFB3F5001CDCF1FE5C0DD901F0004C44
:100BC0004FEAC0024CEA5070B2F1004F40EB830094
:100BD00008BF20F00100704711F0804F21D113F1C0
:100BE0003872BCBF01F00040704741F480114FEAF9
:100BF0005252C2F11802C2F1200C10FA0CF320FA82
:100C000002F018BF40F001004FEAC1234FEAD3239E
:100C100003FA0CFC40EA0C0023FA02F34FEA430308
:100C2000CCE77FEA625307D150EA01331EBF4FF091
:100C3000FE4040F44000704701F0004040F0FE40AC
:100C400040F40000704700BF53B94AB9002908BFFB
:100C500000281CBF4FF0FF314FF0FF3000F06AB9A1
:100C6000ADF1080C6DE904CE00F006F8DDF804E003
:100C7000DDE9022304B070472DE9F047089D0C46DA
:100C8000002B4ED194468C458646B2FA82F262D948
:100C90004AB1C2F12003914020FA03F30CFA02FC9E
:100CA000194300FA02FE4FEA1C471FFA8CF6B1FB0B
:100CB000F7F44FEA1E4307FB141143EA014304FB18
:100CC00006F199420AD91CEB030304F1FF3080F0CE
:100CD0001281994240F20F81023C6344591A1FFA73
:100CE0008EF3B1FBF7F007FB101143EA014300FB61
:100CF00006F69E420AD91CEB030300F1FF3180F097
:100D0000FC809E4240F2F980634402389B1B40EA1B
:100D1000044000211DB1D3400022C5E90032BDE8E6
:100D2000F0878B4205D90DB1C5E9000100210846C5
:100D3000F5E7B3FA83F1002946D1A34202D39042EA
:100D4000C0F0F080861A64EB03030120002DE6D08A
:100D5000C5E90063E3E7002A40F09080A1EB0C04B2
:100D60004FEA1C481FFA8CF70121B4FBF8F64FEA52
:100D70001E4308FB164443EA044307FB06F098426F
:100D800008D91CEB030306F1FF3402D2984200F2AB
:100D9000CD8026461C1A1FFA8EF3B4FBF8F008FB30
:100DA000104443EA044300FB07F79F4208D91CEBB9
:100DB000030300F1FF3402D29F4200F2B0802046CC
:100DC000DB1B40EA0640A5E7C1F120068B4022FA72
:100DD00006F71F4320FA06FC04FA01F343EA0C036A
:100DE000F44000FA01F8380C4FEA1349B4FBF0FE66
:100DF0001FFA87FC00FB1E4449EA04440EFB0CF971
:100E0000A14502FA01F20AD93C190EF1FF3A80F02D
:100E10008480A14540F28180AEF1020E3C44A4EBF7
:100E200009041FFA83F9B4FBF0F300FB134449EA09
:100E3000044403FB0CFCA44507D93C1903F1FF3023
:100E400067D2A44565D9023B3C4443EA0E40A0FB6F
:100E50000293A4EB0C049C42CE469C4651D34ED048
:100E600055B1B8EB0E0364EB0C0404FA06F6CB4064
:100E70001E43CC40C5E90064002150E7C2F12003C5
:100E800020FA03F10CFA02FC24FA03F394400C4319
:100E90004FEA1C4800FA02FE1FFA8CF7B3FBF8F089
:100EA00008FB1031230C43EA014300FB07F1994290
:100EB00008D91CEB030300F1FF362CD299422AD942
:100EC000023863445B1AA4B2B3FBF8F108FB113398
:100ED00044EA034401FB07F3A34208D91CEB0404D2
:100EE00001F1FF3613D2A34211D902396444E41A46
:100EF00041EA004139E70446F0E6084606E7C845FE
:100F0000AED2B9EB020E63EB070C0138A8E731460D
:100F1000EDE7034699E73046D4E7D6467FE76344DA
:100F200002384DE70646234608460FE7023E634473
:100F300030E700BF704700BF80B586B000AFF860F3
:100F4000B9607A607B80FB68BA681A60FB687A686F
:100F50005A60FB687A889A81FB683A6A9A60FB68F3
:100F6000BA8CDA81FB6800221A74FB6800225A747A
:100F70000023FB75FB685868FB689B8900221946B3
:100F800002F088FE012002F021F8FB685868FB6837
:100F90009B890122194602F07DFE322002F016F8EC
:100FA000B6227E21F86800F059F903461A46FB7D07
:100FB0001344FB75322002F009F807F116031A46B4
:100FC0000021F86800F0D0F803461A46FB7D134470
:100FD000FB750A2001F0FAFF09224021F86800F0B1
:100FE0003DF903461A46FB7D1344FB750A2001F0C8
:100FF000EDFF01224121F86800F030F903461A465E
:10100000FB7D1344FB750A2001F0E0FF0A22532107
:10101000F86800F023F903461A46FB7D1344FB757C
:101020000A2001F0D3FF04225821F86800F016F9D5
:1010300003461A46FB7D1344FB750A2001F0C6FFE8
:1010400000227C21F86800F009F903461A46FB7D6E
:101050001344FB750A2001F0B9FF04227D21F868D2
:1010600000F0FCF803461A46FB7D1344FB750A208A
:1010700001F0ACFFFB683A4A1A63FB6892229A744B
:10108000FB689868FB68DB890122194602F002FEC2
:10109000B6221421F86800F01BF903461A46FB7DBE
:1010A0001344FB75FA2001F091FF07F116031A466D
:1010B0000021F86800F096F803461A46FB7D1344B9
:1010C000FB750A2001F082FF01220F21F86800F071
:1010D000FFF803461A46FB7D1344FB750A2001F016
:1010E00075FF06221021F86800F0F2F803461A4650
:1010F000FB7D1344FB750A2001F068FF8022152157
:10110000F86800F0E5F803461A46FB7D1344FB75CA
:101110000A2001F05BFF01221621F86800F0D8F8E0
:1011200003461A46FB7D1344FB750A2001F04EFF6F
:1011300001221821F86800F0CBF803461A46FB7D1F
:101140001344FB750A2001F041FFFB68054A5A630E
:10115000FB6882229A76FB7D18461837BD4680BD13
:10116000A4706B3A58A00B3A80B588B002AFF86013
:101170000B467A60FB72FB7A63F07F03DBB23B7550
:1011800000237B750023BB75FB685868FB689B894F
:101190000022194602F07EFDFB68186807F1100274
:1011A00007F114014FF0FF330093032304F04BFECB
:1011B0000346002B0CBF01230023DBB2FB75FB6849
:1011C0005868FB689B890122194602F063FDFB7D8C
:1011D000012B02D1BA7C7B681A70FB7D1846183748
:1011E000BD4680BD80B588B002AFF8600B467A601E
:1011F000FB72FB7A63F07F03DBB23B7500237B75E8
:10120000FB689868FB68DB890022194602F042FD02
:10121000FB68186807F1100207F114014FF0FF3363
:101220000093022304F00FFE0346002B0CBF0123A2
:101230000023DBB2FB75FB689868FB68DB89012241
:10124000194602F027FDFB7D012B02D17A7C7B68D9
:101250001A70FB7D18461837BD4680BD80B584B036
:1012600000AF78600B46FB701346BB70FB783B7396
:10127000BB787B737B6858687B689B890022194622
:1012800002F008FD7B68186807F10C014FF0FF338E
:10129000022204F094FC0346002B0CBF0123002320
:1012A000DBB2FB7300BF7B681B68184605F08CF946
:1012B0000346012BF7D17B6858687B689B89012224
:1012C000194602F0E7FCFB7B18461037BD4680BD8F
:1012D00080B584B000AF78600B46FB701346BB70DE
:1012E000FB783B73BB787B737B6898687B68DB8992
:1012F0000022194602F0CEFC7B68186807F10C0149
:101300004FF0FF33022204F05AFC0346002B0CBFBF
:1013100001230023DBB2FB7300BF7B681B68184608
:1013200005F052F90346012BF7D17B6898687B687A
:10133000DB890122194602F0ADFCFB7B1846103711
:10134000BD4680BD80B582B000AF78607B681B7CF5
:10135000002B01D0002323E07B6858687B689B89C1
:101360000022194602F096FC7B6818687B6803F13E
:1013700012017B6803F12102082304F00DFF0346EC
:10138000002B04D17B6801221A74012308E07B68DA
:1013900058687B689B890122194602F07BFC002378
:1013A00018460837BD4680BD80B584B000AF786070
:1013B0007B6858687B689B890122194602F06AFCA9
:1013C0007B6800221A747B6893F82430DBB21B021E
:1013D0001AB27B6893F82330DBB21BB21343FB8154
:1013E0007B6893F82630DBB21B021AB27B6893F855
:1013F0002530DBB21BB21343BB817B6893F82830E6
:10140000DBB21B021AB27B6893F82730DBB21BB247
:1014100013437B817B6893ED0C7AB7F90E3007EEAE
:10142000903AF8EEE77A67EE277A7B68C3ED0E7A9A
:101430007B6893ED0C7AB7F90C3007EE903AF8EE32
:10144000E77A67EE277A7B68C3ED0F7A7B6893EDC6
:101450000C7AB7F90A3007EE903AF8EEE77A67EEC1
:10146000277A7B68C3ED107A00BF1037BD4680BD78
:1014700080B582B000AF78607B685B7C002B01D0C8
:10148000002323E07B6898687B68DB89002219468B
:1014900002F000FC7B6818687B6803F11A017B6826
:1014A00003F12902072304F077FE0346002B04D141
:1014B0007B6801225A74012308E07B6898687B6886
:1014C000DB890122194602F0E5FB002318460837A4
:1014D000BD4680BD80B584B000AF78607B689868F9
:1014E0007B68DB890122194602F0D4FB7B6800226D
:1014F0005A747B6893F82B30DBB21B021AB27B68FC
:1015000093F82A30DBB21BB21343FB817B6893F85C
:101510002D30DBB21B021AB27B6893F82C30DBB2A1
:101520001BB21343BB817B6893F82F30DBB21B02E5
:101530001AB27B6893F82E30DBB21BB213437B8167
:101540007B6893ED0D7AB7F90E3007EE903AF8EE1E
:10155000E77A67EE277A7B68C3ED117A7B6893EDB3
:101560000D7AB7F90C3007EE903AF8EEE77A67EEAD
:10157000277A7B68C3ED127A7B6893ED0D7AB7F911
:101580000A3007EE903AF8EEE77A67EE277A7B6842
:10159000C3ED137A00BF1037BD4680BD80B58AB059
:1015A00000AFF86087ED020AC7ED010A87ED001A67
:1015B000D7ED027A9FED627A67EE877AC7ED027AFD
:1015C000D7ED017A9FED5E7A67EE877AC7ED017AF3
:1015D000D7ED007A9FED5A7A67EE877AC7ED007AE9
:1015E000D7ED027AB6EE007A67EE877AB0EE670A38
:1015F0000CF0C8FD87ED090AD7ED027AB6EE007A45
:1016000067EE877AB0EE670A0CF008FE87ED080AED
:10161000D7ED017AB6EE007A67EE877AB0EE670A08
:101620000CF0B0FD87ED070AD7ED017AB6EE007A2F
:1016300067EE877AB0EE670A0CF0F0FD87ED060AD8
:10164000D7ED007AB6EE007A67EE877AB0EE670AD9
:101650000CF098FD87ED050AD7ED007AB6EE007A1A
:1016600067EE877AB0EE670A0CF0D8FD87ED040AC2
:1016700097ED097AD7ED077A27EE277AD7ED057A25
:1016800027EE277AD7ED086AD7ED067A66EEA76AC5
:10169000D7ED047A66EEA77A77EE277AFB68C3ED7A
:1016A000007A97ED087AD7ED077A27EE277AD7EDFB
:1016B000057A27EE277AD7ED096AD7ED067A66EE26
:1016C000A76AD7ED047A66EEA77A77EE677AFB68A9
:1016D000C3ED017A97ED097AD7ED067A27EE277ADE
:1016E000D7ED057A27EE277AD7ED086AD7ED077A86
:1016F00066EEA76AD7ED047A66EEA77A77EE277AC8
:10170000FB68C3ED027A97ED097AD7ED077A27EEE9
:10171000277AD7ED047A27EE277AD7ED086AD7ED36
:10172000067A66EEA76AD7ED057A66EEA77A77EEB7
:10173000677AFB68C3ED037A00BF2837BD4680BDDA
:1017400039FA8E3C80B584B000AF78607B6893ED49
:10175000007A7B68D3ED007A27EE277A7B68D3ED99
:10176000016A7B68D3ED017A66EEA77A37EE277AB5
:101770007B68D3ED026A7B68D3ED027A66EEA77AC6
:1017800037EE277A7B68D3ED036A7B68D3ED037A63
:1017900066EEA77A77EE277A17EE900AFEF7D4FE68
:1017A00002460B4643EC102B0CF082FC53EC102B42
:1017B00010461946FFF7F8F90346FB60D7ED037AA8
:1017C000F5EEC07AF1EE10FA00DC27E07B68D3ED8D
:1017D000006A97ED037AC6EE877A7B68C3ED007ADC
:1017E0007B68D3ED016A97ED037AC6EE877A7B6852
:1017F000C3ED017A7B68D3ED026A97ED037AC6EEFA
:10180000877A7B68C3ED027A7B68D3ED036A97ED34
:10181000037AC6EE877A7B68C3ED037A00BF103780
:10182000BD4680BD80B58EB000AF7861F0EE406AF5
:10183000B0EE607AF0EE417AC7ED011AC7ED026AA8
:1018400087ED037AC7ED047AD7ED027AB6EE007A17
:1018500067EE877A97ED017A67EE277AC7ED0D7A02
:10186000D7ED037AB6EE007A67EE877A97ED017AC4
:1018700067EE277AC7ED0C7AD7ED047AB6EE007AD8
:1018800067EE877A97ED017A67EE277AC7ED0B7AD4
:101890007B69D3ED017AB1EE677AD7ED0D7A27EE49
:1018A000277A7B69D3ED026AD7ED0C7A66EEA77AC8
:1018B00037EE677A7B69D3ED036AD7ED0B7A66EE74
:1018C000A77A77EE677AC7ED077A7B6993ED007A9E
:1018D000D7ED0D7A27EE277A7B69D3ED026AD7ED33
:1018E0000B7A66EEA77A37EE277A7B69D3ED036A27
:1018F000D7ED0C7A66EEA77A77EE677AC7ED087AAD
:101900007B6993ED007AD7ED0C7A27EE277A7B6915
:10191000D3ED016AD7ED0B7A66EEA77A37EE677AD8
:101920007B69D3ED036AD7ED0D7A66EEA77A77EE81
:10193000277AC7ED097A7B6993ED007AD7ED0B7AA8
:1019400027EE277A7B69D3ED016AD7ED0C7A66EE34
:10195000A77A37EE277A7B69D3ED026AD7ED0D7A45
:1019600066EEA77A77EE677AC7ED0A7A7B6993ED20
:10197000007AD7ED077A77EE277A7B69C3ED007A94
:101980007B6993ED017AD7ED087A77EE277A7B6948
:10199000C3ED017A7B6993ED027AD7ED097A77EE90
:1019A000277A7B69C3ED027A7B6993ED037AD7EDE1
:1019B0000A7A77EE277A7B69C3ED037A7869FFF7B5
:1019C000C1FE00BF3837BD4680BD000080B58CB079
:1019D00000AF7861F0EE406AB0EE607AF0EE417AE6
:1019E000C7ED011AC7ED026A87ED037AC7ED047AE5
:1019F0007B6993ED017A7B69D3ED037A27EE277A31
:101A00007B69D3ED006A7B69D3ED027A66EEA77A33
:101A100077EE677A77EEA77AC7ED097A7B6993ED5F
:101A2000007A7B69D3ED017A27EE277A7B69D3EDC3
:101A3000026A7B69D3ED037A66EEA77A77EE277A9E
:101A400077EEA77AC7ED0A7A7B6993ED007A7B6916
:101A5000D3ED007A27EE277A7B69D3ED016A7B69A3
:101A6000D3ED017A66EEA77A37EE677A7B69D3ED1C
:101A7000026A7B69D3ED027A66EEA77A37EE677A5F
:101A80007B69D3ED036A7B69D3ED037A66EEA77AAF
:101A900077EE277AC7ED0B7A97ED037AD7ED0B7ABD
:101AA00027EE277AD7ED046AD7ED0A7A66EEA77A91
:101AB00077EE677AC7ED067A97ED047AD7ED097A63
:101AC00027EE277AD7ED026AD7ED0B7A66EEA77A72
:101AD00077EE677AC7ED077A97ED027AD7ED0A7A43
:101AE00027EE277AD7ED036AD7ED097A66EEA77A53
:101AF00077EE677AC7ED087A1B4B4FF000021A6049
:101B00007B6993ED017AD7ED066A174BD3ED007A26
:101B100066EEA77A77EE277A7B69C3ED017A7B6957
:101B200093ED027AD7ED076A0F4BD3ED007A66EE9C
:101B3000A77A77EE277A7B69C3ED027A7B6993ED0A
:101B4000037AD7ED086A084BD3ED007A66EEA77AE0
:101B500077EE277A7B69C3ED037A7869FFF7F2FDA8
:101B600000BF3037BD4680BD1403002000000000D8
:101B7000B0B58CB000AFB0EE406AF0EE606AB0EE87
:101B8000417AF0EE617A786087ED026AC7ED036A08
:101B900087ED047AC7ED057A97ED027AD7ED037ADF
:101BA00027EE277AD7ED046AD7ED057A66EEA77A95
:101BB00077EE277A77EEA77AC7ED0B7A97ED037A5F
:101BC000D7ED037A27EE277AD7ED046AD7ED047AAA
:101BD00066EEA77A77EE277A77EEA77AB7EE007AE5
:101BE00077EE677AC7ED0A7AF86AFEF7ADFC04462D
:101BF0000D46B86AFEF7A8FC02460B4643EC112BD3
:101C000045EC104B0CF052FA51EC100B56A3D3E9F3
:101C10000023FEF7F1FC02460B4610461946FEF77C
:101C2000C3FF02467B681A6097ED027AD7ED047A0B
:101C300027EE277AD7ED056AD7ED037A66EEA77A05
:101C400077EE677A77EEA77AC7ED097AD7ED097A4A
:101C5000F0EEE77AB7EE007AF4EEC77AF1EE10FA1A
:101C600013DB786AFEF770FC02460B4643EC112B3F
:101C70009FED3B0B0AF099F951EC100B7B681C1D92
:101C8000FEF792FF0346236019E0786AFEF75CFCDA
:101C900002460B4643EC102B0CF0D4F951EC100B20
:101CA00031A3D3E90023FEF7A7FC02460B461046FA
:101CB00019467B681C1DFEF777FF0346236097EDEE
:101CC000027AD7ED057A27EE277AD7ED036AD7EDAA
:101CD000047A66EEA77A77EE277A77EEA77AC7EDD1
:101CE000087A97ED047AD7ED047A27EE277AD7EDB4
:101CF000056AD7ED057A66EEA77A77EE277A77EE52
:101D0000A77AB7EE007A77EE677AC7ED077A386A76
:101D1000FEF71AFC04460D46F869FEF715FC02466C
:101D20000B4643EC112B45EC104B0CF0BFF951EC7A
:101D3000100B0DA3D3E90023FEF75EFC02460B4611
:101D4000104619467B6803F10804FEF72DFF034691
:101D5000236000BF3037BD46B0BD00BFAFF3008089
:101D6000000000000080564000000020DCA54C4030
:101D700080B588B000AF786187ED040AC7ED030A2B
:101D800087ED021AC7ED011A87ED002A97ED001AB8
:101D9000D7ED030A97ED040A786900F0B7F897EDDC
:101DA000001AD7ED010A97ED020A786900F015F9DB
:101DB0000023FB6132E07A69FB6904339B00134422
:101DC0004FF000021A607A69FB6906339B001344E6
:101DD0004FF000021A607A69FB6908339B001344D4
:101DE0004FF000021A607A69FB690A339B001344C2
:101DF0004FF000021A607A69FB690C339B001344B0
:101E00004FF000021A607A69FB690E339B0013449D
:101E10004FF000021A60FB690133FB61FB69012B83
:101E2000C9DD0023BB6132E07A69BB6910339B00D6
:101E300013444FF000021A607A69BB6912339B00A9
:101E400013444FF000021A607A69BB6914339B0097
:101E500013444FF000021A607A69BB6916339B0085
:101E600013444FF000021A607A69BB6918339B0073
:101E700013444FF000021A607A69BB691A339B0061
:101E800013444FF000021A60BB690133BB61BB69A8
:101E9000012BC9DD00BF00BF2037BD4680BD00005B
:101EA00080B584B000AF87ED010AC7ED000A7868FD
:101EB000FEF74AFB13A3D3E90023FEF79DFB02467E
:101EC0000B464FF000000E49FEF7C0FC02460B46E1
:101ED00010461946FEF768FE0346FB6097ED037A4D
:101EE000D7ED007A77EE277A97ED007AC7EE276A6A
:101EF000F0EE667AB0EE670A1037BD4680BD00BFCF
:101F00000000F03F182D4454FB21194080B586B0E5
:101F100000AFF86087ED020AC7ED010A87ED001AED
:101F2000D7ED000A97ED020AFFF7BAFF87ED050A21
:101F3000D7ED000A97ED010AFFF7B2FF87ED040A1B
:101F4000D7ED040A97ED050AF86800F004F800BF21
:101F50001837BD4680BD80B485B000AFF86087ED0E
:101F6000020AC7ED010AD7ED027AB7EE007AF4EE65
:101F7000C77AF1EE10FA03DD4FF07E53BB6009E043
:101F8000D7ED027AF5EEC07AF1EE10FA02D54FF0F5
:101F90000003BB60D7ED017AB7EE007AF4EEC77AA2
:101FA000F1EE10FA03DD4FF07E537B6009E0D7EDD0
:101FB000017AF5EEC07AF1EE10FA02D54FF0000387
:101FC0007B60FB68BA681A60FB687A685A6000BF79
:101FD0001437BD465DF8047B704780B586B000AF0E
:101FE000F86087ED020AC7ED010A87ED001AD7ED08
:101FF000000A97ED020A00F015F887ED050AD7ED03
:10200000000A97ED010A00F00DF887ED040AD7EDFC
:10201000040A97ED050AF86800F026F800BF1837A3
:10202000BD4680BD80B582B000AF87ED010AC7ED27
:10203000000AD7ED017A9FED0B7A27EE877AD7ED6C
:10204000007A67EE277AB0EE670A0CF065F8F0EEDA
:10205000407AB7EE007A77EE677AB0EE670A083713
:10206000BD4680BDDB0FC9C080B485B000AFF8604D
:1020700087ED020AC7ED010AD7ED027AB7EE007AC2
:10208000F4EEC77AF1EE10FA03DD4FF07E53BB6039
:1020900009E0D7ED027AF5EEC07AF1EE10FA02D53A
:1020A0004FF00003BB60D7ED017AB7EE007AF4EE93
:1020B000C77AF1EE10FA03DD4FF07E537B6009E042
:1020C000D7ED017AF5EEC07AF1EE10FA02D54FF0B5
:1020D00000037B60FB68BA689A60FB687A68DA6024
:1020E00000BF1437BD465DF8047B704780B582B0F1
:1020F00000AF0346FB80FB88042B07D10A4B1B7CF7
:10210000002B0DD10848FFF71DF909E0FB88082BCB
:1021100006D1054B5B7C002B02D10348FFF7A8F9E1
:1021200000BF0837BD4680BDC004002080B582B026
:1021300000AF78607B681B680A4A93420DD10A4B56
:102140001B7C002B02D00848FFF72EF9064B5B7C66
:10215000002B02D00448FFF7BDF900BF0837BD4689
:1021600080BD00BF00300140C00400202DE9F04FC9
:10217000E1B014AF07F59873A3F58273186007F503
:102180009873A3F582731B681B68B3F1804F42D12B
:10219000694800F0E7F8694B93ED006A684BD3EDAE
:1021A000006A93ED017AD3ED027AF0EE461AB0EEB2
:1021B000660AF0EE470AB0EE671A6248FFF732FB94
:1021C000614BD3ED006A93ED017AD3ED027ADFED36
:1021D0005F1AB0EE660AF0EE470AB0EE671A594889
:1021E000FFF7F4FB574B93ED006AD3ED016A93EDD3
:1021F000027AD3ED037A5648B0EE460AF0EE660A4C
:10220000B0EE471AF0EE671AFFF7B2FC514B1B68AD
:102210000133504A136007F59873A3F582731B6866
:102220001B684D4A934240F081804A4B1B68013342
:10223000484A1360494B1B684FF47A7202FB03F360
:10224000BB62434B1B681846FEF77EF9C7E90801DD
:102250003F4B5B681846FEF777F9C7E906013C4B30
:102260009B681846FEF770F9C7E904013B4B1B68F1
:102270004FF47A7202FB03F6314B1B681846FEF7E7
:1022800063F9C7E902012E4B5B681846FEF75CF95B
:10229000C7E900012A4B9B681846FEF755F98246AC
:1022A0008B46294B1B681846FEF74EF98046894637
:1022B000254B5B681846FEF747F904460D46224B4E
:1022C0009B681846FEF740F902460B4607F13000BE
:1022D000CDE91223CDE91045CDE90E89CDE90CAB4E
:1022E00097ED007B8DED0A7B97ED027B8DED087BF2
:1022F000069697ED047B8DED047B97ED067B8DEDC7
:10230000027B97ED087B8DED007BBA6A144909F0DA
:102310005BFD07F130031846FDF7AAFF03469AB2AA
:1023200007F130031146184608F0D8FB00BF07F547
:102330009A77BD46BDE8F08FC004002080050020DC
:102340009805002000000020A40500206666663F76
:102350008405002090050020000400409405002022
:1023600020F9000880B582B000AF786000F022FE4E
:102370000346134A13607B68D3ED117AF1EE677A56
:10238000104BC3ED017A7B689B6C0E4A13607B682F
:10239000DB6C0C4A93607B68D3ED0E7AF1EE677AC2
:1023A000094BC3ED017A7B68DB6B074A13607B68DE
:1023B0001B6C054A936000BF0837BD4680BD00BF57
:1023C0009405002098050020A405002080B582B067
:1023D00000AF786000F0EEFD02460C4B1B68D31A8C
:1023E0007A689A4208D81021094801F06CFC00F084
:1023F000E1FD0346054A136000F0DCFD0346054A93
:10240000136000BF0837BD4680BD00BFB405002083
:1024100000040240B005002080B582B002AF00F099
:1024200063FD00F081F800F0FDF900F0D3F900F051
:10243000E5F800F019F908F093FA00F07DF90520AD
:1024400000F0B8FE00220021382000F0BEFE01227C
:1024500000213B2000F0B9FE00220121082000F0FD
:10246000B4FE01220121092000F0AFFE4FF47A7082
:1024700000F0ACFD102301931D4B009310231D4A67
:102480001D491E48FEF758FD9FED1D1ADFED1C0A81
:102490009FED1B0A1B48FFF781F81B4BD3ED007A19
:1024A0001A4B93ED007A1A4BD3ED006A194B93ED5A
:1024B000006A194BD3ED005AB0EE652AF0EE461AC9
:1024C000B0EE661AF0EE470AB0EE670A1348FFF75F
:1024D0004FFC4FF47A7000F079FD114804F000FBD6
:1024E000104804F0FDFA4FF4FA70FFF76FFFFAE7B7
:1024F000000802400000024018030020C004002031
:102500000000000000000020100000201400002047
:10251000180000201C00002080050020100500206D
:10252000300400207804002080B594B000AF07F19B
:10253000200330220021184609F0A9FC07F10C0302
:1025400000221A605A609A60DA601A610023BB6048
:10255000284B1B6C274A43F080531364254B1B6C9C
:1025600003F08053BB60BB6800237B60224B1B6879
:10257000214A43F4804313601F4B1B6803F48043DC
:102580007B607B6801233B624FF480337B620223D4
:10259000BB634FF48003FB6308233B64A8237B6485
:1025A0000223BB640723FB6407F12003184602F0F3
:1025B0000FFE0346002B01D000F0DAF90F23FB6079
:1025C00002233B6100237B614FF4A053BB614FF4B6
:1025D0008053FB6107F10C030521184603F070F8E6
:1025E0000346002B01D000F0C3F900BF5037BD46B1
:1025F00080BD00BF003802400070004080B500AFD1
:10260000174B184A1A60164B4FF482725A60144BDB
:1026100000229A60124B0022DA60114B00221A61EC
:102620000F4B00225A610E4B4FF400729A610C4B13
:102630001022DA610A4B00221A62094B00225A6208
:10264000074B00229A62064B0A22DA62044803F022
:102650002DFA0346002B01D000F08AF900BF80BD9F
:10266000180300200030014080B586B000AF07F1AC
:10267000080300221A605A609A60DA603B46002222
:102680001A605A60294B4FF080421A60274B29226A
:102690005A60264B00229A60244B42F20F72DA6095
:1026A000224B00221A61214B00229A611F4804F03C
:1026B000C7F90346002B01D000F05AF94FF48053BC
:1026C000BB6007F108031946184804F069FB03468C
:1026D000002B01D000F04CF900233B6000237B600D
:1026E0003B461946114804F091FD0346002B01D0EA
:1026F00000F03EF9DFED0E6A0C4BDB6801330B4A4C
:10270000526802FB03F3013307EE903AF8EE677A62
:1027100086EEA77AF7EE006AC6EE877A054BC3ED20
:10272000007A00BF1837BD4680BD00BF30040020CE
:10273000A037A04C8005002080B586B000AF07F11F
:10274000080300221A605A609A60DA603B46002251
:102750001A605A601D4B1E4A1A601C4B29225A608F
:102760001A4B00229A60194B42F20F72DA60174B33
:1027700000221A61154B00229A61144804F060F996
:102780000346002B01D000F0F3F84FF48053BB60F8
:1027900007F1080319460D4804F002FB0346002B1D
:1027A00001D000F0E5F800233B6000237B603B464E
:1027B0001946064804F02AFD0346002B01D000F01C
:1027C000D7F800BF1837BD4680BD00BF7804002091
:1027D0000004004080B582B000AF00237B60104B46
:1027E0001B6B0F4A43F4800313630D4B1B6B03F405
:1027F00080037B607B6800220021382000F0E5FC2C
:10280000382000F0FEFC012200213B2000F0DDFC1E
:102810003B2000F0F6FC00BF0837BD4680BD00BF7E
:102820000038024080B58AB000AF07F114030022DF
:102830001A605A609A60DA601A6100233B61484B63
:102840001B6B474A43F080031363454B1B6B03F03C
:1028500080033B613B690023FB60414B1B6B404A9B
:1028600043F0040313633E4B1B6B03F00403FB6054
:10287000FB680023BB603A4B1B6B394A43F00103F2
:102880001363374B1B6B03F00103BB60BB68002372
:102890007B60334B1B6B324A43F002031363304BB4
:1028A0001B6B03F002037B607B68002210212D4824
:1028B00001F0F0F9002210212B4801F0EBF9002281
:1028C00010212A4801F0E6F90C237B614FF48813AC
:1028D000BB610023FB6107F114031946224801F094
:1028E0003DF810237B610123BB610023FB610023C2
:1028F0003B6207F1140319461A4801F02FF8102320
:102900007B610123BB610023FB6100233B6207F174
:1029100014031946144801F021F810237B610123A8
:10292000BB610023FB6100233B6207F114031946DE
:102930000E4801F013F800220121082000F045FCA8
:10294000082000F05EFC01220121092000F03DFC7E
:10295000092000F056FC00BF2837BD4680BD00BFEF
:10296000003802400000024000080240000402401B
:1029700080B5A0B000AF3B460B49184609F024FAD9
:1029800000BF3B461846FDF773FC03469AB23B4630
:102990001146184608F0A2F80346022BF1D072B691
:1029A00000BF00BFFDE700BF68F9000880B483B036
:1029B00000AF00237B60104B5B6C0F4A43F48043F5
:1029C00053640D4B5B6C03F480437B607B68002396
:1029D0003B60094B1B6C084A43F080531364064B61
:1029E0001B6C03F080533B603B6800BF0C37BD4657
:1029F0005DF8047B704700BF0038024080B58AB0A4
:102A000000AF786007F1140300221A605A609A60E0
:102A1000DA601A617B681B684C4A934240F09280EE
:102A200000233B614A4B5B6C494A43F48053536437
:102A3000474B5B6C03F480533B613B690023FB60B5
:102A4000434B1B6B424A43F001031363404B1B6B28
:102A500003F00103FB60FB68E0237B610223BB61A1
:102A60000023FB6103233B6205237B6207F1140310
:102A70001946384800F072FF374B384A1A60364B17
:102A80004FF0C0625A60344B00229A60324B0022F1
:102A9000DA60314B4FF480621A612F4B00225A6189
:102AA0002D4B00229A612C4B0022DA612A4B4FF405
:102AB00040321A62284B00225A62274800F0BCFBC1
:102AC0000346002B01D0FFF753FF7B68224ADA64EC
:102AD000214A7B689363224B224A1A60204B4FF0B5
:102AE000C0625A601E4B40229A601D4B0022DA6081
:102AF0001B4B4FF480621A61194B00225A61184B2C
:102B000000229A61164B0022DA61154B4FF44032D5
:102B10001A62134B00225A62114800F08DFB0346E3
:102B2000002B01D0FFF724FF7B680D4A9A640C4A02
:102B30007B68936300220021232000F046FB2320C2
:102B400000F05FFB00BF2837BD4680BD003001406C
:102B50000038024000000240700300201064024070
:102B6000D00300205864024080B584B000AF786084
:102B70007B681B68B3F1804F16D10023FB601A4BB2
:102B80001B6C194A43F001031364174B1B6C03F0D1
:102B90000103FB60FB68002200211C2000F015FBF4
:102BA0001C2000F02EFB1AE07B681B680F4A934242
:102BB00015D10023BB600C4B1B6C0B4A43F0020386
:102BC0001364094B1B6C03F00203BB60BB6800225B
:102BD00000211D2000F0F9FA1D2000F012FB00BFBB
:102BE0001037BD4680BD00BF0038024000040040E1
:102BF00080B400AF00BFFDE780B400AF00BFFDE7C9
:102C000080B400AF00BFFDE780B400AF00BFFDE7B8
:102C100080B400AF00BFFDE780B400AF00BFBD4689
:102C20005DF8047B704780B400AF00BFBD465DF81F
:102C3000047B704780B400AF00BFBD465DF8047BE5
:102C4000704780B500AF00F0A1F900BF80BD80B52E
:102C500000AF042001F052F800BF80BD80B500AF86
:102C6000082001F04BF800BF80BD000080B500AF28
:102C7000024803F0A5FF00BF80BD00BF3004002064
:102C800080B500AF024803F09BFF00BF80BD00BFCE
:102C90007804002080B500AF024803F079FB00BF44
:102CA00080BD00BF1803002080B500AF024800F0CF
:102CB000EBFB00BF80BD00BF7003002080B500AFFC
:102CC000024800F0E1FB00BF80BD00BFD003002040
:102CD00080B500AF024801F06DF900BF80BD00BFB4
:102CE000A01A002080B400AF01231846BD465DF84D
:102CF000047B704780B582B000AF7860396009F01E
:102D000019F9034616221A604FF0FF3318460837A8
:102D1000BD4680BD80B582B000AF78604FF0FF3116
:102D20007868FFF7E7FF00BFFDE780B586B000AF2A
:102D3000F860B9607A6000237B610AE0AFF300803D
:102D40000146BB685A1CBA60CAB21A707B6901336B
:102D50007B617A697B689A42F0DB7B68184618379A
:102D6000BD4680BD80B586B000AFF860B9607A60BE
:102D700000237B6109E0BB685A1CBA601B781846C7
:102D8000AFF300807B6901337B617A697B689A428B
:102D9000F1DB7B6818461837BD4680BD80B483B030
:102DA00000AF78604FF0FF3318460C37BD465DF832
:102DB000047B704780B483B000AF786039603B68B3
:102DC0004FF400525A60002318460C37BD465DF898
:102DD000047B704780B483B000AF7860012318464D
:102DE0000C37BD465DF8047B704780B485B000AFFA
:102DF000F860B9607A60002318461437BD465DF864
:102E0000047B704780B586B000AF7860144A154BDC
:102E1000D31A7B617B693B61134B1B68002B02D18A
:102E2000114B124A1A60104B1A687B6813443A69B6
:102E30009A4207D209F07EF803460C221A604FF03E
:102E4000FF3309E0084B1B68FB60074B1A687B687F
:102E50001344054A1360FB6818461837BD4680BD09
:102E60000000022000040000B8050020F02200202D
:102E700080B400AF064BD3F88830054A43F47003A2
:102E8000C2F8883000BFBD465DF8047B704700BFC4
:102E900000ED00E0DFF834D0FFF7EAFF0C480D4901
:102EA0000D4A002302E0D458C4500433C4188C42A5
:102EB000F9D30A4A0A4C002301E013600432A2420B
:102EC000FBD309F03DF8FFF7A7FA70470000022096
:102ED00000000020F8020020B0010108F8020020E4
:102EE000F0220020FEE7000080B500AF0E4B1B680B
:102EF0000D4A43F4007313600B4B1B680A4A43F4FA
:102F000080631360084B1B68074A43F480731360A7
:102F1000032000F04FF90F2000F008F8FFF746FDFE
:102F20000023184680BD00BF003C024080B582B03F
:102F300000AF7860124B1A68124B1B7819464FF499
:102F40007A73B3FBF1F3B2FBF3F3184600F067F9C1
:102F50000346002B01D001230EE07B680F2B0AD81B
:102F6000002279684FF0FF3000F02FF9064A7B68A5
:102F70001360002300E0012318460837BD4680BDDA
:102F800020000020280000202400002080B400AF92
:102F9000064B1B781A46064B1B681344044A136001
:102FA00000BFBD465DF8047B704700BF28000020CD
:102FB000BC05002080B400AF034B1B681846BD461B
:102FC0005DF8047B704700BFBC05002080B584B06D
:102FD00000AF7860FFF7EEFFB8607B68FB60FB68CE
:102FE000B3F1FF3F05D00A4B1B781A46FB68134428
:102FF000FB6000BFFFF7DEFF0246BB68D31AFA682A
:103000009A42F7D800BF00BF1037BD4680BD00BF51
:103010002800002080B485B000AF78607B6803F0A2
:103020000703FB600C4BDB68BB60BA684FF6FF031D
:103030001340BB60FB681A02BB68134343F0BF63D5
:1030400043F40033BB60044ABB68D36000BF14374D
:10305000BD465DF8047B704700ED00E080B400AF32
:10306000044BDB681B0A03F007031846BD465DF8F6
:10307000047B704700ED00E080B483B000AF0346EE
:10308000FB7197F90730002B0BDBFB7903F01F0274
:10309000074997F907305B09012000FA02F241F86D
:1030A000232000BF0C37BD465DF8047B704700BF8E
:1030B00000E100E080B483B000AF03463960FB71EB
:1030C00097F90730002B0ADB3B68DAB20C4997F915
:1030D00007301201D2B20B4483F800230AE03B68A8
:1030E000DAB20849FB7903F00F03043B1201D2B2B4
:1030F0000B441A7600BF0C37BD465DF8047B704761
:1031000000E100E000ED00E080B489B000AFF860BD
:10311000B9607A60FB6803F00703FB61FB69C3F1E8
:103120000703042B28BF0423BB61FB690433062B70
:1031300002D9FB69033B00E000237B614FF0FF32C3
:10314000BB6902FA03F3DA43BB681A407B699A4011
:103150004FF0FF317B6901FA03F3D9437B680B40E1
:10316000134318462437BD465DF8047B70470000C2
:1031700080B582B000AF78607B68013BB3F1807F9F
:1031800001D301230FE00A4A7B68013B53600F2102
:103190004FF0FF30FFF78EFF054B00229A60044B83
:1031A00007221A60002318460837BD4680BD00BFBD
:1031B00010E000E080B582B000AF78607868FFF77B
:1031C00029FF00BF0837BD4680BD80B586B000AF7F
:1031D0000346B9607A60FB7300237B61FFF73EFF13
:1031E00078617A68B9687869FFF78EFF024697F9C7
:1031F0000F3011461846FFF75DFF00BF1837BD4678
:1032000080BD80B582B000AF0346FB7197F90730EF
:103210001846FFF731FF00BF0837BD4680BD80B5B7
:1032200082B000AF78607868FFF7A2FF03461846C7
:103230000837BD4680BD000080B586B000AF78601D
:1032400000237B61FFF7B6FE38617B68002B01D15C
:10325000012399E07B68022283F835207B680022F5
:1032600083F834207B681B681A687B681B6822F02F
:1032700001021A600FE0FFF79DFE02463B69D31A78
:10328000052B08D97B6820225A657B68032283F8C6
:103290003520032378E07B681B681B6803F001037B
:1032A000002BE8D17B681B681B687B617A69384B0F
:1032B00013407B617B685A687B689B681A437B6814
:1032C000DB681A437B681B691A437B685B691A4396
:1032D0007B689B691A437B68DB691A437B681B6ABE
:1032E00013437A6913437B617B685B6A042B07D1C4
:1032F0007B68DA6A7B681B6B13437A6913437B61D3
:103300007B681B687A691A607B681B685B697B61F4
:103310007B6923F007037B617B685B6A7A691343EF
:103320007B617B685B6A042B17D17B689B6A7A6937
:1033300013437B617B68DB6A002B0ED0786800F05A
:1033400091FA0346002B08D07B6840225A657B68BF
:10335000012283F83520012316E07B681B687A6917
:103360005A61786800F048FA0346FB607B68DB6DC1
:103370003F229A40FB689A607B6800225A657B680E
:10338000012283F83520002318461837BD4680BD3A
:103390003F8010F080B586B000AFF860B9607A6009
:1033A0003B600023FB75FB689B6D3B61FB6893F8FA
:1033B0003430012B01D1022340E0FB68012283F865
:1033C0003420FB6893F83530DBB2012B2FD1FB683A
:1033D000022283F83520FB6800225A653B687A6830
:1033E000B968F86800F0DAF9FB68DB6D3F229A40B3
:1033F0003B699A60FB681B681A68FB681B6842F0AF
:1034000016021A60FB681B6C002B07D0FB681B6858
:103410001A68FB681B6842F008021A60FB681B68A8
:103420001A68FB681B6842F001021A6005E0FB683D
:10343000002283F834200223FB75FB7D18461837E1
:10344000BD4680BD80B483B000AF78607B6893F8E0
:103450003530DBB2022B04D07B6880225A65012311
:103460000CE07B68052283F835207B681B681A68AE
:103470007B681B6822F001021A60002318460C3793
:10348000BD465DF8047B704780B586B000AF7860BC
:103490000023BB608E4B1B688E4AA2FB03239B0A52
:1034A0007B617B689B6D3B613B691B68FB607B6854
:1034B000DB6D08229A40FB681340002B1AD07B6812
:1034C0001B681B6803F00403002B13D07B681B6888
:1034D0001A687B681B6822F004021A607B68DB6D47
:1034E00008229A403B699A607B685B6D43F0010259
:1034F0007B685A657B68DB6D01229A40FB6813404C
:10350000002B12D07B681B685B6903F08003002BE3
:103510000BD07B68DB6D01229A403B699A607B6827
:103520005B6D43F002027B685A657B68DB6D0422A9
:103530009A40FB681340002B12D07B681B681B6805
:1035400003F00203002B0BD07B68DB6D04229A4052
:103550003B699A607B685B6D43F004027B685A6547
:103560007B68DB6D10229A40FB681340002B43D030
:103570007B681B681B6803F00803002B3CD07B684A
:10358000DB6D10229A403B699A607B681B681B6860
:1035900003F48023002B18D07B681B681B6803F49E
:1035A0000023002B08D17B681B6C002B24D07B6888
:1035B0001B6C786898471FE07B689B6C002B1BD0C6
:1035C0007B689B6C7868984716E07B681B681B6873
:1035D00003F48073002B07D17B681B681A687B6833
:1035E0001B6822F008021A607B681B6C002B03D05A
:1035F0007B681B6C786898477B68DB6D20229A405B
:10360000FB681340002B00F08F807B681B681B68F1
:1036100003F01003002B00F087807B68DB6D202215
:103620009A403B699A607B6893F83530DBB2052B92
:1036300036D17B681B681A687B681B6822F016020B
:103640001A607B681B685A697B681B6822F08002DD
:103650005A617B681B6C002B03D17B689B6C002B31
:1036600007D07B681B681A687B681B6822F0080219
:103670001A607B68DB6D3F229A403B699A607B68E9
:10368000012283F835207B68002283F834207B6890
:103690001B6D002B7ED07B681B6D7868984779E0A6
:1036A0007B681B681B6803F48023002B1DD07B689C
:1036B0001B681B6803F40023002B0DD17B685B6C37
:1036C000002B31D07B685B6C786898472CE000BF9A
:1036D00020000020B5814E1B7B68DB6B002B23D0C4
:1036E0007B68DB6B786898471EE07B681B681B680B
:1036F00003F48073002B0FD17B681B681A687B680A
:103700001B6822F010021A607B68012283F83520C2
:103710007B68002283F834207B68DB6B002B03D0AE
:103720007B68DB6B786898477B685B6D002B32D0D9
:103730007B685B6D03F00103002B22D07B680522C0
:1037400083F835207B681B681A687B681B6822F049
:1037500001021A60BB680133BB607A699A4207D3E1
:103760007B681B681B6803F00103002BF2D100E0AB
:1037700000BF7B68012283F835207B68002283F834
:1037800034207B68DB6C002B05D07B68DB6C7868B1
:10379000984700E000BF1837BD4680BD80B485B0B3
:1037A00000AFF860B9607A603B60FB681B681A681C
:1037B000FB681B6822F480221A60FB681B683A6869
:1037C0005A60FB689B68402B08D1FB681B687A68CD
:1037D0009A60FB681B68BA68DA6007E0FB681B68E0
:1037E000BA689A60FB681B687A68DA6000BF1437B1
:1037F000BD465DF8047B704780B485B000AF78604B
:103800007B681B68DBB2103B144AA2FB03231B0935
:10381000FB60134AFB6813441B781A467B68DA6521
:10382000FB68032B09D97B681B6823F47F7323F0A3
:1038300003031A1D7B689A6507E07B681B6823F405
:103840007F7323F003037A6893657B689B6D18464A
:103850001437BD465DF8047B704700BFABAAAAAA27
:10386000CCF9000880B485B000AF78600023FB730A
:103870007B689B6ABB607B689B69002B1FD1BB6820
:10388000032B56D801A252F823F000BF9D38000840
:10389000AF3800089D380008333900087B68DB6AC0
:1038A00003F08073002B46D00123FB7343E07B6859
:1038B000DB6AB3F1C07F40D10123FB733DE07B683D
:1038C0009B69B3F5005F21D1BB68032B37D801A2F8
:1038D00052F823F0E5380008EB380008E538000816
:1038E000FD3800080123FB7330E07B68DB6A03F0DE
:1038F0008073002B25D00123FB7322E07B68DB6AF9
:10390000B3F1C07F1FD10123FB731CE0BB68022B06
:1039100003D9BB68032B03D018E00123FB7315E028
:103920007B68DB6A03F08073002B0ED00123FB73EE
:103930000BE000BF0AE000BF08E000BF06E000BFE8
:1039400004E000BF02E000BF00E000BFFB7B1846C0
:103950001437BD465DF8047B704700BF80B489B062
:1039600000AF7860396000237B6100233B61002356
:10397000BB610023FB616BE10122FB6902FA03F3E7
:103980007B613B681B687A6913403B613A697B69DC
:103990009A4240F05A813B685B6803F00303012BB5
:1039A00005D03B685B6803F00303022B30D17B68D2
:1039B0009B68BB61FB695B00032202FA03F3DB43F4
:1039C000BA691340BB613B68DA68FB695B0002FAC5
:1039D00003F3BA691343BB617B68BA699A607B6879
:1039E0005B68BB610122FB6902FA03F3DB43BA693E
:1039F0001340BB613B685B681B0903F00102FB6974
:103A000002FA03F3BA691343BB617B68BA695A606F
:103A10003B685B6803F00303032B17D07B68DB680C
:103A2000BB61FB695B00032202FA03F3DB43BA6963
:103A30001340BB613B689A68FB695B0002FA03F3C1
:103A4000BA691343BB617B68BA69DA603B685B683B
:103A500003F00303022B23D1FB69DA087B680832E9
:103A600053F82230BB61FB6903F007039B000F2270
:103A700002FA03F3DB43BA691340BB613B681A697E
:103A8000FB6903F007039B0002FA03F3BA691343CF
:103A9000BB61FB69DA087B680832B96943F8221018
:103AA0007B681B68BB61FB695B00032202FA03F3BE
:103AB000DB43BA691340BB613B685B6803F00302F8
:103AC000FB695B0002FA03F3BA691343BB617B68CD
:103AD000BA691A603B685B6803F44033002B00F05E
:103AE000B4800023FB60604B5B6C5F4A43F480430F
:103AF00053645D4B5B6C03F48043FB60FB685B4A83
:103B0000FB699B08023352F82330BB61FB6903F069
:103B100003039B000F2202FA03F3DB43BA6913404D
:103B2000BB617B68524A93422BD07B68514A9342D7
:103B300025D07B68504A93421FD07B684F4A9342FE
:103B400019D07B684E4A934213D07B684D4A93420A
:103B50000DD07B684C4A934207D07B684B4A934216
:103B600001D107230EE008230CE006230AE0052319
:103B700008E0042306E0032304E0022302E001231B
:103B800000E00023FA6902F0030292009340BA6950
:103B90001343BB613549FB699B080233BA6941F89D
:103BA00023203B4B9B68BB613B69DB43BA691340F5
:103BB000BB613B685B6803F48013002B03D0BA69D8
:103BC0003B691343BB61324ABB699360304BDB688E
:103BD000BB613B69DB43BA691340BB613B685B680F
:103BE00003F40013002B03D0BA693B691343BB6194
:103BF000274ABB69D360264B5B68BB613B69DB43EB
:103C0000BA691340BB613B685B6803F40033002B67
:103C100003D0BA693B691343BB611D4ABB6953605A
:103C20001B4B1B68BB613B69DB43BA691340BB613B
:103C30003B685B6803F48033002B03D0BA693B69AF
:103C40001343BB61124ABB691360FB690133FB611B
:103C5000FB690F2B7FF690AE00BF00BF2437BD4637
:103C60005DF8047B704700BF003802400038014017
:103C7000000002400004024000080240000C024024
:103C8000001002400014024000180240001C0240D4
:103C9000003C014080B483B000AF78600B467B806D
:103CA00013467B707B78002B03D07A887B689A61FF
:103CB00003E07B881A047B689A6100BF0C37BD461D
:103CC0005DF8047B704780B485B000AF78600B4628
:103CD0007B807B685B69FB607A88FB6813401A0411
:103CE000FB68D9437B880B401A437B689A6100BF0D
:103CF0001437BD465DF8047B7047000080B582B084
:103D000000AF0346FB80084B5A69FB881340002B29
:103D100006D0054AFB885361FB881846FEF7E6F992
:103D200000BF0837BD4680BD003C014080B586B06D
:103D300002AF78607B68002B01D1012301E17B6831
:103D40001B68BB607B6893F89534DBB2002B06D10F
:103D50007B68002283F89424786807F007F87B6872
:103D6000032283F89524BB68B3F1A04F02D17B688E
:103D700000229A717B681B68184603F0EEFB7B6893
:103D800018687B681A7C8DF8002004330ECB03F092
:103D9000CDFA0346002B05D07B68022283F89524D8
:103DA0000123CEE07B681B680021184603F0E6FB88
:103DB0000346002B05D07B68022283F8952401235B
:103DC000BFE00023FB734AE0FA7B79681346DB000F
:103DD00013449B000B44153301221A70FA7B796857
:103DE0001346DB0013449B000B441433FA7B1A7018
:103DF000FA7BFB7B98B279681346DB0013449B0087
:103E00000B442E3302461A80FA7B79681346DB0096
:103E100013449B000B44183300221A70FA7B796814
:103E20001346DB0013449B000B441C3300221A6032
:103E3000FA7B79681346DB0013449B000B44203364
:103E400000221A60FA7B79681346DB0013449B005A
:103E50000B44243300221A60FB7B0133FB737B6825
:103E60001B79FA7B9A42AFD30023FB7344E0FA7BC1
:103E700079681346DB0013449B000B4403F255237F
:103E800000221A70FA7B79681346DB0013449B000A
:103E90000B4403F51573FA7B1A70FA7B79681346A5
:103EA000DB0013449B000B4403F5167300221A70C9
:103EB000FA7B79681346DB0013449B000B4403F53F
:103EC000177300221A60FA7B79681346DB001344EB
:103ED0009B000B4403F5187300221A60FA7B796883
:103EE0001346DB0013449B000B4403F519730022B7
:103EF0001A60FB7B0133FB737B681B79FA7B9A4268
:103F0000B5D37B6818687B681A7C8DF80020043371
:103F10000ECB03F07FFB0346002B05D07B6802220B
:103F200083F8952401230CE07B6800225A747B6897
:103F3000012283F895247B681B68184604F0C9FBAE
:103F4000002318461037BD4680BD80B584B000AF51
:103F500078607B681B68FB607B6893F89434012B66
:103F600001D1022322E07B68012283F89424FB68BC
:103F7000DB6803F04003002B09D07B685B7B012BDF
:103F800005D1FB689B6B43F48032FB689A637B68C6
:103F90001B68184603F0D0FA7B681B68184604F0CB
:103FA00077FB7B68002283F894240023184610379F
:103FB000BD4680BD90B58DB000AF78607B681B6852
:103FC0003B623B6AFB617B681B68184604F035FC6A
:103FD0000346002B40F08C847B681B68184604F075
:103FE00099FB0346002B00F08284FB6903F5006314
:103FF0009B681B0AC3F30D027B68C3F8D4247B685B
:104000001B68184604F086FB034603F00203022BEC
:1040100007D17B681B685A697B681B6802F0020243
:104020005A617B681B68184604F074FB034603F072
:104030001003102B61D17B681B689A697B681B6831
:1040400022F010029A613B6A1B6ABB61BB6903F0F4
:104050000F021346DB0013449B0003F514737A68C8
:10406000134404337B61BB695B0C03F00F03022B29
:1040700024D1BA6947F6F0731340002B35D07B6921
:10408000D968BB691B099BB2C3F30A039BB21A46EA
:10409000386A04F0ABF97B69DA68BB691B09C3F3C2
:1040A0000A031A447B69DA607B695A69BB691B0998
:1040B000C3F30A031A447B695A6116E0BB695B0CBF
:1040C00003F00F03062B10D17B6803F29C430822F8
:1040D0001946386A04F08AF97B695A69BB691B0979
:1040E000C3F30A031A447B695A617B681B689A69A7
:1040F0007B681B6842F010029A617B681B68184657
:1041000004F008FB034603F40023B3F5002F40F04E
:10411000A78000237B627B681B68184604F00DFBB8
:10412000B86299E0BB6A03F00103002B00F08E80B7
:104130007B681B687A6AD2B21146184604F031FBDC
:1041400038613B6903F00103002B0CD07B6A5A01F4
:10415000FB69134403F530631A4601239360796ABF
:10416000786800F0A3FE3B6903F00803002B0CD035
:104170007B6A5A01FB69134403F530631A4608232E
:104180009360796A786800F079FF3B6903F0100367
:10419000002B08D07B6A5A01FB69134403F5306396
:1041A0001A46102393603B6903F00203002B30D0C2
:1041B0003B6A5B6903F08003802B09D1FB6903F53F
:1041C00000635B68FA6902F5006243F48063536040
:1041D0007A6A1346DB0013449B0003F514737A6874
:1041E000134404337B617B69DB78012B08D17B6945
:1041F0000022DA707B6ADBB21946786806F0BCFEF2
:104200007B6A5A01FB69134403F530631A460223A3
:1042100093603B6903F02003002B08D07B6A5A01AE
:10422000FB69134403F530631A46202393603B690E
:1042300003F40053002B09D07B6A5A01FB69134435
:1042400003F530631A464FF4005393607B6A0133E1
:104250007B62BB6A5B08BB62BB6A002B7FF462AF08
:104260007B681B68184604F055FA034603F4802364
:10427000B3F5802F40F0DB807B681B68184604F0A4
:1042800076FAB86200237B62CDE0BB6A03F00103DB
:10429000002B00F0C2807B681B687A6AD2B211469C
:1042A000184604F09CFA38613B6903F00103002BC7
:1042B00057D07B6A03F00F03012202FA03F3FB607D
:1042C000FB6903F500635A6BFB68DB43F96901F591
:1042D000006113404B637B6A5A01FB69134403F589
:1042E00010631A46012393607B689B79012B32D1BE
:1042F00079687A6A1346DB0013449B000B44203331
:10430000196878687A6A1346DB0013449B000344FB
:104310001C331B68194478687A6A1346DB0013441F
:104320009B000344203319607B6A002B13D179680A
:104330007A6A1346DB0013449B000B4424331B684A
:10434000002B08D17B6818687B6803F29C431A46EF
:10435000012104F0A3FA7B6ADBB21946786806F003
:1043600086FD3B6903F00803002B08D07B6A5A01E5
:10437000FB69134403F510631A46082393603B69F5
:1043800003F01003002B08D07B6A5A01FB69134429
:1043900003F510631A46102393603B6903F0400352
:1043A000002B08D07B6A5A01FB69134403F51063A4
:1043B0001A46402393603B6903F00203002B23D08D
:1043C000796A386A03F08AFA7A6A1346DB00134482
:1043D0009B0010337A68134404337B617B69DB787C
:1043E000012B08D17B690022DA707B6ADBB21946A7
:1043F000786806F0D3FD7B6A5A01FB69134403F524
:1044000010631A46022393603B6903F08003002B7C
:1044100003D0796A786800F0BDFC7B6A01337B6267
:10442000BB6A5B08BB62BB6A002B7FF42EAF7B6864
:104430001B68184604F06EF9034603F00043B3F11D
:10444000004F22D1FB6903F500635B68FA6902F54E
:10445000006223F0010353607B6893F8CC34012B96
:1044600008D17B68002283F8CC240021786800F012
:10447000A3FE02E0786806F071FD7B681B685A694C
:104480007B681B6802F000425A617B681B68184613
:1044900004F040F9034603F40063B3F5006F12D152
:1044A000FB6903F500639B6803F00103012B02D154
:1044B000786806F02DFD7B681B685A697B681B686D
:1044C00002F400625A617B681B68184604F022F906
:1044D000034603F48053B3F5805F40F0B780FB6977
:1044E00003F500635B68FA6902F5006223F00103DB
:1044F00053607B681B681021184603F0EFF9002316
:10450000FB6246E0FB6A5A01FB69134403F5106342
:104510001A464FF67F339360FB6A5A01FB691344D6
:1045200003F510631B68FA6A5101FA690A4402F53F
:10453000106223F400131360FB6A5A01FB691344F1
:1045400003F530631A464FF67F339360FB6A5A01D6
:10455000FB69134403F530631B68FA6A5101FA6979
:104560000A4402F5306223F400131360FB6A5A0117
:10457000FB69134403F530631B68FA6A5101FA6959
:104580000A4402F5306243F000631360FB6A0133B2
:10459000FB627B681B791A46FB6A9342B2D3FB69C4
:1045A00003F50063DB69FA6902F5006243F0011369
:1045B000D3617B68DB7B002B16D0FB6903F50063BE
:1045C000D3F88430FA6902F5006243F00B03C2F8B5
:1045D0008430FB6903F500635B6CFA6902F50062E5
:1045E00043F00B03536415E0FB6903F500635B695B
:1045F000FA6902F5006243F4005343F02B03536160
:10460000FB6903F500631B69FA6902F5006243F078
:104610000B031361FB6903F500631B68FA6902F57C
:10462000006223F4FE6313607B6818687B689979E5
:104630007B6803F29C431A4604F030F97B681B68E0
:104640005A697B681B6802F480525A617B681B6858
:10465000184604F05FF8034603F40053B3F5005F17
:1046600023D17B681B68184604F0F5F87B681B684B
:10467000184603F0ACF903461A467B68DA717B688A
:104680001C6801F007FA01467B68DB791A46204670
:1046900002F0B0FE786806F012FC7B681B685A696D
:1046A0007B681B6802F400525A617B681B681846DD
:1046B00004F030F8034603F00803082B0AD17868A9
:1046C00006F0EFFB7B681B685A697B681B6802F089
:1046D00008025A617B681B68184604F01BF8034601
:1046E00003F08003802B23D13B6A9B6923F0800277
:1046F0003B6A9A6101237B6214E079687A6A134607
:10470000DB0013449B000B4403F257231B78012B5F
:1047100005D17B6ADBB21946786800F00AFB7B6A38
:1047200001337B627B681B791A467B6A9342E4D330
:104730007B681B68184603F0EDFF034603F4801303
:10474000B3F5801F3CD101237B622BE07B6A5A01C9
:10475000FB69134403F510631B68BB6179687A6ACF
:104760001346DB0013449B000B4418331B78012BCA
:1047700015D1BB69002B12DA79687A6A1346DB001F
:1047800013449B000B44173301221A707B6ADBB27F
:1047900063F07F03DBB21946786800F0CAFA7B6ADF
:1047A00001337B627B681B791A467B6A9342CDD3C7
:1047B0007B681B685A697B681B6802F480125A6127
:1047C0007B681B68184603F0A5FF034603F400133B
:1047D000B3F5001F56D101237B6245E07B6A5A0185
:1047E000FB69134403F530631B68BB6179687A6A1F
:1047F0001346DB0013449B000B4403F516731B7830
:10480000012B2ED1BB69002B2BDABB6903F480325C
:104810007B68D3F8D43403F001039A4221D179683C
:104820007A6A1346DB0013449B000B4403F25723C0
:1048300001221A703B6A9B6943F080023B6A9A61CD
:104840003B6A5B6903F08003002B0AD1FB6903F527
:1048500000635B68FA6902F5006243F40073536019
:1048600008E07B6A01337B627B681B791A467B6AAE
:104870009342B3D37B681B685A697B681B6802F458
:1048800000125A617B681B68184603F043FF034619
:1048900003F08043B3F1804F0AD1786806F090FBB3
:1048A0007B681B685A697B681B6802F080425A610A
:1048B0007B681B68184603F02DFF034603F00403D2
:1048C000042B15D17B681B685B68BB61BB6903F077
:1048D0000403002B02D0786806F080FB7B681B681D
:1048E00059687B681B68BA690A435A6000E000BFD8
:1048F0003437BD4690BD80B582B000AF78600B46BE
:10490000FB707B6893F89434012B01D1022312E0F1
:104910007B68012283F894247B68FA785A747B6858
:104920001B68FA781146184603F08CFE7B6800225B
:1049300083F89424002318460837BD4680BD80B50F
:1049400084B000AF7860084611461A460346FB70F3
:104950000B463B801346BB700023FB7297F9033074
:10496000002B0FDAFB7803F00F021346DB00134431
:104970009B0010337A6813440433FB60FB68012208
:104980005A700FE0FB7803F00F021346DB0013446C
:104990009B0003F514737A6813440433FB60FB68CF
:1049A00000225A70FB7803F00F03DAB2FB681A702A
:1049B0003B88C3F30A02FB689A60FB68BA781A71F5
:1049C000FB685B78002B04D0FB681B781A46FB68F9
:1049D0005A83BB78022B02D1FB6800225A717B6894
:1049E00093F89434012B01D102230EE07B6801225D
:1049F00083F894247B681B68F968184603F00CF868
:104A00007B68002283F89424FB7A18461037BD4651
:104A100080BD80B584B000AF78600B46FB7097F91D
:104A20000330002B0FDAFB7803F00F021346DB0094
:104A300013449B0010337A6813440433FB60FB6813
:104A400001225A700FE0FB7803F00F021346DB00DF
:104A500013449B0003F514737A6813440433FB601A
:104A6000FB6800225A70FB7803F00F03DAB2FB6890
:104A70001A707B6893F89434012B01D102230EE065
:104A80007B68012283F894247B681B68F9681846C8
:104A900003F04AF87B68002283F894240023184628
:104AA0001037BD4680BD80B586B000AFF8607A6033
:104AB0003B600B46FB72FB7A03F00F021346DB00F0
:104AC00013449B0003F51473FA68134404337B61A9
:104AD0007B697A68DA607B693A681A617B690022CF
:104AE0005A617B6900225A70FB7A03F00F03DAB235
:104AF0007B691A70FB689B79012B02D17A687B690C
:104B0000DA61FB681868FB689B791A46796903F0DB
:104B1000E7F8002318461837BD4680BD80B483B03F
:104B200000AF78600B46FB70FB7803F00F027968EA
:104B30001346DB0013449B000B4403F51A731B68F8
:104B400018460C37BD465DF8047B704780B586B0CB
:104B500000AFF8607A603B600B46FB72FB7A03F0B3
:104B60000F021346DB0013449B001033FA68134412
:104B700004337B617B697A68DA607B693A681A6121
:104B80007B6900225A617B6901225A70FB7A03F02B
:104B90000F03DAB27B691A70FB689B79012B02D193
:104BA0007A687B69DA61FB681868FB689B791A464A
:104BB000796903F095F8002318461837BD4680BD83
:104BC00080B584B000AF78600B46FB70FB7803F0D3
:104BD0000F037A681279934201D901234FE097F9C4
:104BE0000330002B0FDAFB7803F00F021346DB00D3
:104BF00013449B0010337A6813440433FB60FB6852
:104C000001225A700DE0FA781346DB0013449B0032
:104C100003F514737A6813440433FB60FB680022C5
:104C20005A70FB6801229A70FB7803F00F03DAB226
:104C3000FB681A707B6893F89434012B01D102232E
:104C40001DE07B68012283F894247B681B68F96867
:104C5000184603F023FCFB7803F00F03002B09D167
:104C60007B6818687B6899797B6803F29C431A46D5
:104C700003F014FE7B68002283F894240023184676
:104C80001037BD4680BD80B584B000AF78600B465C
:104C9000FB70FB7803F00F037A681279934201D915
:104CA000012342E097F90330002B0FDAFB7803F081
:104CB0000F021346DB0013449B0010337A68134441
:104CC0000433FB60FB6801225A700FE0FB7803F0AD
:104CD0000F021346DB0013449B0003F514737A683C
:104CE00013440433FB60FB6800225A70FB68002207
:104CF0009A70FB7803F00F03DAB2FB681A707B68D6
:104D000093F89434012B01D102230EE07B68012239
:104D100083F894247B681B68F968184603F02CFC20
:104D20007B68002283F89424002318461037BD4680
:104D300080BD80B584B000AF78600B46FB7097F9FA
:104D40000330002B0CDAFB7803F00F021346DB0074
:104D500013449B0010337A6813440433FB600CE067
:104D6000FB7803F00F021346DB0013449B0003F5AE
:104D700014737A6813440433FB607B681B68F9681A
:104D8000184603F04BFA0346FB72FB7A18461037BD
:104D9000BD4680BD80B58AB002AF786039607B685F
:104DA0001B687B617B693B613A681346DB001344F7
:104DB0009B0010337A6813440433FB60FB685A6924
:104DC000FB681B699A4201D901236BE0FB681A69F1
:104DD000FB685B69D31AFB61FB689B68FA699A42BE
:104DE00002D9FB689B68FB61FB6903339B08BB61CD
:104DF0002AE0FB681A69FB685B69D31AFB61FB68F0
:104E00009B68FA699A4202D9FB689B68FB61FB695F
:104E100003339B08BB61FB68D9683B68DAB2FB6966
:104E200098B27B689B7900930346786903F0A0FAF7
:104E3000FB68DA68FB691A44FB68DA60FB685A6948
:104E4000FB691A44FB685A613B685A013B69134489
:104E500003F510639B699BB2BA699A4209D8FB6853
:104E60005A69FB681B699A4203D2FB681B69002BD5
:104E7000BFD1FB681A69FB685B699A4211D83B682D
:104E800003F00F03012202FA03F3BB603B6903F551
:104E900000635A6BBB68DB43396901F5006113405D
:104EA0004B63002318462037BD4680BD80B588B0CF
:104EB00000AF786039607B681B68FB61FB69BB6190
:104EC000FB693C3304331B687B613B685A01BB6957
:104ED000134403F530639B683B617B689B79012B2E
:104EE0007BD13B6903F00803002B15D07B69614A35
:104EF000934240F2B9803B6903F40043002B00F079
:104F0000B3803B685A01BB69134403F530631A460A
:104F10004FF400439360A7E03B6903F02003002BAC
:104F200009D03B685A01BB69134403F530631A4644
:104F30002023936098E03B6903F02803002B40F0A6
:104F400093807B694B4A93420FD93B6903F400433A
:104F5000002B0AD03B685A01BB69134403F5306348
:104F60001A464FF4004393607EE03A681346DB0034
:104F700013449B0003F514737A6813440433FB60F5
:104F8000FB681A6A3B685901BB690B4403F530633F
:104F90001B69C3F31203D21AFB685A613B68002BEA
:104FA00014D1FB681B69002B09D17B6818687B68EA
:104FB00003F29C431A46012103F070FC06E0FB68F3
:104FC000DA68FB685B691A44FB68DA603B68DBB24D
:104FD0001946786805F030FF46E07B69264A93421F
:104FE00024D13B6903F40043002B0AD03B685A01EB
:104FF000BB69134403F530631A464FF400439360D2
:1050000032E03B6903F02003002B08D03B685A01D3
:10501000BB69134403F530631A46202393603B6851
:10502000DBB21946786805F007FF1DE03B68002BEE
:1050300014D179683A681346DB0013449B000B4493
:1050400003F519731B68002B08D17B6818687B680F
:1050500003F29C431A46002103F020FC3B68DBB2BC
:105060001946786805F0E8FE002318462037BD464B
:1050700080BD00BF0A30544F0A31544F80B586B00E
:1050800000AF786039607B681B687B617B693B613E
:105090007B693C3304331B68FB603B685A013B6906
:1050A000134403F530639B68BB60FB68154A934269
:1050B0000ED9BB6803F40043002B09D03B685A01AA
:1050C0003B69134403F530631A464FF40043936081
:1050D000786805F09FFEFB680A4A93420CD97B680A
:1050E0009B79012B08D17B6818687B6803F29C438D
:1050F0001A46012103F0D2FB002318461837BD469B
:1051000080BD00BF0A30544F80B485B000AF7860D6
:105110000B46FB7013463B807B681B685B6ABB6079
:10512000FB78002B07D13B8819047B681B68BA68A1
:105130000A439A6228E07B681B689B6A1B0CBA686A
:105140001344BB600023FB730DE07B681A68FB7B94
:1051500040339B0013445B681B0CBA681344BB606C
:10516000FB7B0133FB73FA7BFB78013B9A42ECD368
:105170003B8818047B681968FB78013BBA680243D6
:1051800040339B000B445A60002318461437BD4639
:105190005DF8047B704780B483B000AF78600B4645
:1051A0007B807B681B687A885A62002318460C371C
:1051B000BD465DF8047B704780B483B000AF786073
:1051C0000B46FB7000BF0C37BD465DF8047B704793
:1051D00080B586B000AF78607B68002B01D10123D9
:1051E00067E27B681B6803F00103002B75D0884BD6
:1051F0009B6803F00C03042B0CD0854B9B6803F0D9
:105200000C03082B12D1824B5B6803F48003B3F5C7
:10521000800F0BD17E4B1B6803F40033002B5BD057
:105220007B685B68002B57D1012342E27B685B6897
:10523000B3F5803F06D1764B1B68754A43F4803343
:1052400013601DE07B685B68B3F5A02F0CD1704B39
:105250001B686F4A43F4802313606D4B1B686C4AD4
:1052600043F4803313600BE0694B1B68684A23F4F6
:1052700080331360664B1B68654A23F480231360F8
:105280007B685B68002B13D0FDF794FE386108E063
:10529000FDF790FE02463B69D31A642B01D9032324
:1052A00007E25B4B1B6803F40033002BF0D014E0E3
:1052B000FDF780FE386108E0FDF77CFE02463B69A1
:1052C000D31A642B01D90323F3E1514B1B6803F478
:1052D0000033002BF0D100E000BF7B681B6803F0B7
:1052E0000203002B63D04A4B9B6803F00C03002B96
:1052F0000BD0474B9B6803F00C03082B1CD1444B8D
:105300005B6803F48003002B16D1414B1B6803F04C
:105310000203002B05D07B68DB68012B01D0012341
:10532000C7E13B4B1B6823F0F8027B681B69DB007D
:10533000374913430B603AE07B68DB68002B20D0D1
:10534000344B01221A60FDF735FE386108E0FDF7A5
:1053500031FE02463B69D31A022B01D90323A8E18F
:105360002B4B1B6803F00203002BF0D0284B1B686B
:1053700023F0F8027B681B69DB00254913430B60AF
:1053800015E0244B00221A60FDF714FE386108E096
:10539000FDF710FE02463B69D31A022B01D9032305
:1053A00087E11B4B1B6803F00203002BF0D17B68E5
:1053B0001B6803F00803002B36D07B685B69002B69
:1053C00016D0154B01221A60FDF7F4FD386108E094
:1053D000FDF7F0FD02463B69D31A022B01D90323E6
:1053E00067E10B4B5B6F03F00203002BF0D01BE077
:1053F000094B00221A60FDF7DDFD38610EE0FDF774
:10540000D9FD02463B69D31A022B07D9032350E189
:105410000038024000004742800E4742884B5B6FD5
:1054200003F00203002BEAD17B681B6803F004033E
:10543000002B00F097800023FB75814B1B6C03F061
:105440008053002B0FD10023BB607D4B1B6C7C4A2B
:1054500043F0805313647A4B1B6C03F08053BB60A2
:10546000BB680123FB75774B1B6803F48073002B2B
:1054700018D1744B1B68734A43F480731360FDF7B3
:1054800099FD386108E0FDF795FD02463B69D31AA6
:10549000022B01D903230CE16A4B1B6803F48073D0
:1054A000002BF0D07B689B68012B06D1644B1B6FEF
:1054B000634A43F0010313671CE07B689B68052B7C
:1054C0000CD15F4B1B6F5E4A43F0040313675C4BC8
:1054D0001B6F5B4A43F0010313670BE0584B1B6FD4
:1054E000574A23F001031367554B1B6F544A23F0AF
:1054F000040313677B689B68002B15D0FDF75AFDEA
:1055000038610AE0FDF756FD02463B69D31A41F2C5
:105510008832934201D90323CBE0494B1B6F03F040
:105520000203002BEED014E0FDF744FD38610AE0E1
:10553000FDF740FD02463B69D31A41F2883293429F
:1055400001D90323B5E03E4B1B6F03F00203002B90
:10555000EED1FB7D012B05D1394B1B6C384A23F072
:10556000805313647B689B69002B00F0A180344B4F
:105570009B6803F00C03082B5CD07B689B69022BB3
:1055800041D1314B00221A60FDF714FD386108E06B
:10559000FDF710FD02463B69D31A022B01D9032304
:1055A00087E0274B1B6803F00073002BF0D17B686A
:1055B000DA697B681B6A1A437B685B6A9B011A4342
:1055C0007B689B6A5B08013B1B041A437B68DB6AB0
:1055D0001B061B4913434B601B4B01221A60FDF74E
:1055E000E9FC386108E0FDF7E5FC02463B69D31AA7
:1055F000022B01D903235CE0114B1B6803F00073FD
:10560000002BF0D054E0104B00221A60FDF7D2FCC2
:10561000386108E0FDF7CEFC02463B69D31A022B45
:1056200001D9032345E0064B1B6803F00073002BF0
:10563000F0D13DE07B689B69012B07D1012338E065
:105640000038024000700040600047421B4B5B681E
:10565000FB607B689B69012B28D0FB6803F4800208
:105660007B68DB699A4221D1FB6803F03F027B68CB
:105670001B6A9A421AD1FA6847F6C07313407A68D7
:10568000526A9201934211D1FB6803F440327B6865
:105690009B6A5B08013B1B049A4207D1FB6803F03D
:1056A00070627B68DB6A1B069A4201D0012300E02E
:1056B000002318461837BD4680BD00BF00380240A1
:1056C00080B584B000AF786039607B68002B01D171
:1056D0000123CCE0684B1B6803F007033A689A4249
:1056E0000CD9654B3A68D2B21A70634B1B6803F051
:1056F00007033A689A4201D00123B8E07B681B682F
:1057000003F00203002B20D07B681B6803F0040326
:10571000002B05D0594B9B68584A43F4E0539360E3
:105720007B681B6803F00803002B05D0534B9B6874
:10573000524A43F460439360504B9B6823F0F0025D
:105740007B689B684D4913438B607B681B6803F043
:105750000103002B44D07B685B68012B07D1474BCA
:105760001B6803F40033002B19D101237FE07B6811
:105770005B68022B03D07B685B68032B07D13F4B30
:105780001B6803F00073002B09D101236FE03B4B32
:105790001B6803F00203002B01D1012367E0374BA4
:1057A0009B6823F003027B685B68344913438B607A
:1057B000FDF700FCF8600AE0FDF7FCFB0246FB6821
:1057C000D31A41F28832934201D903234FE02B4B85
:1057D0009B6803F00C027B685B689B009A42EBD1EC
:1057E000254B1B6803F007033A689A420CD2224B00
:1057F0003A68D2B21A70204B1B6803F007033A686C
:105800009A4201D0012332E07B681B6803F0040355
:10581000002B08D0194B9B6823F4E0527B68DB68AF
:10582000164913438B607B681B6803F00803002B49
:1058300009D0124B9B6823F460427B681B69DB0034
:105840000E4913438B6000F021F802460B4B9B6816
:105850001B0903F00F030A49CB5C22FA03F3094A40
:105860001360094B1B681846FDF760FB00231846C0
:105870001037BD4680BD00BF003C024000380240EA
:10588000BCF9000820000020240000202DE9B04FC2
:1058900094B000AF00237B640023FB6400233B64CF
:1058A0000023BB64794B9B6803F00C03082B0DD0DD
:1058B000082B00F2E180002B02D0042B03D0DBE0A8
:1058C000734BBB64DBE0724BBB64D8E06F4B5B682F
:1058D00003F03F037B646D4B5B6803F48003002B94
:1058E00063D06A4B5B689B090022BB63FA63BB6BA6
:1058F000C3F308033B6300237B63D7E90C452246CF
:105900002B464FF000004FF00001590141EAD261EF
:10591000500102460B462146511A3961294663EB74
:1059200001037B614FF000024FF00003D7E904ABA5
:1059300059468B01514643EA916351468A015146CB
:10594000B2EB0108594663EB01094FF000024FF03A
:1059500000034FEAC90343EA58734FEAC80290466E
:105960009946234618EB0303BB602B4649EB030320
:10597000FB604FF000024FF00003D7E902452946D3
:105980008B02214643EA915321468A02104619466A
:105990007B6C0022BB62FA62D7E90A23FBF754F959
:1059A00002460B461346FB6458E0384B5B689B0984
:1059B000002218461146C0F308033B6200237B62B5
:1059C000D7E9088942464B464FF000004FF00001EE
:1059D000590141EAD261500102460B464146B2EB01
:1059E000010A494663EB010B4FF000024FF0000340
:1059F0004FEA8B1343EA9A634FEA8A12B2EB0A0426
:105A000063EB0B054FF000024FF00003EB0043EA9D
:105A10005473E20014461D464346E3183B604B4670
:105A200045EB03037B604FF000024FF00003D7E922
:105A3000004529468B02214643EA915321468A02BA
:105A4000104619467B6C0022BB61FA61D7E9062338
:105A5000FBF7FAF802460B461346FB640B4B5B68F8
:105A60001B0C03F0030301335B003B64FA6C3B6CDB
:105A7000B2FBF3F3BB6402E0054BBB6400BFBB6C3D
:105A800018465037BD46BDE8B08F00BF0038024011
:105A90000024F40080B400AF034B1B681846BD46D9
:105AA0005DF8047B704700BF2000002080B582B005
:105AB00000AF78607B68002B01D101237BE07B681D
:105AC0005B6A002B08D17B685B68B3F5827F09D0E5
:105AD0007B680022DA6105E07B6800221A617B683E
