:020000040800F2
:1000000000000220711D0008F51A0008FD1A000802
:10001000051B00080D1B0008151B00080000000050
:100020000000000000000000000000001D1B000890
:100030002B1B000800000000391B0008471B0008AC
:10004000C11D0008C11D0008C11D0008C11D000818
:10005000C11D0008C11D0008C11D0008C11D000808
:10006000531B0008611B0008C11D0008C11D0008CA
:10007000C11D0008C11D0008C11D0008C11D0008E8
:10008000C11D0008C11D0008C11D0008C11D0008D8
:10009000C11D0008C11D0008C11D0008C11D0008C8
:1000A000C11D0008C11D0008C11D0008C11D0008B8
:1000B000C11D0008C11D0008C11D0008C11D0008A8
:1000C000C11D0008C11D0008C11D0008711B0008EA
:1000D000C11D0008C11D0008C11D0008C11D000888
:1000E000C11D0008C11D0008C11D0008C11D000878
:1000F000C11D0008C11D0008C11D0008C11D000868
:10010000C11D0008C11D0008C11D0008C11D000857
:10011000C11D0008C11D0008C11D0008C11D000847
:10012000851B0008C11D0008C11D0008991B00089F
:10013000C11D00080000000000000000C11D0008F3
:10014000C11D0008C11D0008C11D0008AD1B00082D
:10015000C11D0008C11D0008C11D0008C11D000807
:10016000C11D0008C11D0008C11D0008C11D0008F7
:10017000C11D0008C11D00080000000000000000B3
:08018000C11D0008C11D0008AB
:1001900010B5054C237833B9044B13B10448AFF3C1
:1001A00000800123237010BDC40200200000000065
:1001B00010C6000808B5034B1BB103490348AFF351
:1001C000008008BD00000000C802002010C6000822
:1001D00001F0FF01102A2BDB10F0070F08D010F8F8
:1001E000013B013A8B422DD010F0070F42B3F6D1FC
:1001F000F0B441EA012141EA014122F007047FF015
:1002000000070023F0E80256083C85EA010586EA6B
:10021000010685FA47F5A3FA87F586FA47F6A5FAA7
:1002200087F68EB9EED1F0BC01F0FF0102F00702B3
:1002300032B110F8013B013A83EA010313B1F8D15E
:100240000020704701387047002D06BF354603383F
:10025000073815F0010F07D1013015F4807F02BF78
:10026000013015F4C03F0130F0BC0138704700BFC9
:10027000034613F8012B002AFBD1181A01387047E6
:1002800081F0004102E000BF83F0004330B54FEA47
:1002900041044FEA430594EA050F08BF90EA020FB4
:1002A0001FBF54EA000C55EA020C7FEA645C7FEA47
:1002B000655C00F0E2804FEA5454D4EB5555B8BF6A
:1002C0006D420CDD2C4480EA020281EA030382EADB
:1002D000000083EA010180EA020281EA0303362D6D
:1002E00088BF30BD11F0004F4FEA01314FF4801C40
:1002F0004CEA113102D0404261EB410113F0004F52
:100300004FEA03334CEA133302D0524263EB430308
:1003100094EA050F00F0A780A4F10104D5F1200EA6
:100320000DDB02FA0EFC22FA05F2801841F1000101
:1003300003FA0EF2801843FA05F359410EE0A5F1D5
:1003400020050EF1200E012A03FA0EFC28BF4CF006
:10035000020C43FA05F3C01851EBE37101F00045BC
:1003600007D54FF0000EDCF1000C7EEB00006EEBC9
:100370000101B1F5801F1BD3B1F5001F0CD3490853
:100380005FEA30004FEA3C0C04F101044FEA4452AA
:1003900012F5800F80F09A80BCF1004F08BF5FEA31
:1003A000500C50F1000041EB045141EA050130BD11
:1003B0005FEA4C0C404141EB0101013C28BFB1F523
:1003C000801FE9D291F0000F04BF01460020B1FA6E
:1003D00081F308BF2033A3F10B03B3F120020CDA41
:1003E0000C3208DD02F1140CC2F10C0201FA0CF01F
:1003F00021FA02F10CE002F11402D8BFC2F1200C84
:1004000001FA02F120FA0CFCDCBF41EA0C01904039
:10041000E41AA2BF01EB0451294330BD6FEA040482
:100420001F3C1CDA0C340EDC04F11404C4F120026D
:1004300020FA04F001FA02F340EA030021FA04F37F
:1004400045EA030130BDC4F10C04C4F1200220FAD6
:1004500002F001FA04F340EA0300294630BD21FA14
:1004600004F0294630BD94F0000F83F4801306BFDA
:1004700081F480110134013D4EE77FEA645C18BFCE
:100480007FEA655C29D094EA050F08BF90EA020F65
:1004900005D054EA000C04BF1946104630BD91EA5D
:1004A000030F1EBF0021002030BD5FEA545C05D160
:1004B0004000494128BF41F0004130BD14F580049F
:1004C0003CBF01F5801130BD01F0004545F0FE4113
:1004D00041F470014FF0000030BD7FEA645C1ABF48
:1004E000194610467FEA655C1CBF0B46024650EA7F
:1004F000013406BF52EA033591EA030F41F40021AB
:1005000030BD00BF90F0000F04BF0021704730B530
:100510004FF4806404F132044FF000054FF0000105
:1005200050E700BF90F0000F04BF0021704730B5C6
:100530004FF4806404F1320410F0004548BF40429B
:100540004FF000013EE700BF42004FEAE2014FEAF0
:1005500031014FEA02701FBF12F07F4393F07F4FCB
:1005600081F06051704732F07F4208BF704793F0CE
:100570007F4F04BF41F40021704730B54FF46074E1
:1005800001F0004521F000411CE700BF50EA0102E4
:1005900008BF704730B54FF000050AE050EA01028D
:1005A00008BF704730B511F0004502D5404261EBFD
:1005B00041014FF4806404F132045FEA915C3FF43E
:1005C000D8AE4FF003025FEADC0C18BF03325FEADB
:1005D000DC0C18BF033202EBDC02C2F1200300FA8C
:1005E00003FC20FA02F001FA03FE40EA0E0021FAB1
:1005F00002F11444BDE600BF70B54FF0FF0C4CF49F
:10060000E06C1CEA11541DBF1CEA135594EA0C0F50
:1006100095EA0C0F00F0DEF82C4481EA030621EA8B
:100620004C5123EA4C5350EA013518BF52EA0335C6
:1006300041F4801143F4801338D0A0FB02CE4FF078
:100640000005E1FB02E506F00042E0FB03E54FF0A8
:100650000006E1FB03569CF0000F18BF4EF0010EA0
:10066000A4F1FF04B6F5007F64F5407404D25FEA9C
:100670004E0E6D4146EB060642EAC62141EA55514F
:100680004FEAC52040EA5E504FEACE2EB4F1FD0C91
:1006900088BFBCF5E06F1ED8BEF1004F08BF5FEA0F
:1006A000500E50F1000041EB045170BD06F00046C1
:1006B00046EA010140EA020081EA0301B4EB5C046E
:1006C000C2BFD4EB0C0541EA045170BD41F4801166
:1006D0004FF0000E013C00F3AB8014F1360FDEBF8B
:1006E000002001F0004170BDC4F10004203C35DA67
:1006F0000C341BDC04F11404C4F1200500FA05F3EA
:1007000020FA04F001FA05F240EA020001F000428A
:1007100021F0004110EBD37021FA04F642EB060100
:100720005EEA430E08BF20EAD37070BDC4F10C042A
:10073000C4F1200500FA04F320FA05F001FA04F2EE
:1007400040EA020001F0004110EBD37041F10001DA
:100750005EEA430E08BF20EAD37070BDC4F12005E5
:1007600000FA05F24EEA020E20FA04F301FA05F24D
:1007700043EA020321FA04F001F0004121FA04F2F5
:1007800020EA020000EBD3705EEA430E08BF20EAC5
:10079000D37070BD94F0000F0FD101F000464000FF
:1007A00041EB010111F4801F08BF013CF7D041EA81
:1007B000060195F0000F18BF704703F00046520085
:1007C00043EB030313F4801F08BF013DF7D043EA56
:1007D0000603704794EA0C0F0CEA135518BF95EA0C
:1007E0000C0F0CD050EA410618BF52EA4306D1D193
:1007F00081EA030101F000414FF0000070BD50EAB2
:10080000410606BF1046194652EA430619D094EA3B
:100810000C0F02D150EA013613D195EA0C0F05D125
:1008200052EA03361CBF104619460AD181EA030179
:1008300001F0004141F0FE4141F470014FF0000031
:1008400070BD41F0FE4141F4780170BD70B54FF0CC
:10085000FF0C4CF4E06C1CEA11541DBF1CEA13554C
:1008600094EA0C0F95EA0C0F00F0A7F8A4EB05042E
:1008700081EA030E52EA03354FEA013100F0888025
:100880004FEA03334FF0805545EA131343EA1263EE
:100890004FEA022245EA111545EA10654FEA0026A3
:1008A0000EF000419D4208BF964244F1FD0404F55C
:1008B000407402D25B084FEA3202B61A65EB0305B8
:1008C0005B084FEA32024FF480104FF4002CB6EB75
:1008D000020E75EB030E22BFB61A754640EA0C00F5
:1008E0005B084FEA3202B6EB020E75EB030E22BF35
:1008F000B61A754640EA5C005B084FEA3202B6EB76
:10090000020E75EB030E22BFB61A754640EA9C0034
:100910005B084FEA3202B6EB020E75EB030E22BF04
:10092000B61A754640EADC0055EA060E18D04FEAC2
:10093000051545EA16754FEA06164FEAC30343EA62
:1009400052734FEAC2025FEA1C1CC0D111F4801F2F
:100950000BD141EA00014FF000004FF0004CB6E728
:1009600011F4801F04BF01430020B4F1FD0C88BFC7
:10097000BCF5E06F3FF6AFAEB5EB030C04BFB6EBD2
:10098000020C5FEA500C50F1000041EB045170BDC5
:100990000EF0004E4EEA113114EB5C04C2BFD4EBF2
:1009A0000C0541EA045170BD41F480114FF0000E76
:1009B000013C90E645EA060E8DE60CEA135594EAF2
:1009C0000C0F08BF95EA0C0F3FF43BAF94EA0C0FF5
:1009D0000AD150EA01347FF434AF95EA0C0F7FF46A
:1009E00025AF104619462CE795EA0C0F06D152EABE
:1009F00003353FF4FDAE1046194622E750EA4106A2
:100A000018BF52EA43067FF4C5AE50EA41047FF4B2
:100A10000DAF52EA43057FF4EBAE12E74FF0FF3C17
:100A200006E000BF4FF0010C02E000BF4FF0010CE8
:100A30004DF804CD4FEA410C7FEA6C5C4FEA430C61
:100A400018BF7FEA6C5C1BD001B050EA410C0CBFB0
:100A500052EA430C91EA030F02BF90EA020F002012
:100A6000704710F1000F91EA030F58BF994208BF79
:100A700090422CBFD8176FEAE37040F00100704736
:100A80004FEA410C7FEA6C5C02D150EA013C07D18D
:100A90004FEA430C7FEA6C5CD6D152EA033CD3D0D8
:100AA0005DF8040B704700BF8446104662468C46D2
:100AB0001946634600E000BF01B5FFF7B7FF002805
:100AC00048BF10F1000F01BD4DF808EDFFF7F4FF2E
:100AD0000CBF012000205DF808FB00BF4DF808EDB9
:100AE000FFF7EAFF34BF012000205DF808FB00BFDC
:100AF0004DF808EDFFF7E0FF94BF012000205DF8FE
:100B000008FB00BF4DF808EDFFF7CEFF94BF0120B2
:100B100000205DF808FB00BF4DF808EDFFF7C4FFAB
:100B200034BF012000205DF808FB00BF4FEA410CF4
:100B30007FEA6C5C02D150EA013C0AD14FEA430CD7
:100B40007FEA6C5C02D152EA033C02D14FF0000014
:100B500070474FF0010070474FEA410212F5001252
:100B600015D211D56FF47873B3EB625212D94FEAF4
:100B7000C12343F0004343EA505311F0004F23FADE
:100B800002F018BF404270474FF00000704750EA33
:100B9000013005D111F0004008BF6FF000407047F0
:100BA0004FF00000704700BF53B94AB9002908BF91
:100BB00000281CBF4FF0FF314FF0FF3000F06AB942
:100BC000ADF1080C6DE904CE00F006F8DDF804E0A4
:100BD000DDE9022304B070472DE9F047089D0C467B
:100BE000002B4ED194468C458646B2FA82F262D9E9
:100BF0004AB1C2F12003914020FA03F30CFA02FC3F
:100C0000194300FA02FE4FEA1C471FFA8CF6B1FBAB
:100C1000F7F44FEA1E4307FB141143EA014304FBB8
:100C200006F199420AD91CEB030304F1FF3080F06E
:100C30001281994240F20F81023C6344591A1FFA13
:100C40008EF3B1FBF7F007FB101143EA014300FB01
:100C500006F69E420AD91CEB030300F1FF3180F037
:100C6000FC809E4240F2F980634402389B1B40EABC
:100C7000044000211DB1D3400022C5E90032BDE887
:100C8000F0878B4205D90DB1C5E900010021084666
:100C9000F5E7B3FA83F1002946D1A34202D390428B
:100CA000C0F0F080861A64EB03030120002DE6D02B
:100CB000C5E90063E3E7002A40F09080A1EB0C0453
:100CC0004FEA1C481FFA8CF70121B4FBF8F64FEAF3
:100CD0001E4308FB164443EA044307FB06F0984210
:100CE00008D91CEB030306F1FF3402D2984200F24C
:100CF000CD8026461C1A1FFA8EF3B4FBF8F008FBD1
:100D0000104443EA044300FB07F79F4208D91CEB59
:100D1000030300F1FF3402D29F4200F2B08020466C
:100D2000DB1B40EA0640A5E7C1F120068B4022FA12
:100D300006F71F4320FA06FC04FA01F343EA0C030A
:100D4000F44000FA01F8380C4FEA1349B4FBF0FE06
:100D50001FFA87FC00FB1E4449EA04440EFB0CF911
:100D6000A14502FA01F20AD93C190EF1FF3A80F0CE
:100D70008480A14540F28180AEF1020E3C44A4EB98
:100D800009041FFA83F9B4FBF0F300FB134449EAAA
:100D9000044403FB0CFCA44507D93C1903F1FF30C4
:100DA00067D2A44565D9023B3C4443EA0E40A0FB10
:100DB0000293A4EB0C049C42CE469C4651D34ED0E9
:100DC00055B1B8EB0E0364EB0C0404FA06F6CB4005
:100DD0001E43CC40C5E90064002150E7C2F1200366
:100DE00020FA03F10CFA02FC24FA03F394400C43BA
:100DF0004FEA1C4800FA02FE1FFA8CF7B3FBF8F02A
:100E000008FB1031230C43EA014300FB07F1994230
:100E100008D91CEB030300F1FF362CD299422AD9E2
:100E2000023863445B1AA4B2B3FBF8F108FB113338
:100E300044EA034401FB07F3A34208D91CEB040472
:100E400001F1FF3613D2A34211D902396444E41AE6
:100E500041EA004139E70446F0E6084606E7C8459E
:100E6000AED2B9EB020E63EB070C0138A8E73146AE
:100E7000EDE7034699E73046D4E7D6467FE763447B
:100E800002384DE70646234608460FE7023E634414
:100E900030E700BF704700BF80B586B000AFF86094
:100EA000B9607A607B80FB68BA681A60FB687A6810
:100EB0005A60FB687A889A81FB683A6A9A60FB6894
:100EC000BA8CDA81FB6800221A74FB6800225A741B
:100ED0000023FB75FB685868FB689B890022194654
:100EE00001F046FE012000F0DFFFFB685868FB6858
:100EF0009B890122194601F03BFE322000F0D4FF0D
:100F0000B6227E21F86800F059F903461A46FB7DA7
:100F10001344FB75322000F0C7FF07F116031A4691
:100F20000021F86800F0D0F803461A46FB7D134410
:100F3000FB750A2000F0B8FFA8224021F86800F0F5
:100F40003DF903461A46FB7D1344FB750A2000F069
:100F5000ABFF00224121F86800F030F903461A4641
:100F6000FB7D1344FB750A2000F09EFF0A225321EB
:100F7000F86800F023F903461A46FB7D1344FB751D
:100F80000A2000F091FF04225821F86800F016F9B9
:100F900003461A46FB7D1344FB750A2000F084FFCC
:100FA00000227C21F86800F009F903461A46FB7D0F
:100FB0001344FB750A2000F077FF04227D21F868B6
:100FC00000F0FCF803461A46FB7D1344FB750A202B
:100FD00000F06AFFFB683A4A1A63FB6892229A742F
:100FE000FB689868FB68DB890122194601F0C0FDA7
:100FF000B6221421F86800F01BF903461A46FB7D5F
:101000001344FB75FA2000F04FFF07F116031A4650
:101010000021F86800F096F803461A46FB7D134459
:10102000FB750A2000F040FF01220F21F86800F054
:10103000FFF803461A46FB7D1344FB750A2000F0B7
:1010400033FF07221021F86800F0F2F803461A4631
:10105000FB7D1344FB750A2000F026FF802215213A
:10106000F86800F0E5F803461A46FB7D1344FB756B
:101070000A2000F019FF01221621F86800F0D8F8C4
:1010800003461A46FB7D1344FB750A2000F00CFF53
:1010900001221821F86800F0CBF803461A46FB7DC0
:1010A0001344FB750A2000F0FFFEFB68054A5A63F3
:1010B000FB6882229A76FB7D18461837BD4680BDB4
:1010C000A4706B3A58A00B3A80B588B002AFF860B4
:1010D0000B467A60FB72FB7A63F07F03DBB23B75F1
:1010E00000237B750023BB75FB685868FB689B89F0
:1010F0000022194601F03CFDFB68186807F1100258
:1011000007F114014FF0FF330093032303F009FEAE
:101110000346002B0CBF01230023DBB2FB75FB68E9
:101120005868FB689B890122194601F021FDFB7D6F
:10113000012B02D1BA7C7B681A70FB7D18461837E8
:10114000BD4680BD80B588B002AFF8600B467A60BE
:10115000FB72FB7A63F07F03DBB23B7500237B7588
:10116000FB689868FB68DB890022194601F000FDE6
:10117000FB68186807F1100207F114014FF0FF3304
:101180000093022303F0CDFD0346002B0CBF012387
:101190000023DBB2FB75FB689868FB68DB890122E2
:1011A000194601F0E5FCFB7D012B02D17A7C7B68BE
:1011B0001A70FB7D18461837BD4680BD80B584B0D7
:1011C00000AF78600B46FB701346BB70FB783B7337
:1011D000BB787B737B6858687B689B8900221946C3
:1011E00001F0C6FC7B68186807F10C014FF0FF3373
:1011F000022203F052FC0346002B0CBF0123002304
:10120000DBB2FB7300BF7B681B68184604F04AF929
:101210000346012BF7D17B6858687B689B890122C4
:10122000194601F0A5FCFB7B18461037BD4680BD72
:1012300080B584B000AF78600B46FB701346BB707E
:10124000FB783B73BB787B737B6898687B68DB8932
:101250000022194601F08CFC7B68186807F10C012C
:101260004FF0FF33022203F018FC0346002B0CBFA3
:1012700001230023DBB2FB7300BF7B681B681846A9
:1012800004F010F90346012BF7D17B6898687B685E
:10129000DB890122194601F06BFCFB7B18461037F5
:1012A000BD4680BD80B582B000AF78607B6858686D
:1012B0007B689B890022194601F05AFC7B681868FC
:1012C0007B6803F112017B6803F12102082303F01C
:1012D000D1FE0346002B04D17B6801221A7401233E
:1012E00008E07B6858687B689B890122194601F0F9
:1012F0003FFC002318460837BD4680BD80B584B04A
:1013000000AF78607B6858687B689B89012219462A
:1013100001F02EFC7B6800221A747B6893F824305D
:10132000DBB21B021AB27B6893F82330DBB21BB22C
:101330001343FB817B6893F82630DBB21B021AB2A1
:101340007B6893F82530DBB21BB21343BB817B680B
:1013500093F82830DBB21B021AB27B6893F827306F
:10136000DBB21BB213437B817B6893ED0C7AB7F938
:101370000E3007EE903AF8EEE77A67EE277A7B6850
:10138000C3ED0E7A7B6893ED0C7AB7F90C3007EE5B
:10139000903AF8EEE77A67EE277A7B68C3ED0F7A2A
:1013A0007B6893ED0C7AB7F90A3007EE903AF8EEC5
:1013B000E77A67EE277A7B68C3ED107A00BF1037B3
:1013C000BD4680BD80B582B000AF78607B6898680C
:1013D0007B68DB890022194601F0CAFB7B6818682C
:1013E0007B6803F11A017B6803F12902072303F0EC
:1013F00041FE0346002B04D17B6801225A7401236D
:1014000008E07B6898687B68DB890122194601F057
:10141000AFFB002318460837BD4680BD80B584B0B9
:1014200000AF78607B6898687B68DB890122194689
:1014300001F09EFB7B6800225A747B6893F82B3086
:10144000DBB21B021AB27B6893F82A30DBB21BB204
:101450001343FB817B6893F82D30DBB21B021AB279
:101460007B6893F82C30DBB21BB21343BB817B68E3
:1014700093F82F30DBB21B021AB27B6893F82E3040
:10148000DBB21BB213437B817B6893ED0D7AB7F916
:101490000E3007EE903AF8EEE77A67EE277A7B682F
:1014A000C3ED117A7B6893ED0D7AB7F90C3007EE36
:1014B000903AF8EEE77A67EE277A7B68C3ED127A06
:1014C0007B6893ED0D7AB7F90A3007EE903AF8EEA3
:1014D000E77A67EE277A7B68C3ED137A00BF10378F
:1014E000BD4680BD80B582B000AF0346FB80FB885F
:1014F000042B03D10648FFF7D5FE05E0FB88082B37
:1015000002D10348FFF75EFF00BF0837BD4680BD2C
:10151000F803002080B582B000AF78607B681B685C
:101520000A4A93420DD10A4B1B7C002B02D008487B
:10153000FFF7E4FE064B5B7C002B02D00448FFF76C
:101540006DFF00BF0837BD4680BD00BF00300140C1
:10155000F80300202DE9B04F90B00AAF00F032FC44
:1015600000F076F800F03CF900F012F900F0DAF83B
:1015700007F0EEFC102301932E4B009310232E4A0C
:101580002E492F48FFF788FC00237B6100F080FC88
:1015900002467B69D31A092BF8D9294B9B6B184655
:1015A000FEF7D2FFC7E90201254BDB6B1846FEF7B9
:1015B000CBFF04460D46224B1B6C1846FEF7C4FFBA
:1015C000804689461E4B5B6C1846FEF7BDFF82467F
:1015D0008B461B4B9B6C1846FEF7B6FFC7E9000114
:1015E000174BDB6C1846FEF7AFFF02460B46CDE902
:1015F000082397ED007B8DED067BCDE904ABCDE9AB
:101600000289CDE90045D7E902230E490E4808F0CA
:10161000D3FE0D48FEF72CFE03469BB219460A483E
:1016200007F054FD1021094801F0BBFA00F030FC2E
:101630007861ABE70008024000000240E0020020B1
:10164000F803002028C600084804002000040240D7
:1016500080B594B000AF07F1200330220021184676
:1016600008F00DFF07F10C0300221A605A609A601F
:10167000DA601A610023BB60284B1B6C274A43F0D9
:1016800080531364254B1B6C03F08053BB60BB6815
:1016900000237B60224B1B68214A43F48043136084
:1016A0001F4B1B6803F480437B607B6801233B6214
:1016B0004FF480337B620223BB634FF48003FB63F0
:1016C00008233B64A8237B640223BB640723FB64D9
:1016D00007F12003184602F0E9FC0346002B01D075
:1016E00000F024F90F23FB6002233B6100237B61A0
:1016F0004FF4A053BB614FF48053FB6107F10C031F
:101700000521184602F04AFF0346002B01D000F0E5
:101710000DF900BF5037BD4680BD00BF0038024004
:101720000070004080B500AF174B184A1A60164B86
:101730004FF482725A60144B00229A60124B0022BE
:10174000DA60114B00221A610F4B00225A610E4BD6
:101750004FF400729A610C4B1022DA610A4B00229E
:101760001A62094B00225A62074B00229A62064B0A
:101770000A22DA62044803F007F90346002B01D07D
:1017800000F0D4F800BF80BDE0020020003001402E
:1017900080B582B000AF00237B60104B1B6B0F4AFB
:1017A00043F4800313630D4B1B6B03F480037B60D6
:1017B0007B6800220021382000F075FC382000F002
:1017C0008EFC002200213B2000F06DFC3B2000F04D
:1017D00086FC00BF0837BD4680BD00BF0038024010
:1017E00080B58AB000AF07F1140300221A605A6076
:1017F0009A60DA601A6100233B61484B1B6B474AD1
:1018000043F080031363454B1B6B03F080033B6184
:101810003B690023FB60414B1B6B404A43F00403D0
:1018200013633E4B1B6B03F00403FB60FB68002358
:10183000BB603A4B1B6B394A43F001031363374BD0
:101840001B6B03F00103BB60BB6800237B60334B61
:101850001B6B324A43F002031363304B1B6B03F0E4
:1018600002037B607B68002210212D4801F080F983
:10187000002210212B4801F07BF9002210212A4878
:1018800001F076F90C237B614FF48813BB610023D0
:10189000FB6107F114031946224800F0CDFF102325
:1018A0007B610123BB610023FB6100233B6207F1E5
:1018B000140319461A4800F0BFFF10237B6101236F
:1018C000BB610023FB6100233B6207F1140319464F
:1018D000144800F0B1FF10237B610123BB6100239A
:1018E000FB6100233B6207F1140319460E4800F028
:1018F000A3FF00220021082000F0D5FB082000F003
:10190000EEFB00220021092000F0CDFB092000F0B1
:10191000E6FB00BF2837BD4680BD00BF003802404F
:1019200000000240000802400004024080B400AF02
:1019300072B600BF00BFFDE780B483B000AF0023E4
:101940007B60104B5B6C0F4A43F4804353640D4B38
:101950005B6C03F480437B607B6800233B60094B36
:101960001B6C084A43F080531364064B1B6C03F056
:1019700080533B603B6800BF0C37BD465DF8047B7D
:10198000704700BF0038024080B58AB000AF786071
:1019900007F1140300221A605A609A60DA601A6133
:1019A0007B681B684C4A934240F0928000233B6165
:1019B0004A4B5B6C494A43F480535364474B5B6C1E
:1019C00003F480533B613B690023FB60434B1B6B7B
:1019D000424A43F001031363404B1B6B03F00103C6
:1019E000FB60FB68E0237B610223BB610023FB619A
:1019F00003233B6205237B6207F114031946384831
:101A000000F01AFF374B384A1A60364B4FF0C0626D
:101A10005A60344B00229A60324B0022DA60314B1C
:101A20004FF480621A612F4B00225A612D4B002225
:101A30009A612C4B0022DA612A4B4FF400321A6271
:101A4000284B00225A62274800F064FB0346002B13
:101A500001D0FFF76BFF7B68224ADA64214A7B687A
:101A60009363224B224A1A60204B4FF0C0625A60A7
:101A70001E4B40229A601D4B0022DA601B4B4FF434
:101A800080621A61194B00225A61184B00229A6138
:101A9000164B0022DA61154B4FF400321A62134BD9
:101AA00000225A62114800F035FB0346002B01D09A
:101AB000FFF73CFF7B680D4A9A640C4A7B6893638E
:101AC00000220021232000F0EEFA232000F007FB83
:101AD00000BF2837BD4680BD0030014000380240BD
:101AE00000000240380300201064024098030020E8
:101AF0005864024080B400AF00BFFDE780B400AF7F
:101B000000BFFDE780B400AF00BFFDE780B400AFC9
:101B100000BFFDE780B400AF00BFFDE780B400AFB9
:101B200000BFBD465DF8047B704780B400AF00BFC6
:101B3000BD465DF8047B704780B400AF00BFBD4672
:101B40005DF8047B704780B500AF00F08DF900BFF1
:101B500080BD80B500AF042001F03EF800BF80BD1D
:101B600080B500AF082001F037F800BF80BD00004D
:101B700080B500AF024803F079FB00BF80BD00BF15
:101B8000E002002080B500AF024800F0EBFB00BF90
:101B900080BD00BF3803002080B500AF024800F0D0
:101BA000E1FB00BF80BD00BF9803002080B500AFFF
:101BB000024801F06DF900BF80BD00BFB0190020E0
:101BC00080B400AF01231846BD465DF8047B704722
:101BD00080B582B000AF7860396008F0A3FC03469E
:101BE00016221A604FF0FF3318460837BD4680BDF5
:101BF00080B582B000AF78604FF0FF317868FFF7B2
:101C0000E7FF00BFFDE780B586B000AFF860B960C0
:101C10007A6000237B610AE0AFF300800146BB6875
:101C20005A1CBA60CAB21A707B6901337B617A6947
:101C30007B689A42F0DB7B6818461837BD4680BD4A
:101C400080B586B000AFF860B9607A6000237B6130
:101C500009E0BB685A1CBA601B781846AFF30080D5
:101C60007B6901337B617A697B689A42F1DB7B682F
:101C700018461837BD4680BD80B483B000AF786089
:101C80004FF0FF3318460C37BD465DF8047B7047B4
:101C900080B483B000AF786039603B684FF4005285
:101CA0005A60002318460C37BD465DF8047B704728
:101CB00080B483B000AF7860012318460C37BD466E
:101CC0005DF8047B704780B485B000AFF860B96000
:101CD0007A60002318461437BD465DF8047B7047D0
:101CE00080B586B000AF7860144A154BD31A7B617B
:101CF0007B693B61134B1B68002B02D1114B124ACD
:101D00001A60104B1A687B6813443A699A4207D2EA
:101D100008F008FC03460C221A604FF0FF3309E07C
:101D2000084B1B68FB60074B1A687B681344054A25
:101D30001360FB6818461837BD4680BD00000220BE
:101D400000040000C80400200022002080B400AF7E
:101D5000064BD3F88830054A43F47003C2F8883044
:101D600000BFBD465DF8047B704700BF00ED00E09A
:101D7000DFF834D0FFF7EAFF0C480D490D4A002385
:101D800002E0D458C4500433C4188C42F9D30A4A30
:101D90000A4C002301E013600432A242FBD308F096
:101DA000C7FBFFF7D7FB70470000022000000020B0
:101DB000C402002040CA0008C40200200022002003
:101DC000FEE7000080B500AF0E4B1B680D4A43F4E0
:101DD000007313600B4B1B680A4A43F48063136063
:101DE000084B1B68074A43F480731360032000F01C
:101DF0004FF90F2000F008F8FFF79EFD002318466A
:101E000080BD00BF003C024080B582B000AF78606A
:101E1000124B1A68124B1B7819464FF47A73B3FBB6
:101E2000F1F3B2FBF3F3184600F067F90346002B19
:101E300001D001230EE07B680F2B0AD800227968BD
:101E40004FF0FF3000F02FF9064A7B681360002343
:101E500000E0012318460837BD4680BD0000002081
:101E6000080000200400002080B400AF064B1B785F
:101E70001A46064B1B681344044A136000BFBD4654
:101E80005DF8047B704700BF08000020CC040020F0
:101E900080B400AF034B1B681846BD465DF8047B59
:101EA000704700BFCC04002080B584B000AF7860DC
:101EB000FFF7EEFFB8607B68FB60FB68B3F1FF3FA4
:101EC00005D00A4B1B781A46FB681344FB6000BF21
:101ED000FFF7DEFF0246BB68D31AFA689A42F7D8CA
:101EE00000BF00BF1037BD4680BD00BF0800002006
:101EF00080B485B000AF78607B6803F00703FB60B7
:101F00000C4BDB68BB60BA684FF6FF031340BB6045
:101F1000FB681A02BB68134343F0BF6343F400330A
:101F2000BB60044ABB68D36000BF1437BD465DF890
:101F3000047B704700ED00E080B400AF044BDB6829
:101F40001B0A03F007031846BD465DF8047B704783
:101F500000ED00E080B483B000AF0346FB7197F959
:101F60000730002B0BDBFB7903F01F02074997F9C1
:101F700007305B09012000FA02F241F8232000BF7C
:101F80000C37BD465DF8047B704700BF00E100E000
:101F900080B483B000AF03463960FB7197F9073016
:101FA000002B0ADB3B68DAB20C4997F907301201C3
:101FB000D2B20B4483F800230AE03B68DAB2084946
:101FC000FB7903F00F03043B1201D2B20B441A76E3
:101FD00000BF0C37BD465DF8047B704700E100E0B0
:101FE00000ED00E080B489B000AFF860B9607A60BD
:101FF000FB6803F00703FB61FB69C3F10703042BD4
:1020000028BF0423BB61FB690433062B02D9FB699B
:10201000033B00E000237B614FF0FF32BB6902FA13
:1020200003F3DA43BB681A407B699A404FF0FF31F3
:102030007B6901FA03F3D9437B680B4013431846CD
:102040002437BD465DF8047B7047000080B582B040
:1020500000AF78607B68013BB3F1807F01D301233F
:102060000FE00A4A7B68013B53600F214FF0FF30BD
:10207000FFF78EFF054B00229A60044B07221A607F
:10208000002318460837BD4680BD00BF10E000E0C1
:1020900080B582B000AF78607868FFF729FF00BF95
:1020A0000837BD4680BD80B586B000AF0346B96035
:1020B0007A60FB7300237B61FFF73EFF78617A68EB
:1020C000B9687869FFF78EFF024697F90F3011461D
:1020D0001846FFF75DFF00BF1837BD4680BD80B5CD
:1020E00082B000AF0346FB7197F907301846FFF73F
:1020F00031FF00BF0837BD4680BD80B582B000AF5C
:1021000078607868FFF7A2FF034618460837BD4697
:1021100080BD000080B586B000AF786000237B6191
:10212000FFF7B6FE38617B68002B01D1012399E0EF
:102130007B68022283F835207B68002283F83420F4
:102140007B681B681A687B681B6822F001021A60B2
:102150000FE0FFF79DFE02463B69D31A052B08D915
:102160007B6820225A657B68032283F8352003238D
:1021700078E07B681B681B6803F00103002BE8D143
:102180007B681B681B687B617A69384B13407B61F5
:102190007B685A687B689B681A437B68DB681A43D4
:1021A0007B681B691A437B685B691A437B689B6980
:1021B0001A437B68DB691A437B681B6A13437A699D
:1021C00013437B617B685B6A042B07D17B68DA6A07
:1021D0007B681B6B13437A6913437B617B681B68C5
:1021E0007A691A607B681B685B697B617B6923F095
:1021F00007037B617B685B6A7A6913437B617B6859
:102200005B6A042B17D17B689B6A7A6913437B61F5
:102210007B68DB6A002B0ED0786800F091FA0346E9
:10222000002B08D07B6840225A657B68012283F826
:102230003520012316E07B681B687A695A6178684B
:1022400000F048FA0346FB607B68DB6D3F229A4052
:10225000FB689A607B6800225A657B68012283F8DC
:102260003520002318461837BD4680BD3F8010F04A
:1022700080B586B000AFF860B9607A603B6000233B
:10228000FB75FB689B6D3B61FB6893F83430012B59
:1022900001D1022340E0FB68012283F83420FB686F
:1022A00093F83530DBB2012B2FD1FB68022283F883
:1022B0003520FB6800225A653B687A68B968F8687F
:1022C00000F0DAF9FB68DB6D3F229A403B699A60C7
:1022D000FB681B681A68FB681B6842F016021A60EC
:1022E000FB681B6C002B07D0FB681B681A68FB6837
:1022F0001B6842F008021A60FB681B681A68FB68DA
:102300001B6842F001021A6005E0FB68002283F8B6
:1023100034200223FB75FB7D18461837BD4680BD6F
:1023200080B483B000AF78607B6893F83530DBB25F
:10233000022B04D07B6880225A6501230CE07B6865
:10234000052283F835207B681B681A687B681B6848
:1023500022F001021A60002318460C37BD465DF8D2
:10236000047B704780B586B000AF78600023BB6007
:102370008E4B1B688E4AA2FB03239B0A7B617B6802
:102380009B6D3B613B691B68FB607B68DB6D0822D2
:102390009A40FB681340002B1AD07B681B681B68AF
:1023A00003F00403002B13D07B681B681A687B685A
:1023B0001B6822F004021A607B68DB6D08229A40D9
:1023C0003B699A607B685B6D43F001027B685A65EC
:1023D0007B68DB6D01229A40FB681340002B12D012
:1023E0007B681B685B6903F08003002B0BD07B6864
:1023F000DB6D01229A403B699A607B685B6D43F01C
:1024000002027B685A657B68DB6D04229A40FB6898
:102410001340002B12D07B681B681B6803F002037B
:10242000002B0BD07B68DB6D04229A403B699A60DD
:102430007B685B6D43F004027B685A657B68DB6DEB
:1024400010229A40FB681340002B43D07B681B6826
:102450001B6803F00803002B3CD07B68DB6D102267
:102460009A403B699A607B681B681B6803F4802371
:10247000002B18D07B681B681B6803F40023002B1B
:1024800008D17B681B6C002B24D07B681B6C7868A0
:1024900098471FE07B689B6C002B1BD07B689B6C74
:1024A0007868984716E07B681B681B6803F48073A4
:1024B000002B07D17B681B681A687B681B6822F0B9
:1024C00008021A607B681B6C002B03D07B681B6CB6
:1024D000786898477B68DB6D20229A40FB68134040
:1024E000002B00F08F807B681B681B6803F01003D3
:1024F000002B00F087807B68DB6D20229A403B69CF
:102500009A607B6893F83530DBB2052B36D17B6857
:102510001B681A687B681B6822F016021A607B68C9
:102520001B685A697B681B6822F080025A617B68CD
:102530001B6C002B03D17B689B6C002B07D07B6846
:102540001B681A687B681B6822F008021A607B68A7
:10255000DB6D3F229A403B699A607B68012283F8D9
:1025600035207B68002283F834207B681B6D002BAC
:102570007ED07B681B6D7868984779E07B681B6824
:102580001B6803F48023002B1DD07B681B681B682D
:1025900003F40023002B0DD17B685B6C002B31D042
:1025A0007B685B6C786898472CE000BF00000020D7
:1025B000B5814E1B7B68DB6B002B23D07B68DB6B0C
:1025C000786898471EE07B681B681B6803F480737B
:1025D000002B0FD17B681B681A687B681B6822F090
:1025E00010021A607B68012283F835207B68002284
:1025F00083F834207B68DB6B002B03D07B68DB6BBC
:10260000786898477B685B6D002B32D07B685B6D88
:1026100003F00103002B22D07B68052283F83520CC
:102620007B681B681A687B681B6822F001021A60CD
:10263000BB680133BB607A699A4207D37B681B6829
:102640001B6803F00103002BF2D100E000BF7B68A0
:10265000012283F835207B68002283F834207B68D0
:10266000DB6C002B05D07B68DB6C7868984700E05A
:1026700000BF1837BD4680BD80B485B000AFF8609C
:10268000B9607A603B60FB681B681A68FB681B686E
:1026900022F480221A60FB681B683A685A60FB6863
:1026A0009B68402B08D1FB681B687A689A60FB68BE
:1026B0001B68BA68DA6007E0FB681B68BA689A6052
:1026C000FB681B687A68DA6000BF1437BD465DF8A6
:1026D000047B704780B485B000AF78607B681B686E
:1026E000DBB2103B144AA2FB03231B09FB60134A15
:1026F000FB6813441B781A467B68DA65FB68032B7A
:1027000009D97B681B6823F47F7323F003031A1D28
:102710007B689A6507E07B681B6823F47F7323F06E
:1027200003037A6893657B689B6D18461437BD4632
:102730005DF8047B704700BFABAAAAAAB8C6000820
:1027400080B485B000AF78600023FB737B689B6A20
:10275000BB607B689B69002B1FD1BB68032B56D8DD
:1027600001A252F823F000BF792700088B27000848
:10277000792700080F2800087B68DB6A03F0807364
:10278000002B46D00123FB7343E07B68DB6AB3F187
:10279000C07F40D10123FB733DE07B689B69B3F5AB
:1027A000005F21D1BB68032B37D801A252F823F078
:1027B000C1270008C7270008C1270008D92700083B
:1027C0000123FB7330E07B68DB6A03F08073002B2E
:1027D00025D00123FB7322E07B68DB6AB3F1C07F65
:1027E0001FD10123FB731CE0BB68022B03D9BB681C
:1027F000032B03D018E00123FB7315E07B68DB6A31
:1028000003F08073002B0ED00123FB730BE000BF9D
:102810000AE000BF08E000BF06E000BF04E000BF20
:1028200002E000BF00E000BFFB7B18461437BD4646
:102830005DF8047B704700BF80B489B000AF78605A
:10284000396000237B6100233B610023BB610023CF
:10285000FB616BE10122FB6902FA03F37B613B68D8
:102860001B687A6913403B613A697B699A4240F080
:102870005A813B685B6803F00303012B05D03B687A
:102880005B6803F00303022B30D17B689B68BB615C
:10289000FB695B00032202FA03F3DB43BA691340CE
:1028A000BB613B68DA68FB695B0002FA03F3BA6953
:1028B0001343BB617B68BA699A607B685B68BB61E4
:1028C0000122FB6902FA03F3DB43BA691340BB61DF
:1028D0003B685B681B0903F00102FB6902FA03F322
:1028E000BA691343BB617B68BA695A603B685B682D
:1028F00003F00303032B17D07B68DB68BB61FB6924
:102900005B00032202FA03F3DB43BA691340BB61A5
:102910003B689A68FB695B0002FA03F3BA691343E8
:10292000BB617B68BA69DA603B685B6803F00303EC
:10293000022B23D1FB69DA087B68083253F8223076
:10294000BB61FB6903F007039B000F2202FA03F34C
:10295000DB43BA691340BB613B681A69FB6903F04A
:1029600007039B0002FA03F3BA691343BB61FB69D7
:10297000DA087B680832B96943F822107B681B6863
:10298000BB61FB695B00032202FA03F3DB43BA6914
:102990001340BB613B685B6803F00302FB695B00AB
:1029A00002FA03F3BA691343BB617B68BA691A6020
:1029B0003B685B6803F44033002B00F0B4800023D5
:1029C000FB60604B5B6C5F4A43F4804353645D4B38
:1029D0005B6C03F48043FB60FB685B4AFB699B080C
:1029E000023352F82330BB61FB6903F003039B0001
:1029F0000F2202FA03F3DB43BA691340BB617B6821
:102A0000524A93422BD07B68514A934225D07B682F
:102A1000504A93421FD07B684F4A934219D07B683B
:102A20004E4A934213D07B684D4A93420DD07B6847
:102A30004C4A934207D07B684B4A934201D107230B
:102A40000EE008230CE006230AE0052308E0042337
:102A500006E0032304E0022302E0012300E0002358
:102A6000FA6902F0030292009340BA691343BB6112
:102A70003549FB699B080233BA6941F823203B4B77
:102A80009B68BB613B69DB43BA691340BB613B6830
:102A90005B6803F48013002B03D0BA693B691343CE
:102AA000BB61324ABB699360304BDB68BB613B69F9
:102AB000DB43BA691340BB613B685B6803F40013F6
:102AC000002B03D0BA693B691343BB61274ABB693A
:102AD000D360264B5B68BB613B69DB43BA6913403B
:102AE000BB613B685B6803F40033002B03D0BA6919
:102AF0003B691343BB611D4ABB6953601B4B1B6899
:102B0000BB613B69DB43BA691340BB613B685B68EF
:102B100003F48033002B03D0BA693B691343BB61D4
:102B2000124ABB691360FB690133FB61FB690F2B20
:102B30007FF690AE00BF00BF2437BD465DF8047B32
:102B4000704700BF003802400038014000000240DA
:102B50000004024000080240000C02400010024045
:102B60000014024000180240001C0240003C0140DA
:102B700080B483B000AF78600B467B8013467B70D7
:102B80007B78002B03D07A887B689A6103E07B888E
:102B90001A047B689A6100BF0C37BD465DF8047B60
:102BA000704780B485B000AF78600B467B807B684F
:102BB0005B69FB607A88FB6813401A04FB68D943A1
:102BC0007B880B401A437B689A6100BF1437BD466F
:102BD0005DF8047B7047000080B582B000AF03460B
:102BE000FB80084B5A69FB881340002B06D0054A2E
:102BF000FB885361FB881846FEF774FC00BF08375A
:102C0000BD4680BD003C014080B586B002AF786013
:102C10007B68002B01D1012301E17B681B68BB604D
:102C20007B6893F89534DBB2002B06D17B680022D9
:102C300083F89424786806F091FB7B68032283F87C
:102C40009524BB68B3F1A04F02D17B6800229A7132
:102C50007B681B68184602F078FF7B6818687B6801
:102C60001A7C8DF8002004330ECB02F057FE034689
:102C7000002B05D07B68022283F895240123CEE047
:102C80007B681B680021184602F070FF0346002B8A
:102C900005D07B68022283F895240123BFE000233E
:102CA000FB734AE0FA7B79681346DB0013449B0010
:102CB0000B44153301221A70FA7B79681346DB0046
:102CC00013449B000B441433FA7B1A70FA7BFB7B92
:102CD00098B279681346DB0013449B000B442E33F3
:102CE00002461A80FA7B79681346DB0013449B0086
:102CF0000B44183300221A70FA7B79681346DB0004
:102D000013449B000B441C3300221A60FA7B796841
:102D10001346DB0013449B000B44203300221A604F
:102D2000FA7B79681346DB0013449B000B44243381
:102D300000221A60FB7B0133FB737B681B79FA7BF3
:102D40009A42AFD30023FB7344E0FA7B79681346C1
:102D5000DB0013449B000B4403F2552300221A703E
:102D6000FA7B79681346DB0013449B000B4403F5A0
:102D70001573FA7B1A70FA7B79681346DB001344EB
:102D80009B000B4403F5167300221A70FA7B7968D6
:102D90001346DB0013449B000B4403F5177300221A
:102DA0001A60FA7B79681346DB0013449B000B44DE
:102DB00003F5187300221A60FA7B79681346DB006A
:102DC00013449B000B4403F5197300221A60FB7B2C
:102DD0000133FB737B681B79FA7B9A42B5D37B681E
:102DE00018687B681A7C8DF8002004330ECB02F043
:102DF00009FF0346002B05D07B68022283F8952447
:102E000001230CE07B6800225A747B68012283F85E
:102E100095247B681B68184603F053FF002318466F
:102E20001037BD4680BD80B584B000AF78607B6848
:102E30001B68FB607B6893F89434012B01D102235B
:102E400022E07B68012283F89424FB68DB6803F0AE
:102E50004003002B09D07B685B7B012B05D1FB680D
:102E60009B6B43F48032FB689A637B681B6818464F
:102E700002F05AFE7B681B68184603F001FF7B686E
:102E8000002283F89424002318461037BD4680BDE5
:102E900090B58DB000AF78607B681B683B623B6A81
:102EA000FB617B681B68184603F0BFFF0346002BDD
:102EB00040F08C847B681B68184603F023FF0346B0
:102EC000002B00F08284FB6903F500639B681B0AFA
:102ED000C3F30D027B68C3F8D4247B681B681846D3
:102EE00003F010FF034603F00203022B07D17B68B7
:102EF0001B685A697B681B6802F002025A617B6892
:102F00001B68184603F0FEFE034603F01003102B67
:102F100061D17B681B689A697B681B6822F010028C
:102F20009A613B6A1B6ABB61BB6903F00F021346DF
:102F3000DB0013449B0003F514737A6813440433D5
:102F40007B61BB695B0C03F00F03022B24D1BA69D0
:102F500047F6F0731340002B35D07B69D968BB6905
:102F60001B099BB2C3F30A039BB21A46386A03F0EB
:102F700035FD7B69DA68BB691B09C3F30A031A4490
:102F80007B69DA607B695A69BB691B09C3F30A0371
:102F90001A447B695A6116E0BB695B0C03F00F03AE
:102FA000062B10D17B6803F29C4308221946386A2D
:102FB00003F014FD7B695A69BB691B09C3F30A035B
:102FC0001A447B695A617B681B689A697B681B6835
:102FD00042F010029A617B681B68184603F092FE6B
:102FE000034603F40023B3F5002F40F0A78000232D
:102FF0007B627B681B68184603F097FEB86299E015
:10300000BB6A03F00103002B00F08E807B681B6815
:103010007A6AD2B21146184603F0BBFE38613B69AA
:1030200003F00103002B0CD07B6A5A01FB691344A7
:1030300003F530631A4601239360796A786800F0DB
:10304000A3FE3B6903F00803002B0CD07B6A5A01F6
:10305000FB69134403F530631A4608239360796AC9
:10306000786800F079FF3B6903F01003002B08D06B
:103070007B6A5A01FB69134403F530631A46102337
:1030800093603B6903F00203002B30D03B6A5B691D
:1030900003F08003802B09D1FB6903F500635B68B3
:1030A000FA6902F5006243F4806353607A6A13465A
:1030B000DB0013449B0003F514737A681344043354
:1030C0007B617B69DB78012B08D17B690022DA7098
:1030D0007B6ADBB21946786806F046FA7B6A5A01C9
:1030E000FB69134403F530631A46022393603B697E
:1030F00003F02003002B08D07B6A5A01FB691344BC
:1031000003F530631A46202393603B6903F40053B0
:10311000002B09D07B6A5A01FB69134403F5306325
:103120001A464FF4005393607B6A01337B62BB6A9B
:103130005B08BB62BB6A002B7FF462AF7B681B68D5
:10314000184603F0DFFD034603F48023B3F5802F18
:1031500040F0DB807B681B68184603F000FEB86215
:1031600000237B62CDE0BB6A03F00103002B00F07B
:10317000C2807B681B687A6AD2B21146184603F097
:1031800026FE38613B6903F00103002B57D07B6AB0
:1031900003F00F03012202FA03F3FB60FB6903F55E
:1031A00000635A6BFB68DB43F96901F5006113406A
:1031B0004B637B6A5A01FB69134403F510631A469B
:1031C000012393607B689B79012B32D179687A6AFD
:1031D0001346DB0013449B000B44203319687868C6
:1031E0007A6A1346DB0013449B0003441C331B68BC
:1031F000194478687A6A1346DB0013449B00034441
:10320000203319607B6A002B13D179687A6A1346E0
:10321000DB0013449B000B4424331B68002B08D1B4
:103220007B6818687B6803F29C431A46012103F00F
:103230002DFE7B6ADBB21946786806F010F93B690F
:1032400003F00803002B08D07B6A5A01FB69134482
:1032500003F510631A46082393603B6903F01003DB
:10326000002B08D07B6A5A01FB69134403F51063F5
:103270001A46102393603B6903F04003002B08D0EB
:103280007B6A5A01FB69134403F510631A46402315
:1032900093603B6903F00203002B23D0796A386AFC
:1032A00002F014FE7A6A1346DB0013449B001033CD
:1032B0007A68134404337B617B69DB78012B08D186
:1032C0007B690022DA707B6ADBB21946786806F007
:1032D0005DF97B6A5A01FB69134403F510631A46D2
:1032E000022393603B6903F08003002B03D0796ACB
:1032F000786800F0BDFC7B6A01337B62BB6A5B08C7
:10330000BB62BB6A002B7FF42EAF7B681B6818463C
:1033100003F0F8FC034603F00043B3F1004F22D161
:10332000FB6903F500635B68FA6902F5006223F04C
:10333000010353607B6893F8CC34012B08D17B6880
:10334000002283F8CC240021786800F0A3FE02E07C
:10335000786806F0FBF87B681B685A697B681B6815
:1033600002F000425A617B681B68184603F0CAFCF1
:10337000034603F40063B3F5006F12D1FB6903F554
:1033800000639B6803F00103012B02D1786806F00B
:10339000B7F87B681B685A697B681B6802F4006297
:1033A0005A617B681B68184603F0ACFC034603F4C3
:1033B0008053B3F5805F40F0B780FB6903F500638D
:1033C0005B68FA6902F5006223F0010353607B68D1
:1033D0001B681021184602F079FD0023FB6246E0CD
:1033E000FB6A5A01FB69134403F510631A464FF652
:1033F0007F339360FB6A5A01FB69134403F5106342
:103400001B68FA6A5101FA690A4402F5106223F452
:1034100000131360FB6A5A01FB69134403F5306320
:103420001A464FF67F339360FB6A5A01FB691344D7
:1034300003F530631B68FA6A5101FA690A4402F520
:10344000306223F400131360FB6A5A01FB691344D2
:1034500003F530631B68FA6A5101FA690A4402F500
:10346000306243F000631360FB6A0133FB627B68E8
:103470001B791A46FB6A9342B2D3FB6903F50063DA
:10348000DB69FA6902F5006243F00113D3617B68DE
:10349000DB7B002B16D0FB6903F50063D3F8843087
:1034A000FA6902F5006243F00B03C2F88430FB694D
:1034B00003F500635B6CFA6902F5006243F00B03ED
:1034C000536415E0FB6903F500635B69FA6902F573
:1034D000006243F4005343F02B035361FB6903F58F
:1034E00000631B69FA6902F5006243F00B03136184
:1034F000FB6903F500631B68FA6902F5006223F4B7
:10350000FE6313607B6818687B6899797B6803F2B7
:103510009C431A4603F0BAFC7B681B685A697B68B7
:103520001B6802F480525A617B681B68184603F0DE
:10353000E9FB034603F40053B3F5005F23D17B6836
:103540001B68184603F07FFC7B681B68184602F076
:1035500036FD03461A467B68DA717B681C6801F009
:1035600007FA01467B68DB791A46204602F03AFAF0
:10357000786805F09CFF7B681B685A697B681B684C
:1035800002F400525A617B681B68184603F0BAFBCC
:10359000034603F00803082B0AD1786805F079FF89
:1035A0007B681B685A697B681B6802F008025A61D5
:1035B0007B681B68184603F0A5FB034603F08003F5
:1035C000802B23D13B6A9B6923F080023B6A9A617E
:1035D00001237B6214E079687A6A1346DB001344A6
:1035E0009B000B4403F257231B78012B05D17B6A08
:1035F000DBB21946786800F00AFB7B6A01337B6214
:103600007B681B791A467B6A9342E4D37B681B680C
:10361000184603F077FB034603F48013B3F5801FCD
:103620003CD101237B622BE07B6A5A01FB69134486
:1036300003F510631B68BB6179687A6A1346DB0087
:1036400013449B000B4418331B78012B15D1BB6925
:10365000002B12DA79687A6A1346DB0013449B0068
:103660000B44173301221A707B6ADBB263F07F03CD
:10367000DBB21946786800F0CAFA7B6A01337B62D4
:103680007B681B791A467B6A9342CDD37B681B68A3
:103690005A697B681B6802F480125A617B681B6858
:1036A000184603F02FFB034603F40013B3F5001F85
:1036B00056D101237B6245E07B6A5A01FB691344C2
:1036C00003F530631B68BB6179687A6A1346DB00D7
:1036D00013449B000B4403F516731B78012B2ED16A
:1036E000BB69002B2BDABB6903F480327B68D3F80B
:1036F000D43403F001039A4221D179687A6A1346DF
:10370000DB0013449B000B4403F2572301221A7081
:103710003B6A9B6943F080023B6A9A613B6A5B6942
:1037200003F08003002B0AD1FB6903F500635B689B
:10373000FA6902F5006243F40073536008E07B6AA3
:1037400001337B627B681B791A467B6A9342B3D351
:103750007B681B685A697B681B6802F400125A6117
:103760007B681B68184603F0CDFA034603F08043DC
:10377000B3F1804F0AD1786805F01AFF7B681B68A7
:103780005A697B681B6802F080425A617B681B683B
:10379000184603F0B7FA034603F00403042B15D1CF
:1037A0007B681B685B68BB61BB6903F00403002B8B
:1037B00002D0786805F00AFF7B681B6859687B684F
:1037C0001B68BA690A435A6000E000BF3437BD463F
:1037D00090BD80B582B000AF78600B46FB707B680F
:1037E00093F89434012B01D1022312E07B6801226B
:1037F00083F894247B68FA785A747B681B68FA789B
:103800001146184603F016FA7B68002283F89424C8
:10381000002318460837BD4680BD80B584B000AF90
:103820007860084611461A460346FB700B463B80FB
:103830001346BB700023FB7297F90330002B0FDA9D
:10384000FB7803F00F021346DB0013449B00103398
:103850007A6813440433FB60FB6801225A700FE05E
:10386000FB7803F00F021346DB0013449B0003F5C3
:1038700014737A6813440433FB60FB6800225A70A7
:10388000FB7803F00F03DAB2FB681A703B88C3F3CE
:103890000A02FB689A60FB68BA781A71FB685B7869
:1038A000002B04D0FB681B781A46FB685A83BB7850
:1038B000022B02D1FB6800225A717B6893F8943482
:1038C000012B01D102230EE07B68012283F89424AE
:1038D0007B681B68F968184602F096FB7B6800223B
:1038E00083F89424FB7A18461037BD4680BD80B516
:1038F00084B000AF78600B46FB7097F90330002B63
:103900000FDAFB7803F00F021346DB0013449B0031
:1039100010337A6813440433FB60FB6801225A7049
:103920000FE0FB7803F00F021346DB0013449B000B
:1039300003F514737A6813440433FB60FB680022B8
:103940005A70FB7803F00F03DAB2FB681A707B68D9
:1039500093F89434012B01D102230EE07B680122FD
:1039600083F894247B681B68F968184602F0D4FB3E
:103970007B68002283F89424002318461037BD4644
:1039800080BD80B586B000AFF8607A603B600B46C2
:10399000FB72FB7A03F00F021346DB0013449B001B
:1039A00003F51473FA68134404337B617B697A6806
:1039B000DA607B693A681A617B6900225A617B6927
:1039C00000225A70FB7A03F00F03DAB27B691A7097
:1039D000FB689B79012B02D17A687B69DA61FB680D
:1039E0001868FB689B791A46796902F071FC00231C
:1039F00018461837BD4680BD80B483B000AF7860EC
:103A00000B46FB70FB7803F00F0279681346DB006E
:103A100013449B000B4403F51A731B6818460C37BC
:103A2000BD465DF8047B704780B586B000AFF86096
:103A30007A603B600B46FB72FB7A03F00F02134681
:103A4000DB0013449B001033FA68134404337B619A
:103A50007B697A68DA607B693A681A617B6900225F
:103A60005A617B6901225A70FB7A03F00F03DAB2C4
:103A70007B691A70FB689B79012B02D17A687B699C
:103A8000DA61FB681868FB689B791A46796902F06D
:103A90001FFC002318461837BD4680BD80B584B092
:103AA00000AF78600B46FB70FB7803F00F037A6879
:103AB0001279934201D901234FE097F90330002B8B
:103AC0000FDAFB7803F00F021346DB0013449B0070
:103AD00010337A6813440433FB60FB6801225A7088
:103AE0000DE0FA781346DB0013449B0003F51473D2
:103AF0007A6813440433FB60FB6800225A70FB6849
:103B000001229A70FB7803F00F03DAB2FB681A7097
:103B10007B6893F89434012B01D102231DE07B686C
:103B2000012283F894247B681B68F968184602F028
:103B3000ADFFFB7803F00F03002B09D17B681868F9
:103B40007B6899797B6803F29C431A4603F09EF9DF
:103B50007B68002283F89424002318461037BD4662
:103B600080BD80B584B000AF78600B46FB70FB78F9
:103B700003F00F037A681279934201D9012342E0DE
:103B800097F90330002B0FDAFB7803F00F0213468E
:103B9000DB0013449B0010337A6813440433FB604A
:103BA000FB6801225A700FE0FB7803F00F02134606
:103BB000DB0013449B0003F514737A681344043349
:103BC000FB60FB6800225A70FB6800229A70FB7849
:103BD00003F00F03DAB2FB681A707B6893F8943431
:103BE000012B01D102230EE07B68012283F894248B
:103BF0007B681B68F968184602F0B6FF7B680022F4
:103C000083F89424002318461037BD4680BD80B544
:103C100084B000AF78600B46FB7097F90330002B3F
:103C20000CDAFB7803F00F021346DB0013449B0011
:103C300010337A6813440433FB600CE0FB7803F024
:103C40000F021346DB0013449B0003F514737A68DC
:103C500013440433FB607B681B68F968184602F064
:103C6000D5FD0346FB72FB7A18461037BD4680BD72
:103C700080B58AB002AF786039607B681B687B6171
:103C80007B693B613A681346DB0013449B001033A9
:103C90007A6813440433FB60FB685A69FB681B694C
:103CA0009A4201D901236BE0FB681A69FB685B69E2
:103CB000D31AFB61FB689B68FA699A4202D9FB68D8
:103CC0009B68FB61FB6903339B08BB612AE0FB68CF
:103CD0001A69FB685B69D31AFB61FB689B68FA6928
:103CE0009A4202D9FB689B68FB61FB6903339B081E
:103CF000BB61FB68D9683B68DAB2FB6998B27B6844
:103D00009B7900930346786902F02AFEFB68DA6823
:103D1000FB691A44FB68DA60FB685A69FB691A445C
:103D2000FB685A613B685A013B69134403F5106311
:103D30009B699BB2BA699A4209D8FB685A69FB68C9
:103D40001B699A4203D2FB681B69002BBFD1FB6839
:103D50001A69FB685B699A4211D83B6803F00F034C
:103D6000012202FA03F3BB603B6903F500635A6B5F
:103D7000BB68DB43396901F5006113404B630023E5
:103D800018462037BD4680BD80B588B000AF78604A
:103D900039607B681B68FB61FB69BB61FB693C3375
:103DA00004331B687B613B685A01BB69134403F50C
:103DB00030639B683B617B689B79012B7BD13B69BE
:103DC00003F00803002B15D07B69614A934240F24F
:103DD000B9803B6903F40043002B00F0B3803B68DB
:103DE0005A01BB69134403F530631A464FF400438C
:103DF0009360A7E03B6903F02003002B09D03B68E8
:103E00005A01BB69134403F530631A4620239360BB
:103E100098E03B6903F02803002B40F093807B6916
:103E20004B4A93420FD93B6903F40043002B0AD05D
:103E30003B685A01BB69134403F530631A464FF4DB
:103E4000004393607EE03A681346DB0013449B0016
:103E500003F514737A6813440433FB60FB681A6A31
:103E60003B685901BB690B4403F530631B69C3F31D
:103E70001203D21AFB685A613B68002B14D1FB680D
:103E80001B69002B09D17B6818687B6803F29C438F
:103E90001A46012102F0FAFF06E0FB68DA68FB68C7
:103EA0005B691A44FB68DA603B68DBB219467868E4
:103EB00005F0BAFA46E07B69264A934224D13B6971
:103EC00003F40043002B0AD03B685A01BB6913443A
:103ED00003F530631A464FF40043936032E03B69C8
:103EE00003F02003002B08D03B685A01BB69134440
:103EF00003F530631A46202393603B68DBB2194612
:103F0000786805F091FA1DE03B68002B14D17968C0
:103F10003A681346DB0013449B000B4403F5197306
:103F20001B68002B08D17B6818687B6803F29C43F0
:103F30001A46002102F0AAFF3B68DBB219467868F6
:103F400005F072FA002318462037BD4680BD00BF39
:103F50000A30544F0A31544F80B586B000AF7860B4
:103F600039607B681B687B617B693B617B693C33A3
:103F700004331B68FB603B685A013B69134403F53B
:103F800030639B68BB60FB68154A93420ED9BB68DF
:103F900003F40043002B09D03B685A013B691344EA
:103FA00003F530631A464FF400439360786805F0D8
:103FB00029FAFB680A4A93420CD97B689B79012B4A
:103FC00008D17B6818687B6803F29C431A4601217C
:103FD00002F05CFF002318461837BD4680BD00BFC5
:103FE0000A30544F80B485B000AF78600B46FB7048
:103FF00013463B807B681B685B6ABB60FB78002BC9
:1040000007D13B8819047B681B68BA680A439A6227
:1040100028E07B681B689B6A1B0CBA681344BB6072
:104020000023FB730DE07B681A68FB7B40339B0029
:1040300013445B681B0CBA681344BB60FB7B013301
:10404000FB73FA7BFB78013B9A42ECD33B88180464
:104050007B681968FB78013BBA68024340339B00D8
:104060000B445A60002318461437BD465DF8047BA4
:10407000704780B483B000AF78600B467B807B686C
:104080001B687A885A62002318460C37BD465DF8D3
:10409000047B704780B483B000AF78600B46FB7040
:1040A00000BF0C37BD465DF8047B704780B586B015
:1040B00000AF78607B68002B01D1012367E27B6849
:1040C0001B6803F00103002B75D0884B9B6803F03D
:1040D0000C03042B0CD0854B9B6803F00C03082BBE
:1040E00012D1824B5B6803F48003B3F5800F0BD1D0
:1040F0007E4B1B6803F40033002B5BD07B685B684E
:10410000002B57D1012342E27B685B68B3F5803F07
:1041100006D1764B1B68754A43F4803313601DE06B
:104120007B685B68B3F5A02F0CD1704B1B686F4A9E
:1041300043F4802313606D4B1B686C4A43F4803357
:1041400013600BE0694B1B68684A23F480331360EB
:10415000664B1B68654A23F4802313607B685B68A9
:10416000002B13D0FDF794FE386108E0FDF790FEB8
:1041700002463B69D31A642B01D9032307E25B4B48
:104180001B6803F40033002BF0D014E0FDF780FE31
:10419000386108E0FDF77CFE02463B69D31A642BC8
:1041A00001D90323F3E1514B1B6803F40033002BC7
:1041B000F0D100E000BF7B681B6803F00203002B16
:1041C00063D04A4B9B6803F00C03002B0BD0474B8A
:1041D0009B6803F00C03082B1CD1444B5B6803F471
:1041E0008003002B16D1414B1B6803F00203002B08
:1041F00005D07B68DB68012B01D00123C7E13B4B75
:104200001B6823F0F8027B681B69DB003749134306
:104210000B603AE07B68DB68002B20D0344B012236
:104220001A60FDF735FE386108E0FDF731FE024601
:104230003B69D31A022B01D90323A8E12B4B1B683E
:1042400003F00203002BF0D0284B1B6823F0F80288
:104250007B681B69DB00254913430B6015E0244B89
:1042600000221A60FDF714FE386108E0FDF710FE29
:1042700002463B69D31A022B01D9032387E11B4B6A
:104280001B6803F00203002BF0D17B681B6803F06E
:104290000803002B36D07B685B69002B16D0154BCA
:1042A00001221A60FDF7F4FD386108E0FDF7F0FD2A
:1042B00002463B69D31A022B01D9032367E10B4B5A
:1042C0005B6F03F00203002BF0D01BE0094B0022D0
:1042D0001A60FDF7DDFD38610EE0FDF7D9FD0246FD
:1042E0003B69D31A022B07D9032350E1003802405F
:1042F00000004742800E4742884B5B6F03F0020389
:10430000002BEAD17B681B6803F00403002B00F04C
:1043100097800023FB75814B1B6C03F08053002BAF
:104320000FD10023BB607D4B1B6C7C4A43F0805354
:1043300013647A4B1B6C03F08053BB60BB68012392
:10434000FB75774B1B6803F48073002B18D1744BFB
:104350001B68734A43F480731360FDF799FD38615D
:1043600008E0FDF795FD02463B69D31A022B01D9FF
:1043700003230CE16A4B1B6803F48073002BF0D01D
:104380007B689B68012B06D1644B1B6F634A43F02B
:10439000010313671CE07B689B68052B0CD15F4B06
:1043A0001B6F5E4A43F0040313675C4B1B6F5B4A51
:1043B00043F0010313670BE0584B1B6F574A23F080
:1043C00001031367554B1B6F544A23F00403136713
:1043D0007B689B68002B15D0FDF75AFD38610AE019
:1043E000FDF756FD02463B69D31A41F288329342EB
:1043F00001D90323CBE0494B1B6F03F00203002BD1
:10440000EED014E0FDF744FD38610AE0FDF740FD11
:1044100002463B69D31A41F28832934201D9032301
:10442000B5E03E4B1B6F03F00203002BEED1FB7D8A
:10443000012B05D1394B1B6C384A23F08053136490
:104440007B689B69002B00F0A180344B9B6803F0D4
:104450000C03082B5CD07B689B69022B41D1314B4C
:1044600000221A60FDF714FD386108E0FDF710FD29
:1044700002463B69D31A022B01D9032387E0274B5D
:104480001B6803F00073002BF0D17B68DA697B684E
:104490001B6A1A437B685B6A9B011A437B689B6AB1
:1044A0005B08013B1B041A437B68DB6A1B061B4944
:1044B00013434B601B4B01221A60FDF7E9FC386186
:1044C00008E0FDF7E5FC02463B69D31A022B01D94F
:1044D00003235CE0114B1B6803F00073002BF0D04A
:1044E00054E0104B00221A60FDF7D2FC386108E05E
:1044F000FDF7CEFC02463B69D31A022B01D90323F8
:1045000045E0064B1B6803F00073002BF0D13DE043
:104510007B689B69012B07D1012338E000380240FA
:1045200000700040600047421B4B5B68FB607B688B
:104530009B69012B28D0FB6803F480027B68DB6950
:104540009A4221D1FB6803F03F027B681B6A9A42C2
:104550001AD1FA6847F6C07313407A68526A92011A
:10456000934211D1FB6803F440327B689B6A5B087D
:10457000013B1B049A4207D1FB6803F070627B6821
:10458000DB6A1B069A4201D0012300E00023184693
:104590001837BD4680BD00BF0038024080B584B0EA
:1045A00000AF786039607B68002B01D10123CCE03B
:1045B000684B1B6803F007033A689A420CD9654BB5
:1045C0003A68D2B21A70634B1B6803F007033A686B
:1045D0009A4201D00123B8E07B681B6803F0020314
:1045E000002B20D07B681B6803F00403002B05D050
:1045F000594B9B68584A43F4E05393607B681B68AF
:1046000003F00803002B05D0534B9B68524A43F438
:1046100060439360504B9B6823F0F0027B689B687B
:104620004D4913438B607B681B6803F00103002B2B
:1046300044D07B685B68012B07D1474B1B6803F4B0
:104640000033002B19D101237FE07B685B68022BCC
:1046500003D07B685B68032B07D13F4B1B6803F0DB
:104660000073002B09D101236FE03B4B1B6803F063
:104670000203002B01D1012367E0374B9B6823F035
:1046800003027B685B68344913438B60FDF700FCD1
:10469000F8600AE0FDF7FCFB0246FB68D31A41F222
:1046A0008832934201D903234FE02B4B9B6803F0E0
:1046B0000C027B685B689B009A42EBD1254B1B6820
:1046C00003F007033A689A420CD2224B3A68D2B2FE
:1046D0001A70204B1B6803F007033A689A4201D016
:1046E000012332E07B681B6803F00403002B08D031
:1046F000194B9B6823F4E0527B68DB68164913432F
:104700008B607B681B6803F00803002B09D0124BF9
:104710009B6823F460427B681B69DB000E491343EE
:104720008B6000F021F802460B4B9B681B0903F0DD
:104730000F030A49CB5C22FA03F3094A1360094BC1
:104740001B681846FDF760FB002318461037BD466E
:1047500080BD00BF003C024000380240A8C60008EF
:1047600000000020040000202DE9B04F94B000AFFD
:1047700000237B640023FB6400233B640023BB64B1
:10478000794B9B6803F00C03082B0DD0082B00F22B
:10479000E180002B02D0042B03D0DBE0734BBB6421
:1047A000DBE0724BBB64D8E06F4B5B6803F03F0308
:1047B0007B646D4B5B6803F48003002B63D06A4B12
:1047C0005B689B090022BB63FA63BB6BC3F30803FE
:1047D0003B6300237B63D7E90C4522462B464FF011
:1047E00000004FF00001590141EAD2615001024638
:1047F0000B462146511A3961294663EB01037B615F
:104800004FF000024FF00003D7E904AB59468B018B
:10481000514643EA916351468A015146B2EB010881
:10482000594663EB01094FF000024FF000034FEAD5
:10483000C90343EA58734FEAC80290469946234693
:1048400018EB0303BB602B4649EB0303FB604FF0FF
:1048500000024FF00003D7E9024529468B022146AA
:1048600043EA915321468A02104619467B6C002286
:10487000BB62FA62D7E90A23FCF796F902460B46B7
:104880001346FB6458E0384B5B689B0900221846CE
:104890001146C0F308033B6200237B62D7E9088915
:1048A00042464B464FF000004FF00001590141EAEB
:1048B000D261500102460B464146B2EB010A49461D
:1048C00063EB010B4FF000024FF000034FEA8B1334
:1048D00043EA9A634FEA8A12B2EB0A0463EB0B05D0
:1048E0004FF000024FF00003EB0043EA5473E20084
:1048F00014461D464346E3183B604B4645EB030315
:104900007B604FF000024FF00003D7E900452946D5
:104910008B02214643EA915321468A0210461946EA
:104920007B6C0022BB61FA61D7E90623FCF73CF9F6
:1049300002460B461346FB640B4B5B681B0C03F0F3
:10494000030301335B003B64FA6C3B6CB2FBF3F393
:10495000BB6402E0054BBB6400BFBB6C184650371C
:10496000BD46BDE8B08F00BF003802400024F4000F
:1049700080B400AF034B1B681846BD465DF8047B4E
:10498000704700BF0000002080B582B000AF7860A3
:104990007B68002B01D101237BE07B685B6A002BE5
:1049A00008D17B685B68B3F5827F09D07B68002201
:1049B000DA6105E07B6800221A617B6800225A6197
:1049C0007B6800229A627B6893F85130DBB2002B3F
:1049D00006D17B68002283F850207868FCF7D4FF6A
:1049E0007B68022283F851207B681B681A687B6809
:1049F0001B6822F040021A607B685B6803F48272D5
:104A00007B689B6803F404431A437B68DB6803F408
:104A100000631A437B681B6903F002031A437B6837
:104A20005B6903F001031A437B689B6903F400731D
:104A30001A437B68DB6903F038031A437B681B6AFF
:104A400003F0800342EA03017B689B6A03F400528F
:104A50007B681B680A431A607B689B691B0C03F028
:104A600004017B685B6A03F010027B681B680A43E1
:104A70005A607B681B68DA697B681B6822F40062F5
:104A8000DA617B6800225A657B68012283F8512035
:104A9000002318460837BD4680BD80B588B000AFFA
:104AA000F860B9603B601346FB80FDF7F1F9F861EF
:104AB000FB887B83FB6893F85130DBB2012B01D07C
:104AC00002232AE1BB68002B02D0FB88002B01D116
:104AD000012322E1FB6893F85030012B01D102231E
:104AE0001BE1FB68012283F85020FB68032283F856
:104AF0005120FB6800225A65FB68BA681A63FB689C
:104B0000FA889A86FB68FA88DA86FB6800229A633C
:104B1000FB6800229A87FB680022DA87FB68002284
:104B20005A64FB6800221A64FB689B68B3F5004F67
:104B30000FD1FB681B681A68FB681B6822F04002F3
:104B40001A60FB681B681A68FB681B6842F48042A5
:104B50001A60FB681B681B6803F04003402B07D0FA
:104B6000FB681B681A68FB681B6842F040021A6009
:104B7000FB68DB68B3F5006F52D1FB685B68002B04
:104B800002D07B8B012B45D1FB681B6B1A88FB681D
:104B90001B68DA60FB681B6B9A1CFB681A63FB6876
:104BA000DB8E9BB2013B9AB2FB68DA8632E0FB688F
:104BB0001B689B6803F00203022B12D1FB681B6B7E
:104BC0001A88FB681B68DA60FB681B6B9A1CFB6821
:104BD0001A63FB68DB8E9BB2013B9AB2FB68DA86F4
:104BE00018E0FDF755F90246FB69D31A3A689A4274
:104BF00003D83B68B3F1FF3F02D13B68002B09D1DA
:104C0000FB68012283F85120FB68002283F85020C2
:104C1000032382E0FB68DB8E9BB2002BC7D153E0FD
:104C2000FB685B68002B02D07B8B012B47D1FB68B4
:104C30001A6BFB681B680C3312781A70FB681B6BCD
:104C40005A1CFB681A63FB68DB8E9BB2013B9AB26D
:104C5000FB68DA8633E0FB681B689B6803F002039D
:104C6000022B13D1FB681A6BFB681B680C3312789C
:104C70001A70FB681B6B5A1CFB681A63FB68DB8E9F
:104C80009BB2013B9AB2FB68DA8618E0FDF700F9A7
:104C90000246FB69D31A3A689A4203D83B68B3F1DB
:104CA000FF3F02D13B68002B09D1FB68012283F84A
:104CB0005120FB68002283F8502003232DE0FB687D
:104CC000DB8E9BB2002BC6D1FA693968F86800F018
:104CD000D1FD0346002B02D0FB6820225A65FB68F9
:104CE0009B68002B0AD100237B61FB681B68DB6893
:104CF0007B61FB681B689B687B617B69FB680122A9
:104D000083F85120FB68002283F85020FB685B6D1C
:104D1000002B01D0012300E0002318462037BD46B8
:104D200080BD80B58AB000AFF860B9607A607B80E2
:104D300001237B62FDF7ACF83862FB6893F85130D1
:104D4000FB77FB685B68BB617B88FB82FB7F012B89
:104D50000CD0BB69B3F5827F06D1FB689B68002B42
:104D600002D1FB7F042B01D002237FE1BB68002B23
:104D700005D07B68002B02D07B88002B01D101235A
:104D800074E1FB6893F85030012B01D102236DE1EF
:104D9000FB68012283F85020FB6893F85130DBB2A6
:104DA000042B03D0FB68052283F85120FB68002206
:104DB0005A65FB687A689A63FB687A88DA87FB68C9
:104DC0007A889A87FB68BA681A63FB687A88DA86F9
:104DD000FB687A889A86FB6800221A64FB680022C6
:104DE0005A64FB681B681B6803F04003402B07D024
:104DF000FB681B681A68FB681B6842F040021A6077
:104E0000FB68DB68B3F5006F7ED1FB685B68002B45
:104E100002D0FB8A012B6CD1FB681B6B1A88FB68E4
:104E20001B68DA60FB681B6B9A1CFB681A63FB68E3
:104E3000DB8E9BB2013B9AB2FB68DA8659E0FB68D5
:104E40001B689B6803F00203022B1BD1FB68DB8EFF
:104E50009BB2002B16D07B6A012B13D1FB681B6B16
:104E60001A88FB681B68DA60FB681B6B9A1CFB687E
:104E70001A63FB68DB8E9BB2013B9AB2FB68DA8651
:104E800000237B62FB681B689B6803F00103012B16
:104E900019D1FB68DB8F9BB2002B14D0FB681B6819
:104EA000DA68FB689B6B92B21A80FB689B6B9A1C5A
:104EB000FB689A63FB68DB8F9BB2013B9AB2FB688D
:104EC000DA8701237B62FCF7E3FF02463B6AD31AD1
:104ED0003A6B9A420DD83B6BB3F1FF3F09D0FB68A8
:104EE000012283F85120FB68002283F8502003231D
:104EF000BCE0FB68DB8E9BB2002BA0D1FB68DB8F94
:104F00009BB2002B9BD182E0FB685B68002B02D038
:104F1000FB8A012B71D1FB681A6BFB681B680C3391
:104F200012781A70FB681B6B5A1CFB681A63FB68CB
:104F3000DB8E9BB2013B9AB2FB68DA865DE0FB68D0
:104F40001B689B6803F00203022B1CD1FB68DB8EFD
:104F50009BB2002B17D07B6A012B14D1FB681A6B14
:104F6000FB681B680C3312781A70FB681B6B5A1CA9
:104F7000FB681A63FB68DB8E9BB2013B9AB2FB684D
:104F8000DA8600237B62FB681B689B6803F00103E1
:104F9000012B19D1FB68DB8F9BB2002B14D0FB686F
:104FA0001B68DA68FB689B6BD2B21A70FB689B6B5C
:104FB0005A1CFB689A63FB68DB8F9BB2013B9AB279
:104FC000FB68DA8701237B62FCF762FF02463B6ADB
:104FD000D31A3A6B9A4203D83B6BB3F1FF3F02D12D
:104FE0003B6B002B09D1FB68012283F85120FB6841
:104FF000002283F85020032338E0FB68DB8E9BB24D
:10500000002B9CD1FB68DB8F9BB2002B97D13A6AB7
:10501000396BF86800F02EFC0346002B08D0FB68C3
:1050200020225A65FB68002283F8502001231DE0EE
:10503000FB689B68002B0AD100233B61FB681B685F
:10504000DB683B61FB681B689B683B613B69FB68F5
:10505000012283F85120FB68002283F85020FB686E
:105060005B6D002B01D0012300E000231846283798
:10507000BD4680BD80B586B000AFF860B9607A608B
:105080007B80FB6893F85130FB75FB685B683B6184
:10509000FB7D012B0CD03B69B3F5827F06D1FB6809
:1050A0009B68002B02D1FB7D042B01D00223CFE0B3
:1050B000BB68002B05D07B68002B02D07B88002BBF
:1050C00001D10123C4E0FB6893F85030012B01D1DA
:1050D0000223BDE0FB68012283F85020FB6893F8AF
:1050E0005130DBB2042B03D0FB68052283F851203A
:1050F000FB6800225A65FB68BA681A63FB687A8805
:105100009A86FB687A88DA86FB687A689A63FB6815
:105110007A889A87FB687A88DA87FB6800221A64A3
:10512000FB6800225A64FB6893F85130DBB2042B11
:1051300008D1FB68DB6C484A1A64FB68DB6C474AA1
:10514000DA6307E0FB68DB6C454A1A64FB68DB6CDA
:10515000444ADA63FB68DB6C434ADA64FB68DB6C65
:1051600000221A65FB68D86CFB681B680C33194673
:10517000FB689B6B1A46FB68DB8F9BB2FDF778F8E8
:105180000346002B0BD0FB685B6D43F01002FB68FD
:105190005A65FB68002283F85020012358E0FB6821
:1051A0001B685A68FB681B6842F001025A60FB6882
:1051B0009B6C00221A64FB689B6C0022DA63FB681C
:1051C0009B6C0022DA64FB689B6C00221A65FB680A
:1051D000986CFB681B6B1946FB681B680C331A46FE
:1051E000FB68DB8E9BB2FDF743F80346002B0BD028
:1051F000FB685B6D43F01002FB685A65FB68002298
:1052000083F85020012323E0FB681B681B6803F030
:105210004003402B07D0FB681B681A68FB681B68BB
:1052200042F040021A60FB68002283F85020FB68BD
:105230001B685A68FB681B6842F020025A60FB68D2
:105240001B685A68FB681B6842F002025A60002320
:1052500018461837BD4680BDF9550008C1540008EE
:1052600015560008695500083156000880B588B009
:1052700000AF78607B681B685B68FB617B681B68BC
:105280009B68BB61BB6903F04003002B0ED1BB6977
:1052900003F00103002B09D0FB6903F04003002B4E
:1052A00004D07B681B6C78689847CEE0BB6903F03C
:1052B0000203002B09D0FB6903F08003002B04D00C
:1052C0007B685B6C78689847BFE0BB6903F020039C
:1052D000002B0AD1BB6903F04003002B05D1BB6949
:1052E00003F48073002B00F0B080FB6903F020030F
:1052F000002B00F0AA80BB6903F04003002B23D0F1
:105300007B6893F85130DBB2032B11D07B685B6D67
:1053100043F004027B685A6500237B617B681B684D
:10532000DB687B617B681B689B687B617B690BE04A
:1053300000233B617B681B68DB683B617B681B6803
:105340009B683B613B6980E0BB6903F02003002B55
:1053500014D07B685B6D43F001027B685A650023C3
:10536000FB607B681B689B68FB607B681B681A6836
:105370007B681B6822F040021A60FB68BB6903F47B
:105380008073002B0CD07B685B6D43F008027B6858
:105390005A650023BB607B681B689B68BB60BB6869
:1053A0007B685B6D002B4FD07B681B685A687B68FD
:1053B0001B6822F0E0025A607B68012283F85120CA
:1053C000FB6903F00203002B04D1FB6903F0010326
:1053D000002B34D07B681B685A687B681B6822F0FE
:1053E00003025A607B68DB6C002B11D07B68DB6C9E
:1053F000174A1A657B68DB6C1846FCF791FF034679
:10540000002B05D07B685B6D43F040027B685A65DA
:105410007B689B6C002B16D07B689B6C0C4A1A65D2
:105420007B689B6C1846FCF77BFF0346002B0AD079
:105430007B685B6D43F040027B685A6503E07868E7
:1054400000F026F800E000BF00BF2037BD4680BD59
:105450007156000880B483B000AF786000BF0C378D
:10546000BD465DF8047B704780B483B000AF7860C0
:1054700000BF0C37BD465DF8047B704780B483B035
:1054800000AF786000BF0C37BD465DF8047B704705
:1054900080B483B000AF786000BF0C37BD465DF8C4
:1054A000047B704780B483B000AF78607B6893F86A
:1054B0005130DBB218460C37BD465DF8047B7047AF
:1054C00080B584B000AF78607B689B6BFB60FCF7B5
:1054D000DFFCB8607B681B681B6803F48073B3F55E
:1054E000807F3BD0FB681B685A68FB681B6822F012
:1054F00020025A60FB689B68002B0DD1FB685B683B
:10550000B3F5827F08D1FB681B685A68FB681B688B
:1055100022F003025A6007E0FB681B685A68FB68C8
:105520001B6822F001025A60BA686421F86800F032
:105530003BF90346002B02D0FB6820225A65FB682A
:105540000022DA87FB68012283F85120FB685B6D3B
:10555000002B03D0F868FFF79BFF02E0F868FFF725
:1055600079FF1037BD4680BD80B584B000AF78604C
:105570007B689B6BFB60FCF78BFCB8607B681B68EF
:105580001B6803F48073B3F5807F2FD0FB681B6822
:105590005A68FB681B6822F020025A60BA686421CE
:1055A000F86800F067F90346002B05D0FB685B6DD7
:1055B00043F02002FB685A65FB681B685A68FB6869
:1055C0001B6822F003025A60FB680022DA86FB683F
:1055D0000022DA87FB68012283F85120FB685B6DAB
:1055E000002B03D0F868FFF753FF02E0F868FBF7E1
:1055F00091FF1037BD4680BD80B584B000AF7860A4
:105600007B689B6BFB60F868FFF72EFF00BF1037CD
:10561000BD4680BD80B584B000AF78607B689B6B71
:10562000FB60F868FFF72AFF00BF1037BD4680BD5A
:1056300080B584B000AF78607B689B6BFB60FB68D3
:105640001B685A68FB681B6822F003025A60FB68FB
:105650005B6D43F01002FB685A65FB68012283F81A
:105660005120F868FFF714FF00BF1037BD4680BD1A
:1056700080B584B000AF78607B689B6BFB60FB6893
:105680000022DA87FB680022DA86F868FFF700FF5D
:1056900000BF1037BD4680BD80B588B000AFF86050
:1056A000B9603B601346FB71FCF7F2FB0246BB6A34
:1056B0009B1A3A681344FB61FCF7EAFBB861394B6B
:1056C0001B685B011B0DFA6902FB03F37B6154E06D
:1056D0003B68B3F1FF3F50D0FCF7DAFB0246BB69F1
:1056E000D31AFA699A4202D9FB69002B3DD1FB68B3
:1056F0001B685A68FB681B6822F0E0025A60FB686E
:105700005B68B3F5827F11D1FB689B68B3F5004FEE
:1057100004D0FB689B68B3F5806F07D1FB681B68FA
:105720001A68FB681B6822F040021A60FB689B6ADB
:10573000B3F5005F0FD1FB681B681A68FB681B6834
:1057400022F400521A60FB681B681A68FB681B6829
:1057500042F400521A60FB68012283F85120FB6872
:10576000002283F85020032317E07B69002B01D12E
:105770000023FB617B69013B7B61FB681B689A68C6
:10578000BB681340BA689A420CBF01230023DBB206
:105790001A46FB799A429BD1002318462037BD4612
:1057A00080BD00BF0000002080B586B002AFF86069
:1057B000B9607A60FB685B68B3F5827F11D1FB68E2
:1057C0009B68B3F5004F04D0FB689B68B3F5806F0E
:1057D00007D1FB681B681A68FB681B6822F040024F
:1057E0001A60FB685B68B3F5827F2AD1FB689B680F
:1057F000B3F5806F12D07B680093BB6800228021D4
:10580000F868FFF749FF0346002B2DD0FB685B6D5E
:1058100043F02002FB685A65032326E07B6800936F
:10582000BB6800220121F868FFF736FF0346002B12
:105830001AD0FB685B6D43F02002FB685A650323B6
:1058400013E07B680093BB6800220121F868FFF732
:1058500023FF0346002B07D0FB685B6D43F020025B
:10586000FB685A65032300E0002318461037BD4645
:1058700080BD000080B588B002AFF860B9607A6082
:105880007B680093BB6801220221F868FFF704FFE0
:105890000346002B07D0FB685B6D43F02002FB68DA
:1058A0005A65032332E01B4B1B681B4AA2FB0323F0
:1058B0005B0D4FF47A7202FB03F37B61FB685B685C
:1058C000B3F5827F12D17B680093BB6800228021F0
:1058D000F868FFF7E1FE0346002B16D0FB685B6D0E
:1058E00043F02002FB685A6503230FE07B69002B1D
:1058F0000AD07B69013B7B61FB681B689B6803F0F6
:105900008003802BF2D000E000BF00231846183738
:10591000BD4680BD00000020819F5E1684B080B52A
:1059200084B000AF786007F11C0080E80E0097F8A3
:105930002130012B23D17B689B6B23F480327B6861
:105940009A637B68DB6823F4840323F040037A685E
:10595000D3607B68DB6823F440127B68DA6097F8D9
:105960002830012B05D17B68DB6843F480127B680B
:10597000DA60786801F0E8FA0346FB731BE07B68A5
:10598000DB6843F040027B68DA60786801F0DCFA9B
:105990000346FB7397F82530002B06D17B689B6B81
:1059A00043F480327B689A6305E07B689B6B23F449
:1059B00080327B689A63BB7F012B0BD17B689B682D
:1059C00043F006027B689A607B689B6843F0200284
:1059D0007B689A60FB7B18461037BD46BDE8804067
:1059E00004B0704780B487B000AFF860B960134668
:1059F000FB71FB79022B65D1BB68414A934206D902
:105A0000BB68404A934202D20F237B6162E0BB68CD
:105A10003C4A934206D3BB683B4A934202D20E23D0
:105A20007B6157E0BB68384A934206D3BB68374A6C
:105A3000934202D20D237B614CE0BB68334A934210
:105A400006D3BB68324A934202D80C237B6141E003
:105A5000BB682F4A934206D9BB682E4A934202D8AC
:105A60000B237B6136E0BB682A4A934206D9BB68A8
:105A7000294A934202D80A237B612BE0BB68264A5D
:105A8000934206D9BB68254A934202D209237B611F
:105A900020E0BB68214A934206D3BB68204A934268
:105AA00002D808237B6115E0BB681D4A934206D9E2
:105AB000BB681C4A934202D207237B610AE006239B
:105AC0007B6107E0FB79002B02D109237B6101E0B8
:105AD00009237B61FB68DB6823F47052FB68DA60A2
